S0120000626F6F746C6F616465722E73726563E7
S113000078220020911200008D1200008D12000051
S113001000000000000000000000000000000000DC
S11300200000000000000000000000008D1200002D
S113003000000000000000008D1200000512000006
S11300408D1200008D1200008D1200008D12000030
S1130050F10D00008D120000F10400008D1200006B
S11300608D1200008D1200008D1200008D12000010
S11300708D1200008D1200003510000001120000E6
S11300808D120000031200008D1200008D1200007A
S11300908D1200000000000000000000B10E0000FE
S11300A08D1200008D1200008D1200008D120000D0
S11300B00000000010B5064C2378002B07D1054B37
S11300C0002B02D0044800E000BF0123237010BDC0
S11300D020000020000000009C1E0000084B10B50A
S11300E0002B03D00749084800E000BF0748036815
S11300F0002B00D110BD064B002BFBD09847F9E72D
S113010000000000240000209C1E00009C1E000033
S11301100000000080B500AF80239B011A6882F3C1
S11301200888034A9360034B1B689847BD4680BD0B
S113013000ED00E004200000F0B5DE4657464E46D0
S11301404546E0B5954CA544954B9847954B984743
S1130150954B0393039B5A1E0392002BFAD1002064
S1130160924B9847002801D0914B9847914B984760
S1130170002802D0904B9847FEE7904B9847002800
S113018030D08F4C20008F4B98478F4B98478F4B24
S1130190984720008E4B9847431C26D08D4B984798
S11301A0042205A900208C4B9847431C22D004222A
S11301B0059904A8894B9847059B04330593884BFC
S11301C09847431C1BD0874B9847874B5A6880211C
S11301D08A435A6059688022D2020A435A60002333
S11301E09B46B0E0724B9847CBE7804B9847704BE7
S11301F09847D3E77D4B98476D4B9847D7E77B4BA0
S113020098476B4B9847DEE701228021490018008C
S1130210774B984725E05B46002B36D14A46531E60
S11302209A419146BF1946AB9A457BD006AB0193E0
S113023046AB9A466F4B9F4279D88026B603F61B8D
S113024080235B009E4200D91E00A0470028FCD0FA
S113025046AB9A45D8D001228021490006A8644BB8
S11302609847009B4A461343D5D1059BF2199A42FD
S1130270D1D9012291465A46002AD3D0DB1B5A46D3
S1130280012A09D001239946CCE75B46012BC9D149
S11302904B46002BC6D0002359087208934691425E
S11302A032D201229343581B019B9C4684444E4AFC
S11302B00123E146B4460E004146B8460CE028004E
S11302C098434F467F5B0780023102350498814290
S11302D01ED201365E4510D0FF20284206D1107D83
S11302E01842FCD06808D061434810803F2028425F
S11302F0E5D1107D1842FCD0E1E7664647468846C2
S1130300012399469B468DE7012399469B4689E73D
S113031066464746884600239946013300932033B6
S11303209B467FE746AB019306AB9A4682E7334C84
S1130330A0470028FCD0324B98475B4601339BB260
S11303409B46012B1BD82F4B9847814601238022C3
S11303505200010046A82C4CA047264B9945E6D8EC
S113036000270023009398468025AD0146AB0193F6
S113037006AB9A46214C4B46B9461F005DE71A4A24
S11303800123117D1942FCD0184B9847BFF34F8FBE
S11303901E4A1F4BDA60BFF34F8FFEE7E4FDFFFFF9
S11303A05D0E00004D100000A086010071100000D9
S11303B015010000E50A00006D0E0000050C0000A8
S11303C000000020750900003D040000C50E000077
S11303D0890D000081090000BD090000F10700003B
S11303E0090900004D05000000400041DD0B00003C
S11303F039080000FFFF1F0002A5FFFF39060000B7
S113040055090000B9090000790800000400FA0544
S113041000ED00E00F23184000023033194001437F
S11304208020C0010143044A53785BB2002BFBDBFC
S1130430014B59807047C046000C0040254A536860
S11304401E218B431C390B435360234A53785BB200
S1130450002BFBDB0122204B1A701A0053785BB28D
S1130460002BFBDB1C4901220B781342FCD11B49F6
S11304700B6A402293431A4A13409B009B08802234
S1130480120613430B621022CB681A42FCD01349A4
S113049000238B84134B1A68134B1B689B05920E25
S11304A092029B0D13438B621022CB681A42FCD03C
S11304B00A4B02229A841900CE32CB681A42FCD12C
S11304C0054A53785BB2002BFBDB034B074A5A60A7
S11304D07047C04600400041000C00400008004046
S11304E0FFFCFFFF246080002860800000070900F3
S11304F0074B01213F2299540F329B5C9B0706D581
S11305004D3A044B1A6001314E23014AD1547047CD
S1130510004800413C0000200122014B1A60704752
S11305203C0000200022084B1A801A0013889BB25A
S1130530002BFBD10122044B1A801A0013889BB2B2
S1130540002BFBD17047C04600480041F0B5CE46B1
S1130550474680B52F4B304A536330499163022498
S11305608021090189462E49118000252A21917391
S113057029398C462B49516161461982198AC9046B
S1130580C90C1982198A284E31401982198A4846A1
S113059001431982198A254F39401982198A18266C
S11305A0B14308208046404601431982DD613F2162
S11305B088460121404611541D4951644D2154542B
S11305C061461984198CC904C90C1984198C8C4688
S11305D080214901604601431984198C8C4680218D
S11305E0C900604601431984198C0F401F84198C7B
S11305F0B1431984DD624346D45480231B04484626
S11306001843506440220B4B1A600CBC9046994628
S1130610F0BDC046000100200048004190000020C9
S1130620020F000001010101FFEFFFFFFFFCFFFFCC
S11306300007800000E100E0044B1B680020002B51
S113064003D00022014B1A60013070473C000020A7
S1130650F8B505000C0016000B4B98470B4B5E8257
S1130660280028305861A1199961094A3F270124BB
S1130670D4554025013454555E8498625962D4554A
S11306805455044B9847F8BD1D120000000100208A
S1130690004800415D120000F0B5DE4657464E4664
S11306A04546E0B585B0282398468044002402AB33
S11306B0DC71444A444B538001235B429360434BB7
S11306C05363434890634348108001208246188056
S11306D01888C004C00C188018883F4DA9462840CB
S11306E0188018883D4DAC462840188018883C4F27
S11306F03840188018881826B0431880DC603F20E2
S1130700834614543748506450461882188AC004EB
S1130710C00C1882188A4D4628401882188A6546EB
S113072028401882188A07401F82188AB04318820A
S1130730DC610123584613542B4B5364002932D0F7
S1130740224E02AB0733019340239A460234A1465A
S11307504E2522E0BBB29B46738043467360019BE7
S1130760B360002084463F23D05450464B46135474
S11307705B4673824346B361019B736101233F204F
S1130780135453464846D05463463F201354535D94
S11307902342FCD05455C91B05D00F00134B99427A
S11307A0D8D91F00D6E7074901220B7B1342FCD19D
S11307B0044B986805B03CBC90469946A246AB46AB
S11307C0F0BDC046004800410420000000010020A4
S11307D090000020060F0000FFF7FFFFFFFBFFFF64
S11307E0FFFCFFFF0007800000088000FFFF0000FF
S11307F010B50400002907DB0A4B18681300220017
S1130800094CA047002010BD8B1808488342F3D838
S113081080231B069C466144054BC9182000054BE8
S11308209847EFE7700000202D0C0000A90A008013
S1130830D0130000BD13000010B504000A4B1B6860
S1130840002B07D0002A06D1084B18680A002100A3
S1130850074B984710BD8AB2044B1B6818682100E7
S1130860044B9847F6E7C0466C0000207000002057
S1130870E50C00005106000070B5050014001E00D0
S113088000290DDB174B1B68002B1BD0002E21D138
S1130890154B186822002900144B9847002070BD9E
S11308A08B18134A9342EDD880231B069C4661445F
S11308B0104BC9182200104B9847002EEED00F4B56
S11308C09847EBE7084B18680D4B98470122054BF6
S11308D01A60DBE7A2B2044B1B6818682900094BB5
S11308E09847DBE76C00002070000020E50C000056
S11308F0A90A0080D0130000BD13000019050000F0
S1130900A10C000051060000F8B50C4C0C21206825
S11309100B4B98470B4EB0470B4D69680C39236855
S113092018680A4B984707002068094B9847B04756
S1130930A868C01B431E98414042F8BD70000020C7
S1130940A10C000025050000F40100209906000018
S1130950090D000010B5044B1868044B9847002299
S1130960034B1A6010BDC04670000020090D000042
S11309706C000020014B18607047C04670000020D6
S113098010B50A4C802200212000094B9847094BDE
S113099022689A4206D1054B5B6880208003984206
S11309A0804110BD01204042FBE7C046F401002015
S11309B0F1070000785634122020704710B50C005F
S11309C0002A11D1364B5B6D834247D9013348D09D
S11309D0334B9A6D002319188900891804222000CA
S11309E0304B9847002010BD012A0FD0022A19D09D
S11309F0032A29D0042A49D1294BDB6C984248D2D6
S1130A00013349D0264B1A6D0023E4E7264BDB8CD7
S1130A10234AD26DC118914226D2013227D0204AEE
S1130A20126ED8E71E4BDB6F0022984201D31E4B97
S1130A301A8D13001A49496E12188A421AD24A1C96
S1130A401BD0174A926EC6E7154BDB6E984217D23D
S1130A50013318D0124B1A6F0023BCE70120404227
S1130A60C1E701204042BEE701204042BBE701202C
S1130A704042B8E701204042B5E701204042B2E7D6
S1130A8001204042AFE701204042ACE70120404250
S1130A90A9E701204042A6E701204042A3E7C0465F
S1130AA0F4010020F1070000400000200C4B1B68FB
S1130AB05B065B0F072B0ED00622D21A80235B0045
S1130AC093401A0A824208D900028022D202944634
S1130AD06044C01A70470020FCE70020FAE7C046D3
S1130AE00040800070B500200E4B9847002816D0B7
S1130AF00D4B186004200B4DA84704000B4B1860E5
S1130B000120A847E0235B019C4664448023DB0268
S1130B109C4200D0FEE7064B1860002070BD012007
S1130B20FCE7C046AD0A000078000020F001002078
S1130B3074000020F8B50C001B4B9847061E32D0F9
S1130B401A4B5A6880218A435A6059688022D2021B
S1130B500A435A60190001220B7D1342FCD042085B
S1130B60124BDA61124A1A80431CFF339C460F4F22
S1130B7001223B7D1342FCD0050040350100914326
S1130B80831B9343E35A0B800230A842F6D128001A
S1130B90AC45EED1054B5A6880210A435A605A6825
S1130BA004490A405A60F8BDAD0A00000040004103
S1130BB002A5FFFFFFFFFBFF10B50C00054B984794
S1130BC0002805D08022520001002000024B9847E3
S1130BD010BDC046AD0A0000BD13000000B5C1B091
S1130BE069460020054B98470022FC236946CA50F9
S1130BF00020034B984741B000BDC046B90B00002C
S1130C00350B0000074B1B68002B08D0FC229858BA
S1130C10054B9C46604443425841C0B27047002093
S1130C20FCE7C04678000020565487ABF0B583B08B
S1130C3005000F0001921E000379DB0116498C4662
S1130C406344816859610B210068144CA047390C36
S1130C50C9B22868A047390AC9B22868A047F9B2BE
S1130C602868A04700212868A047002E0BD0019BCC
S1130C701C009C466644094F00212868B847207030
S1130C800134B442F8D12B79AA68DB0102498C46BD
S1130C9063449A6103B0F0BD00440041ED110000CB
S1130CA070B504000E000379DB010C4A94466344DA
S1130CB082685A610B210068094DA847310CC9B2FA
S1130CC02068A847310AC9B22068A847F1B2206851
S1130CD0A84720680021A84770BDC04600440041D1
S1130CE0ED110000F8B50600002A09D00C008D189B
S1130CF0044F00213068B84720700134AC42F8D169
S1130D00F8BDC046ED11000003798268DB01024999
S1130D108C4663449A61704700440041F8B505006D
S1130D200C000379DB010C498C46634481685961EA
S1130D30002A08D0A618094F21782868B8472070DF
S1130D400134A642F8D12B79AA68DB0102498C460A
S1130D5063449A61F8BDC04600440041ED110000AF
S1130D6000B583B001A9AB230B700122054B984752
S1130D7012230093009B5A1E0092002BFAD103B059
S1130D8000BDC0461D0D000030B583B00500114BF9
S1130D90984701AC9F23237000236370A370E37012
S1130DA00422210028000C4B98476378EF2B0BD1C9
S1130DB001AB9B78402B0AD101ABD8781538431E80
S1130DC09841404203B030BD01204042FAE701207F
S1130DD04042F7E7610D00001D0D0000034B1B7836
S1130DE0002B01D1014B18707047C0460C00002045
S1130DF010B5184B1B695B0528D50120164B984785
S1130E00144B1B695B070FD4124B1B69DB050BD416
S1130E10104B1B699B0707D40E4B1B695B0503D45E
S1130E200C4B1B691B0710D50A4B04221A619A60EC
S1130E30FC321A619A60FE3A1A619A608022D200EA
S1130E401A619A6008221A619A6010BD0320024B4D
S1130E509847D5E700180040DD0D0000024B8022C2
S1130E6012029A609A6170470044004182B0802265
S1130E7052050D4B5A610D4B0093009B5A1E009274
S1130E80002BFAD180225205074B9A60074B01933D
S1130E90019B5A1E0192002BFAD180221202024BAE
S1130EA05A6102B07047C046004400411027000058
S1130EB00123024A1360024A137670477C00002023
S1130EC000400042F0B5DE4657464E464546E0B582
S1130ED085B04A4C80231B04A360A36180239B0339
S1130EE0A3605522A35C0121884601263343A35401
S1130EF01B3AA35C0E3189460B4030210B43A354AB
S1130F0080235B03A3605421635C33436354A35C79
S1130F1049468B4303210B43A3548023DB036360C3
S1130F2063615623E25C04210A43E254E25C3243E7
S1130F30E2543B22A35C49468B430D390B43A35433
S1130F402F4F3B6A1B3A13433B62153100202D4B54
S1130F509B46984743460293019300230093002243
S1130F6001212948294DAA46A84780235B02A36092
S1130F70A36180239B02A3605122A35C3343A35447
S1130F80193AA35C0F210B4020210B43A354802367
S1130F901B03A3601B32A35C3343A3541A3AA35C20
S1130FA00F251D400D43A5548023DB02636063615C
S1130FB05223E15C04200143E154E15C0E43E65416
S1130FC0A35C49468B430D390B43A3543B6A313A26
S1130FD013433B6213310020D84743460293013345
S1130FE0019300930023002201210948D04705B052
S1130FF03CBC90469946A246AB46F0BD0044004135
S11310000004004015040000001400425D110000BB
S1131010000C0042054A137D04210B431375802103
S1131020C9018023024AD1507047C046001C0042C7
S113103000E100E010B58022D205024B5A60024B59
S1131040984710BD0044004115100000074B5E2274
S1131050995C012081439954995C0220014399547D
S11310608022D2055A605A617047C046004400414C
S113107030B52D4B1A682D4B1C682D4B13402D4950
S11310808B4208D000284CD02B4B1B8B01204042B4
S1131090DB0507D530BD294B234029498B42F1D1CB
S11310A00020F7E7244B586859688025A943596004
S11310B05D688021C90229435960198B2025FF35B9
S11310C0294319831F49D9611F4919801900012334
S11310D00D7D1D42FCD0184B198B2025FF3529436B
S11310E019831849D96119490A40FE2109020C40A3
S11310F010490A430C490A60114A14430B4A14600C
S1131100134A1A801A000123117D1942FCD00A4B9C
S11311105860BFF34F8F0F4A0F4BDA60BFF34F8F06
S1131120FEE701204042B5E7004080000440800013
S113113077FF01FE17A700D800400041FF01FFFF21
S11311405A00FFFF0020400005A5FFFF8800FE01B4
S113115006A5FFFF0400FA0500ED00E070B51600D7
S113116004AA127805AC2578C9B2017306994C1EFD
S1131170A14101241C4064034B0423430424C1699A
S11311800C42FCD143600221012E02D980239B052D
S1131190194302239E431CD1104B1940104B194094
S11311A003231A4012050F4C214011432B401B040A
S11311B00D4A114019438023994380331943E43B7A
S11311C09943103B19430222C3691A42FCD10160BE
S11311D070BD80235B051943E0E7C046FFFFFFEFC6
S11311E0FFFFFFF0FFFFCFFFFFFFFCFF02230376AB
S11311F081620222037E1342FCD0806AC0B270472F
S1131200704770470022034B1A600132024B1A6088
S11312107047C04610E000E0100000200C4B1B6833
S1131220002B06D1EFF31083002B07D00022094BCB
S11312301A70074A136801331360704772B6BFF31C
S11312405F8F0022044B1A700132024B1A70F0E7D0
S1131250800000208400002014000020084B1A683D
S1131260013A1A601B68002B09D1064B1B78002B2E
S113127005D00122044B1A70BFF35F8F62B670472A
S1131280800000208400002014000020FEE70000FD
S1131290F8B52A4A2A4B9A4211D01A00294B9A428D
S11312A00DD2294A03339B1A9B0801339B00002269
S11312B0234822498C58845004329A42FAD1234A52
S11312C0234B9A420AD2D34321495B1803218B430F
S11312D004339B18002102C29342FCD11D4AFF2112
S11312E01D4B8B439360FD3990235B001B4AD15007
S11312F01B4AD3780325AB4302242343D370D3780A
S11313000C27BB4308263343D370164B987B3022FB
S11313109043202210439873997BB94331439973C6
S11313209A7BAA4322439A730F4A536880210B4342
S113133053600E4B98470E4B9847FEE79C1E0000E7
S113134000000020180000200400002020000020DD
S11313507402002000ED00E0000000000070004175
S11313600050004100480041004000417513000056
S11313703901000070B500260C4D0D4C641BA410FF
S1131380A64209D1002600F079FD0A4D0A4C641BDF
S1131390A410A64205D170BDB300EB58984701369E
S11313A0EEE7B300EB5898470136F2E7881E0000D9
S11313B0881E0000881E00008C1E0000002310B54B
S11313C09A4200D110BDCC5CC4540133F8E700004C
S11313D00D01C200B30020007E00A100FF00310116
S11313E031015201530178017801FFFFFFFFFFFF34
S11313F0FFFFFFFFFFFFFFFFFFFFFFFFFFFFFFFFF9
S1131400FFFFFFFFFFFFFFFFFFFFFFFFFFFFFFFFE8
S1131410FFFF0000010002000300040005000600B5
S11314200700080009000A000B000C000D000E0064
S11314300F00100011001200130014001500160014
S11314401700180019001A001B001C001D001E00C4
S11314501F00200021002200230024002500260074
S11314602700280029002A002B002C002D002E0024
S11314702F003000310032003300340035003600D4
S11314803700380039003A003B003C003D003E0084
S11314903F00400041004200430044004500460034
S11314A04700480049004A004B004C004D004E00E4
S11314B04F00500051005200530054005500560094
S11314C05700580059005A005B005C005D005E0044
S11314D05F006000610062006300FFFF640065005C
S11314E06600670068006900FFFF6A006B006C001B
S11314F06D00FFFFFFFF6E006F007000710072004F
S1131500FFFF73007400FFFFFFFFFFFF750076000D
S11315107700780079007A007B007C007D007E00F3
S11315207F00800081008200830084008500FFFF2B
S113153086008700880089008A008B00FFFF8C00EA
S11315408D008E008F009000FFFFFFFF910092003E
S113155093009400950096009700980099009A00D3
S11315609B009C009D009E009F00A000A100FFFF27
S1131570A200A300A400A500A600A700A800A9003B
S1131580AA00AB00AC00AD00FFFFFFFFAE00AF0050
S1131590B000B100B20007000000FFFFFFFF010828
S11315A0020300000000030301020100000005051E
S11315B0000303000000050A0002070000000508FC
S11315C000030E00000005080003130000000103DF
S11315D0020218000000030A010219000000030AB5
S11315E001021D000000050500032100000005059F
S11315F0000525000000020401092900000005017E
S113160000072A000000020202092B000000050A5C
S113161000032C0000000508000333000000050847
S1131620000338000000050800033D000000050821
S113163000034200000005080003470000000508FD
S113164000034C00000005080003510000000508D9
S1131650000356000000050800035B0000000508B5
S11316600003600000000206020565000000020895
S11316700105670000000407010369000000050379
S113168000056D000000040701036F000000050859
S1131690000373000000050800037800000005083B
S11316A000037D0000000508000382000000050817
S11316B0000387000000050800038C0000000508F3
S11316C000039100000005080003960000000508CF
S11316D000039B00000005080003A00000000508AB
S11316E00003A500000005080003AA000000050887
S11316F00003AF00000005080003B4000000050863
S11317000003B900000005080003BE00000005083E
S11317100003C300000005080003C8000000050919
S11317200003CD00000005080003D30000000508F5
S11317300003D800000005080003DD0000000508D0
S11317400003E200000005080003E70000000508AC
S11317500003EC00000005080003F1000000050888
S11317600003F600000005080003FB000000020A65
S1131770020200010000050A010303010000020A3D
S113178001020A010000050300030D010000060127
S1131790000C0F0100000303010210010000050505
S11317A000061201000005080003160100000505EB
S11317B000061B010000050800031F0100000505C9
S11317C000062401000004080103280100000507A5
S11317D000062C0100000508000331010000030885
S11317E0010336010000030A000339010000050863
S11317F000033D0100000308010342010000050548
S11318000006450100000505000649010000050524
S113181000064D0100000507000651010000050700
S1131820000656010000050500065B0100000505E1
S113183000065F01000004080103630100000505C0
S1131840000667010000050500066B0100000505A0
S113185000066F010000050500067301000005077E
S1131860000677010000050500067C010000030B5B
S1131870010280010000010A020285010000030B3D
S1131880010287010000050200058C010000010827
S113189003038E010000050700058F010000050900
S11318A0000294010000050500059A0100000508E6
S11318B000039E010000050B0001A30100000301C9
S11318C00103AA01000005080003AB01000004079E
S11318D00101B001000005040007B4010000050384
S11318E00006B701000005070003B9010000030169
S11318F00103BE01000004040102BF01000005064B
S11319000004C101000002020203C5010000050732
S11319100006C601000005090002CB010000020216
S11319200206D10100000203010AD20100000406EC
S11319300101D301000005040007D60100000508D9
S11319400003D9010000050A0001DE010000050AB8
S11319500001E5010000050A0001EC010000050A90
S11319600001F3010000050A0001FA010000050A64
S11319700001010200000508000308020000050A36
S113198000030D020000050A000114020000050A0C
S113199000011B020000050A000122020000050AE2
S11319A0000129020000050A000130020000050AB6
S11319B0000137020000050A00013E020000050A8A
S11319C0000145020000050A00014C020000050A5E
S11319D0000153020000050A00015A020000050A32
S11319E0000161020000050A000168020000050A06
S11319F000016F0200000508000376020000050ADA
S1131A0000017B020000050A000182020000050AB1
S1131A10000189020000050A000190020000050A85
S1131A20000297020000050900029E020000050959
S1131A300002A402000005090002AA020000050930
S1131A400002B002000005080003B6020000050908
S1131A500002BB02000005050006C10200000507E4
S1131A600006C502000005090002CA0200000509BB
S1131A700002D002000005090002D6020000050899
S1131A800003DC02000003090102E1020000030973
S1131A900102E502000003090102E9020000030853
S1131AA00103ED02000005090002F002000005092F
S1131AB00002F602000005090002FC02000005090C
S1131AC000020203000005090002080300000508E3
S1131AD000030E03000005050005130300000505BF
S1131AE0000617030000050900021B030000050996
S1131AF00002210300000509000227030000050875
S1131B0000032D030000050A00033203000003054F
S1131B10010639030000050800033B030000050526
S1131B20000640030000050A000144030000FDB65E
S1131B308057D5F50023AB4714B571007D6AA336F1
S1131B40B264A88A564DE02A492444889249502513
S1131B505D5200213E4200F6F8F008442211088448
S1131B600074675CC62E270842109F744222221F0D
S1131B70744260862E11952F8847FC21E0862E74CE
S1131B8021E8C62EF8422210847462E8C62E7463DB
S1131B9017842EF0F0F0F612484210F83E84212407
S1131BA0807442111004746F5BC20F229518FE31C9
S1131BB0F463E8C63E746108422EF46318C63EFC22
S1131BC021E8421FFC21E84210746109C62E8C638F
S1131BD0F8C631F90842109F084210C62E8CA98C11
S1131BE05251842108421F8EEB58C6318E6B38C681
S1131BF031746318C62EF463E84210746318C6AED9
S1131C0008F463E8C6317460E0862EF90842108453
S1131C108C6318C62E8C631528848C631AD7718C38
S1131C2062A22A318C63151084F84444421FEAAA44
S1131C30B084108210420840D5557022A2FC8880DE
S1131C407C6336808421E8C63E746107800842F8CC
S1131C50C62F747F0780344E44447C631785C08448
S1131C6021E8C6314064972032493884212A7251D0
S1131C70C92497F56B5A80B663188074631700F40F
S1131C80631F42007C63178420B66108007C1C1F1C
S1131C9000444E44438C6336808C54A200AD6B5593
S1131CA0008A88A8808C631785C0F8888F802925CE
S1131CB0124880FFC08924524A006D80BF23AB4A7A
S1131CC03C8064A1C84211F08B94E8808ABE4F9096
S1131CD0847453494525945CA0E09B18B45C7997BF
S1131CE000F04CA490F842E0B35AE6C0E0699621B3
S1131CF03E427C6094A52EC2007D6B5794A528F0CB
S1131D00D869960F925320200888422E4108A54690
S1131D103F8C401108A5463F8C402280452A3F8CC9
S1131D20406D88A5463F8C405008A5463F8C402214
S1131D3088A5463F8C407D29EA5297746108422E5B
S1131D402200413F087A1087C0113F087A1087C0EB
S1131D5022BF087A1087C0503F087A1087C0413EDE
S1131D6042108427C0113E42108427C02281F21001
S1131D708427C0503E42108427C06DA39ACE318C74
S1131D8040411D18C6318B80111D18C6318B80222D
S1131D9080E8C6318B806D9D18C6318B80501D182C
S1131DA0C6318B8074675CC62E412318C6318B8084
S1131DB0112318C6318B80228118C6318B805023A1
S1131DC018C6318B803263294631B400208007C69F
S1131DD03368110007C63368228007C633686D80F4
S1131DE007C633685000F8C66D228807C633687585
S1131DF06F4780746107910041000747F078110034
S1131E000747F07822800747F0785000E8FE0F88F3
S1131E100C92E0280C92E0540C92E0A064976D8040
S1131E200B66318841000746317011000746317056
S1131E302280074631706D80074631705000E8C635
S1131E402E203E020074EB9700410008C63368114F
S1131E500008C63368228008C63368500118C66D6E
S1131E60500118C62F0B80C92E7D296A528F556FD9
S1131E704580500118C5442100000000F8B5C04653
S1131E80F8BC08BC9E467047DD000000F8B5C046AB
S10F1E90F8BC08BC9E467047B50000007A
S1131E9C0014004200000000000080000300000059
S10B1EAC010000000100000028
S903129159
