:10000000D0450020B1010000AD010000AD010000AD
:1000100000000000000000000000000000000000E0
:10002000000000000000000000000000AD01000022
:100030000000000000000000AD010000AD01000064
:10004000AD010000AD010000AD010000AD010000F8
:100050003D150000AD010000AD010000AD01000044
:10006000AD010000F5190000AD010000091A000003
:10007000AD010000AD010000AD010000AD010000C8
:10008000AD010000AD0100008D1B0000AD010000BE
:10009000AD010000AD010000AD010000AD010000A8
:1000A000AD010000AD010000AD010000AD01000098
:1000B0000000000010B5064C2378002B07D1054B3B
:1000C000002B02D0044800E000BF0123237010BDC4
:1000D000E00000200000000038DF0000084B10B5F1
:1000E000002B03D00749084800E000BF0748036819
:1000F000002B00D110BD064B002BFBD09847F9E731
:1001000000000000E400002038DF000038DF0000BD
:100110000000000080219423C022D205D1507047F6
:1001200080219823C022D205D15070470221942308
:10013000C022D205D150704702219823C022D20597
:10014000D1507047F8B50020134B9847C024E40500
:1001500088239C468025E550104BA82210499950D1
:10016000C0273F069F50C726995D012081439955BE
:100170002F3EA5517E3D614665500A4999509F50DA
:10018000C1215A5C82435A549423E5503130064BC6
:100190009847A551F8BDC04615060000004400412F
:1001A000800000400200004029060000FEE7000039
:1001B000F8B52A4A2A4B9A4211D01A00294B9A4282
:1001C0000DD2294A03339B1A9B0801339B0000225E
:1001D000234822498C58845004329A42FAD1234A47
:1001E000234B9A420AD2D34321495B1803218B4304
:1001F00004339B18002102C29342FCD11D4AFF2107
:100200001D4B8B439360FD3990235B001B4AD150FB
:100210001B4AD3780325AB4302242343D370D378FE
:100220000C27BB4308263343D370164B987B3022F0
:100230009043202210439873997BB94331439973BB
:100240009A7BAA4322439A730F4A536880210B4337
:1002500053600E4B98470E4B9847FEE738DF00007F
:1002600000000020E000002004000020E00000204A
:10027000D025002000ED00E00000000000700041EB
:10028000005000410048004100400041098A000040
:10029000F511000070B5104A104B5A80C022D205EB
:1002A0008020000250600E4B0E4999620E499962FF
:1002B00050604F215C5C04252C435C5490615A5C77
:1002C0000120824302435A5418395A5C0E300240CE
:1002D0005A54064B984770BD05400000000C004082
:1002E0000044004100800240000002C0810600007E
:1002F000044A136A04210B431362034A034B5A80D6
:100300007047C0460004004014400000000C00404C
:10031000F0B5C64600B51F4B44215A5C0120844607
:10032000824301273A43D2B25A5431301A5C3539EC
:1003300088468A4303210A43D2B21A5445241A5DDF
:100340006546AA433A43D2B21A551A5C0F26324088
:1003500030252A43D2B21A5414301A5C6446A243A0
:100360003A43D2B21A543234185D4246904308439D
:10037000C0B218553832995C604681433943C9B2DE
:1003800099541A5D32402A43D2B21A5504BC9046A1
:10039000F0BDC0460044004110B582B0064B9847FE
:1003A000002300931033054A05490648064CA04730
:1003B000064B984702B010BDF1020000FC0000207F
:1003C00000080042200E0020E50B00001103000091
:1003D000044A136A10210B431362034A034B5A80E9
:1003E0007047C0460004004016400000000C00406A
:1003F00030B50E4B4822995C0125A94301242143C5
:10040000C9B299543420195C393A91430C3A1143DA
:10041000195449215A5CAA432243D2B25A541A5C55
:100420003A390A4021310A431A5430BD0044004190
:1004300010B582B0074B9847002300931033064A4B
:10044000103206490648074CA047074B984702B0B0
:1004500010BDC046D1030000FC0000200010004287
:10046000980E0020E50B0000F103000030B50E4BA4
:100470005622995C0125A94301242143C9B299540C
:100480003B20195C473A91430D3A114319545721C7
:100490005A5CAA432243D2B25A541A5C48390A40E1
:1004A00011310A431A5430BD00440041044A136A12
:1004B00020210B431362034A034B5A807047C04606
:1004C0000004004017400000000C004010B5054B30
:1004D0009847002204490548054B9847054B984723
:1004E00010BDC046AD04000000140042700E002094
:1004F000E50E00006D040000F0B5C64600B52D4BBA
:100500009847C022D2050221516191602A4B2B4F9E
:100510009F62C02424069C6241269D5D0120854384
:100520009D55082555619560254D9D629C6202365A
:100530009D5D85439D55513691518825A846515161
:10054000A6315F505C50C127BC46DF5D87436546DE
:100550005F5580279751454657511A4F5F505C5061
:10056000C727DC5D8443DC558024E4059451545155
:100570005C50154A5A5036315A5C82435A54134BD8
:100580009847134B9847134B9847134B9847134A78
:10059000116A80231B010B431362114A114B5A80CD
:1005A000114B9847020011491148124B984704BC5F
:1005B0009046F0BD45140000004400410200004098
:1005C0000800004080000040004000C0950200008C
:1005D0009903000031040000CD0400000004004035
:1005E0001B400000000C0040671B0000002C004274
:1005F0007C0E002051080000EFF31083036072B6F8
:10060000BFF35F8F7047BFF35F8F036883F310887A
:100610007047000010B5024B1860024B984710BDA0
:100620001C0100203D14000010B5044B1C68044B55
:10063000984701002000034B984710BD1C01002083
:10064000211400003F14000070B50C4B5C68A04200
:100650000ED0012200210126FF2503E02A005318B5
:100660005B080AD1A042F9D9002A06D03100F6E78A
:10067000024B1B68002B00D0984770BD2001002062
:1006800010B5054B012252425A6000221A600348FD
:10069000034B984710BDC0462001002049060000CA
:1006A0007914000010B50F4B5B68984208D0002900
:1006B00014D00C4B1B68002B09D00D2040420CE0DD
:1006C000084B1960002905D1074B984705E0054BF9
:1006D000196058600121044B984710BD0D2040421D
:1006E000FBE7C046200100201115000070B5060090
:1006F0000C00150000280DD00800431E9841C0B220
:1007000034220549054B984733682A002100300000
:10071000984770BD0020F3E74C9E00005D0F00007D
:1007200070B506000C00150000280DD00800431E0F
:100730009841C0B23D220549054B984773682A008D
:1007400021003000984770BD0020F3E74C9E000068
:100750005D0F0000F8B5CE46474680B58146036878
:100760009C46002B05D08E681C0000250127BF1A6F
:100770000DE0124B984718E0FB18A06880464344F0
:10078000B3420CD223682500002B0BD01C006368F9
:100790009342F1D8A068804643449B1AF0E7A445F1
:1007A00007D02C002000064B98470CBC9046994679
:1007B000F8BD4846014B9847F7E7C046890F00004F
:1007C000B50F0000F0B5C64600B582B00700446919
:1007D0000369013398460361037EDB0711D4037E6E
:1007E0009B070ED4002C10D0434662689B1AA26867
:1007F00093420AD314239C46844463460193124EC9
:1008000014E03B7E022213433B7602B004BC9046C8
:10081000F0BD7D69E36820009847002DF5D02C00DD
:1008200043466A689B1AAA689342EED30198B04780
:10083000237C012BEDD143466360424621000198A1
:10084000024B9847E5E7C046BD0F00005507000082
:1008500070B505000C00002811D00800431E984117
:10086000C0B23B220749084B984721002800074B9C
:10087000984700232B61064B2B60002070BD0020A1
:10088000EFE7C046649E00005D0F00003D1A0000C7
:10089000C507000010B50400431E9841C0B25322A2
:1008A0000749084B98472000074B9847002804D178
:1008B0002000064B9847002010BD11204042FBE766
:1008C000649E00005D0F00005D1B0000511B0000D6
:1008D00070B582B004000D00002824D00800431E2B
:1008E0009841C0B27A221E491E4B9847237E0122AE
:1008F0001343237626001436290030001A4B9847FC
:10090000002812D123696B60226929003000174B3F
:100910009847237E012293432376237E00209B0762
:100920000FD402B070BD0020DCE7237E0122934388
:1009300023767E320A4900200A4B98471220404213
:10094000EFE701A80A4B9847237E022293432376C0
:100950002000084B984701A8074B98470020E0E784
:10096000649E00005D0F0000650F00005507000049
:10097000F90500006D1B00000706000070B582B08D
:1009800004000D00002821D00800431E9841C0B289
:1009900095221C491C4B9847237E01221343237642
:1009A0002600143629003000184B984700280FD035
:1009B00029003000164B9847237E0122934323766B
:1009C000237E00209B070ED402B070BD0020DFE71D
:1009D000237E01229343237699320A490A4B984792
:1009E0000A204042F0E701A80A4B9847237E0222E2
:1009F000934323762000084B984701A8074B98475C
:100A00000020E1E7649E00005D0F0000650F00001C
:100A1000CB0F0000F90500006D1B00000706000069
:100A200010B5083800230363436A002B00D09847B1
:100A300010BD10B5083800230363C36A002B00D033
:100A4000984710BD10B504002C30044B9847236A1A
:100A5000083C002B01D02000984710BDA9100000D1
:100A600070B504000E00150000281DD000291DD00F
:100A70001000431E98413C22FF320F490F4B98470C
:100A80004423E25A0833E35A9A4211D1A6644C2314
:100A9000E5520022083BE252433B2363200008302A
:100AA000074B9847280070BD0020E4E70020E2E7EC
:100AB0001C204042F7E7C046809E00005D0F00000A
:100AC0006F19000070B5040001000839838F4C22B3
:100AD0008A5A9A420CD00A00896C5D1C4420155237
:100AE000C95C2000044B98472000044B984770BD18
:100AF000034B9847FBE7C046351900006F1900000B
:100B000077190000F0B5CE46474680B585B00500A0
:100B10000E001700002815D0002913D0002A2AD172
:100B2000AC22520029490020294B984703A8294BA1
:100B3000984728003430284B984703A8274B9847FC
:100B400000253CE0AC22520020490020204B984771
:100B500003A8204B98473435280001951E4B984731
:100B6000804603A81D4B984700254346002B26D0FE
:100B7000002F16D123E0AC22520014490120144B5F
:100B8000984703A8134B9847343528000195124B1A
:100B90009847804603A8114B984743460025002BF1
:100BA0000DD000240E4B9946651CADB23119019849
:100BB000C8470134444502D2A3B29F42F4D828006A
:100BC00005B00CBC90469946F0BDC046809E000022
:100BD0005D0F0000F9050000E910000007060000A5
:100BE00061100000F8B504000D0016001F00002879
:100BF00026D0002926D0002A26D01800431E98416E
:100C00003A221449144B9847200034303A003100FE
:100C1000124B9847002819D1200008302900104BAA
:100C2000984700280BD10F4B63600F4B23600F4B8D
:100C3000A3600F4BE3600F4B23610F4B6361F8BD63
:100C40000020DDE70020DBE70020D9E70D2040424F
:100C5000F5E7C046809E00005D0F00000D1000000B
:100C600029180000050B0000610A0000C50A0000F9
:100C7000450A0000210A0000330A000010B50400F4
:100C8000431E9841C0B254220549064B98472000A4
:100C90000830054B9847002363602360002010BD97
:100CA000809E00005D0F00009D18000010B504003C
:100CB000431E9841C0B261220449054B9847200069
:100CC0000830044B9847002010BDC046809E0000AD
:100CD0005D0F00000519000010B50400431E984187
:100CE000C0B26C220449054B984720000830044BE1
:100CF0009847002010BDC046809E00005D0F000098
:100D00001919000070B504000D0000280AD0080071
:100D1000431E9841C0B277220349044B98472C6088
:100D2000002070BD0020F6E7809E00005D0F0000EF
:100D300070B505000E001400431E9841C0B2832216
:100D40001649174B9847012E11D0002E04D0022EC1
:100D500018D00D20404209E0AC62621E9441E2B21C
:100D60002800083001210F4B9847002070BD6C62AD
:100D7000621E9441E2B2280008300221094B9847D4
:100D80000020F3E7EC62621E9441E2B228000830D2
:100D90000321044B98470020E8E7C046809E0000EE
:100DA0005D0F00008119000070B504000D1C431E8A
:100DB0009841C0B29F220549054B98472000083052
:100DC000291C044B9847002070BDC046809E00003F
:100DD0005D0F00006D19000010B50400431E98411E
:100DE000C0B2F8220349044B984720000830034B57
:100DF000984710BD809E00005D0F0000591900004B
:100E0000F8B5CE46474680B504000F00904600284E
:100E100026D0002926D01000431E9841F122124905
:100E2000124B98470834124D2000A8470028FBD0E9
:100E30000026104B99460E4DB95D2000C847200092
:100E4000A8470028FBD001364645F5D30A4D2000BF
:100E5000A8470028FBD030000CBC90469946F8BD4E
:100E60000020DBE70020D9E7A49E00005D0F000012
:100E7000451900002D1900004F190000F8B5CE46A5
:100E8000474680B504000F00904600281DD0002979
:100E90001DD01000431E9841862252000D490E4B72
:100EA0009847002608340D4D0D4B99462000A84761
:100EB0000028FBD02000C847B85501364645F5D379
:100EC00030000CBC90469946F8BD0020E4E70020B5
:100ED000E2E7C046A49E00005D0F00006319000019
:100EE0003D19000070B505000C00002813D0080063
:100EF000431E9841C0B234220849094B9847280044
:100F000008302100074B9847002803D1064B6B603F
:100F1000064B2B6070BD0020EDE7C046A49E00008C
:100F20005D0F0000FD1700007D0E0000010E0000A7
:100F300010B50400431E9841C0B253220449054B2A
:100F4000984720000830044B9847002010BDC04649
:100F5000A49E00005D0F0000F1180000002800D1E1
:100F600000BE70470368002B0AD08B420AD01B6872
:100F7000002B03D09942FAD1012000E000207047F5
:100F80000020FCE70120FAE770B504000D00064BD5
:100F9000984701235840C0B239220449044B98476E
:100FA00023682B60256070BD650F0000C49E0000A3
:100FB0005D0F000003680B60016070470368002B41
:100FC00001D01A68026018007047002919D0026821
:100FD00091420BD0002A16D0136899420AD0002BF8
:100FE0000DD01A68914206D01300F8E71368036029
:100FF000012003E013000A681A60012070470020F6
:10100000FCE70020FAE70020F8E7000070B50400D4
:101010000E00150000280BD0002918D00120002A4E
:1010200007D128220C4900200C4B98476B1E07E083
:10103000002028220849094B98476B1E2B4208D1F3
:1010400063600023A360E3602660002070BD002081
:10105000EFE70D204042F9E7E89E00005D0F000039
:1010600070B504000D00002815D00800431E9841FB
:10107000C0B240220A490B4B9847A368E2689A42E3
:101080000BD0626813402268D35C2B70A3680133D5
:10109000A360002070BD0020EBE70A204042F9E782
:1010A000E89E00005D0F000070B504000D00431EB7
:1010B0009841C0B251220A490A4B98476368E268D6
:1010C00013402268D554E3686168A2689A1A8A427C
:1010D00001D9591AA1600133E360002070BDC046F8
:1010E000E89E00005D0F000010B50400431E98410B
:1010F000C0B267220349044B9847E068A368C01A4E
:1011000010BDC046E89E00005D0F00000300064AC7
:101110001268002A04D0044A1068C318136070478C
:101120000249014A1160F6E728010020D04500205D
:1011300001204042704780239B014B600020704794
:101140000120704700207047034B00221A700132C3
:101150005A7000207047C0462C010020024B00222C
:101160001A705A70002070472C0100207047704799
:10117000704700000278044B1A7042785A70428817
:101180005A8082889A807047440F00200020704760
:101190000122014B9A7070472C0100208021C90563
:1011A0009C23C022D205D1507047000030B5C02426
:1011B000E4058021C9058823E150084BA8229950F5
:1011C000074898503632985C0425A8439854985C98
:1011D000033DA84398549823E15030BD004400419A
:1011E000004000C010B501000F20014B984710BD12
:1011F000A5060000F0B5DE4657464E464546E0B52A
:1012000083B05D4B98475D4B98475D4B98475D4871
:101210005D4B98475D4B01225D4901205D4CA04725
:101220005D485E4B98475E485E4B98475E48012399
:1012300083700222C27003714371837103745B4B2C
:10124000C3610824442144540833036507395423F7
:10125000C1521221FF310433C15200210233C15463
:101260000133C254524B9847002826D04A484B4B72
:10127000984750484B4B984700204F4B98470020C9
:101280004E4B98474E484F4B98474F484F4B9847C7
:101290004F48504B98475048504B9847504C22006D
:1012A000002100204F4DA84722004C32022100208F
:1012B000A8473E4C4C4E4D4D33E03748374B98478E
:1012C0004B48384B9847D7E70221384A1170374AC4
:1012D0009446634448229B5C62469370454B984613
:1012E0001978988808239B46009363460122424F51
:1012F000B8471420414B9847002399462B4A9370D6
:101300004346197898885B46009313000122B8473A
:10131000364B4A469A701B780B2B21D00133334A47
:1013200013705423E35C002B1ED0B047AB78002B26
:10133000F7D02E4B5B78002BF3D01748174B98470C
:101340002F48184B9847C8202C4B9847274B1B78A1
:10135000002BB9D0062BB7D00021144A1170B6E784
:101360004A46224B1A70DCE7002003B03CBC904692
:101370009946A246AB46F0BD3D3E0000AD110000CF
:10138000493E000091110000E51100009D11000090
:10139000C05D0000693E0000849F0000AD8B00002E
:1013A000889F0000918A0000E80E002000000020C5
:1013B000C11D0000C89F000081290000791E0000A7
:1013C00075110000491F000071110000551F000039
:1013D0006F110000611F00006D1100006D1F000003
:1013E000109F0000BD280000953000002C01002057
:1013F000B09F0000440F0020791F00002906000064
:10140000EC9F000043B2002B07DB1F2318401E3B5C
:1014100083408022520001498B50704700E100E078
:1014200010B503011B1A5B01181A02300321024B8D
:1014300098476423584310BD49880000704701391C
:10144000FDD8704710B5074A536804210B43536019
:10145000054B9847054B9847054B9847FF20054B90
:10146000984710BD00400041291600001D1A0000D9
:101470002D1A000025160000224A5378DB09FCD102
:10148000204A5378DB09FCD11E4B1B789B070AD5F9
:1014900000221C4B1A701A005378DB09FCD1194A40
:1014A0005378DB09FCD10122164B1A701A005378CD
:1014B000DB09FCD1134A5378DB09FCD1114B002224
:1014C0009A705A608021090259619A6180229205BE
:1014D000DA611A7802210A431A701A005378DB097C
:1014E000FCD1094B102280215A50BFF34F8FBFF31C
:1014F0006F8F0131FF315A501A60044B1860002081
:101500007047C0460018004000E100E030010020B4
:101510000F2802D00D2040427047002906D1064B0B
:10152000802212029A601A610020F5E780221202DE
:10153000014BDA600020EFE700180040F0B5CE461E
:10154000474680B583B0314B1A69D9680A40019289
:10155000019A1A612E4B1868431E9841C0B2D222DC
:101560002C492D4B9847019B002B49D001235B420E
:1015700099462A4B9846264F294D3AE0013AD6B271
:10158000B1420CD873185B10DAB20340DB005B5D2C
:10159000A34208D09C42F1DD0132D1B2F0E74B46C4
:1015A000013305D001E00F23994648463B68984730
:1015B000019B0122A240934301930198174B984746
:1015C000013844B2631C0AD00F2C05D00F2300222F
:1015D00001260021FF20DDE70F239946E5E70B4BAD
:1015E0001A69D9680A400192019A1A61019B002B7D
:1015F00006D00198C047013844B2631CE4D1EEE73D
:1016000003B00CBC90469946F0BDC046001800409F
:101610003001002004A000005D0F0000B58900002B
:10162000FC9F000070470000064B1A7AD2B21A7273
:101630005A7AD2B25A729A7AD2B29A72DA7AD2B20A
:10164000DA7270470004004010B58469237EDB071E
:1016500002D5A37DDB070FD4237E9B0702D5A37D94
:101660009B070ED4237E5B0715D5628B37231A4266
:101670000CD00833638310BD01232375036898479A
:10168000F9E70223237583689847F4E7218DC9B2EF
:1016900043689847EFE7237EDB09ECD0802323766D
:1016A000C3689847638B9BB26383E4E7064B984219
:1016B00003D0064B984203D07047054B1960FBE7F7
:1016C000034B5960F8E7C046000800420010004292
:1016D0003401002010B50400444BC3189B0ADBB250
:1016E000002B59D0022B55D00220032B06D0982274
:1016F00092003F4900203F4B98470020E369DB07F9
:1017000021D483001B189B003B4AD318D9691C23A2
:1017100019400322E3691A42FCD123689B070BD5C9
:1017200023680222934323600323E2691342FCD11E
:101730000223E2691342FCD101230B4323600322FD
:10174000E3691A42FCD10122E3691A42FCD101008B
:1017500083001B189B00284AD318D86920600322F5
:10176000E3691A42FCD18B005B189B00224AD31814
:101770001B6A63600722E3691A42FCD1C023DB01C4
:1017800018420BD18B005B189B001B4AD3189B8C13
:10179000A3811AE00120B1E70020AFE78A005218C8
:1017A0009300154AD218908CA389C004C00C5B0B1F
:1017B0005B030343A3812632137807221A40A389CF
:1017C0005203DB04DB0C1343A3810B4A880043184C
:1017D0009B00D31827331B78A37341188900521834
:1017E000283212783023E254002010BD00F8FFBDEB
:1017F00074A000005D0F000020A0000070B505007F
:101800000C00431E9841C0B2B8220449044B9847CB
:101810002C602000034B984770BDC04674A00000A8
:101820005D0F0000D516000070B506000C00431EC9
:101830009841C0B2C6221349134B98472000134B5E
:101840009847051E01D0280070BDB461310020000A
:101850000F4B98470F4B9C466444A40A0934E3B2EB
:101860002206F0D41F221A40012393400A4A802105
:101870005350BFF34F8FBFF36F8F0131FF31535080
:101880001360E0E774A000005D0F0000D5160000B3
:10189000AD16000000F8FFBD00E100E08369124AC8
:1018A000944663449B0A0933D9B21B060AD41F220B
:1018B0000A400123934080220C498B50BFF34F8F85
:1018C000BFF36F8F83691A6802218A431A6001315E
:1018D000DA691142FCD11A6801210A431A60DA69F7
:1018E0001142FCD17047C04600F8FFBD00E100E0A6
:1018F0000268136802210B4313600131D369194256
:10190000FCD170478269136802210B4313600131D7
:10191000D3691942FCD170478269136802218B4355
:1019200013600131D3691942FCD17047036889B251
:1019300019857047836989B2198570470368188DC6
:10194000C0B270470368187E0123184070470368CF
:10195000187E8007C00F70478369187E01231840E6
:1019600070470368187E4007C00F7047704783694F
:1019700001229A757047836902229A7570470000A8
:1019800070B504000D001600431E9841C0B28822B5
:1019900092001649164B984702232A009A430ED10B
:1019A000A369002E05D101221A75A36901321A75A7
:1019B00070BD01229A75A36901329A75F8E7012D6D
:1019C00007D0032DF4D1A369002E0BD080229A7585
:1019D000EEE7A369002E02D104221A75E8E704227B
:1019E0009A75E5E780221A75E2E7C04674A0000008
:1019F0005D0F000010B5024B1868024B984710BDF0
:101A0000340100204916000010B5024B5868024B03
:101A1000984710BD3401002049160000024A93691E
:101A200002210B439361704700080040024A93690A
:101A300002218B439361704700080040F8B507000E
:101A40000C003C4BCD18AD0AEDB2002D51D09F22B9
:101A5000520039490020394B984701267642FC60F4
:101A60008B2235490120354B9847E37BDB09FCD1BC
:101A700023889B0704D500232380E37BDB09FCD16B
:101A800001232380E37BDB09FCD1B3009B199A007F
:101A90002B4B9B185A88228018792072DB8863812F
:101AA0000C231340082B26D0002B2ED1B3009B19FA
:101AB0009B00234AD3189B8923830023638301233C
:101AC0006373204B9C4231D01235EBB22A060ED400
:101AD0001F221A40012393401B4A80215350BFF319
:101AE0004F8FBFF36F8F0131FF31535013600020D0
:101AF000F8BD0026B3E7B3009E19B600104B9E193F
:101B0000F368A3610023E361D9E7042BD7D10C4824
:101B1000B3009A1992008218127B22760022627614
:101B20009B199B00C3181B7A2375C8E7074B1F60DE
:101B3000CAE7C04600D4FFBDA8A000005D0F0000AA
:101B400094A00000002C004200E100E03C010020D5
:101B5000C268138802210B4313807047C36818883A
:101B60008007C00F704700207047000010B5C068A4
:101B7000044B9C466044800A1230C0B2024B984726
:101B800010BDC04600D4FFBD0514000010B5064BC3
:101B90001868C3689A7BD20700D410BD01229A73DB
:101BA00003689847F9E7C0463C01002010B50B00D8
:101BB000002809D111001800054B9847002800DBC8
:101BC00010BD01204042FBE701204042F8E7C0463B
:101BD000291C000010B50B000138022809D811009B
:101BE0001800054B9847002800DB10BD012040423B
:101BF000FBE701204042F8E74D1C000070B50600ED
:101C0000064D2B6898680021054CA0472B68586842
:101C10000021A047034B1E6070BDC0467C00002021
:101C2000998C00004001002010B50400054B186895
:101C3000002804D08AB22100034B984710BD002031
:101C4000FCE7C046400100202107000010B5040059
:101C5000054B1868002804D08AB22100034B98472E
:101C600010BD0020FCE7C04640010020ED0600004A
:101C700010B584B0002302930E4B0193C823DB0000
:101C8000009300230022012100200B4CA0470028D4
:101C900008D10A480A4B98470A480B4B984700203E
:101CA00004B010BD0548064B98470848064B9847B6
:101CB000F5E7C0468F020000214E0000849F00001F
:101CC000AD8B000050A10000918A000034A10000FB
:101CD00070B5304CA54401002F4A68462F4B9847F9
:101CE0006B465D8828002E4B9847040029002D4B39
:101CF0009847012830D0002808D0032816D008289B
:101D00003BD000208A239B009D4470BD88A884702E
:101D10006B461B7A8380A400234AA25813716B463A
:101D20001B780380214B1B689847EAE786AE347026
:101D30000122290020001E4B984770706B465A7A8A
:101D400012021B7A134373806B461B78B380194BC6
:101D50001B6830009847D4E784A8047001234370BF
:101D60006B465A7A12021B7A134343806B461B78E8
:101D70008380114B1B689847C3E783A804706B46A8
:101D80005A7A12021B7A134343800C4B1B68984704
:101D9000B7E7C046D8FDFFFF0A0200006F8A0000C7
:101DA000213C00005D3C00006C0F0020680F00200B
:101DB000C53C0000600F0020640F0020740F00205D
:101DC000002816D08378591E0122012901D910005C
:101DD00070478900084A8A58002A03D00B00002166
:101DE000054A99508378013B9B00034A9850002292
:101DF000EDE70222EBE7C0466C0F002010B584B07F
:101E0000144B9847002816D100230293124B0193DC
:101E1000C823DB00009300230022012100200F4C87
:101E2000A04700280ED00E480E4B98470E480F4B87
:101E3000984704B010BD0A480A4B98470C480B4B12
:101E40009847E1E70648074B98470A48074B9847E9
:101E5000EFE7C046C93000008F020000214E0000AD
:101E6000849F0000AD8B000034A10000918A000027
:101E700070A1000050A10000F0B5284CA544284DE9
:101E8000002407E02B6800221A800134E4B20435F4
:101E9000022C2CD02B68002B25D02000214B9847FA
:101EA00028684379021DC178070058370397143F0B
:101EB0000297283F01971030009020001A4FB84732
:101EC0002B6854229A5A196D2000184B984729689C
:101ED0004B798A1D10312000154FB8470028D1D00A
:101EE0002B681880D1E720000E4B9847CDE704A857
:101EF000104B984704A8104B9847104B9847104C2C
:101F00002200002100200F4DA84722004C32022160
:101F10000020A84791239B009D44F0BDBCFDFFFF1E
:101F20006C0F0020B1350000DD350000553B00008E
:101F3000893B0000693100008D350000FD1D000067
:101F4000C0A00000BD280000014B18607047C046CB
:101F5000600F0020014B18607047C046640F0020DE
:101F6000014B18607047C046680F0020014B186095
:101F70007047C046740F002010B582B004AC2488AE
:101F80000094024CA04702B010BDC046813D000045
:101F90000020704700207047C078002800D0E22061
:101FA000704700207047000010B50078002800D16D
:101FB00010BD0448044B98470448054B9847E2205D
:101FC000F6E7C046849F0000AD8B00004CA30000E4
:101FD000918A000010B50400C078002800D110BD1F
:101FE0000448054B9847A27821880448044B984739
:101FF000E220F4E7849F0000AD8B000060A30000A6
:10200000918A0000F8B504001A4B9B2292009D189B
:102010000127002603E007707C33AB421FD0180075
:102020001A00563A118822889142F5D11A78052A69
:10203000F1D0082AEFD0072A0FD892000E498A580B
:1020400097461E700D4A1278002AE5D00B4A127886
:10205000013AD2B209490A70DEE70670DCE70848A7
:10206000084B98472288E1780748084B984700209A
:10207000F8BDC046EE0F002090A10000FC1100202A
:10208000849F0000AD8B000098A30000918A00009F
:10209000F8B506000188264B002404E00134E4B2C0
:1020A0007C33052C2ED01A898A42F7D11A005E3271
:1020B0001278062AF2D1B578002D26D11D481E4B84
:1020C00098471E481E4B9847194963011A1B9200F6
:1020D0008A1810005E3008270770F0781075B27803
:1020E0001C1BA4000C19227620E0124E3000124D69
:1020F000A8471248124CA0473000A8471148A047F3
:10210000E22513E0B578002DEFD0094B6201111BD9
:10211000890059180D760B005E3307221A700548A6
:10212000054B98470848064B9847E2252800F8BD1C
:10213000900F0020849F0000AD8B0000DCA3000006
:10214000918A000000A40000C8A3000010B5174B3E
:102150001B78DBB2092B0CD91548164B984716484B
:10216000164B9847164B9847E223002816D11800C3
:1021700010BD0E4C2278D2B293009B18DB009B1846
:10218000104A9B182922010018000F4B984723780A
:1021900023780133DBB223700023E8E70448054BC2
:1021A00098470A48054B9847E223E0E7440100209E
:1021B000849F0000AD8B000028A40000918A0000DD
:1021C0005D4F0000881200206F8A000060A40000AC
:1021D000F0B5C64600B5070045883C4B00220024F8
:1021E00005E00134E4B201327C33052C4FD018896C
:1021F000A842F6D119005E3109780329F1D15301C3
:102200009E1AB600314B9B195E3305221A703D7938
:10221000002D3FD12E482F4B98472F482F4B9847E2
:1022200039782A4E63011A1B9200B2181175397958
:102230001A1B9200B21811761C1BA4002000363025
:102240008019390022311022254B984698472000EA
:1022500046308019390032311722C0471A34A0198C
:10226000B91D1C22C04705225E23F2540BE0184E14
:102270003000184DA8471848184CA0473000A84710
:102280001848A047E225280004BC9046F0BD3B79E1
:10229000002BECD063011B1B9B000C4CE4185E343C
:1022A000042323700A480B4B98470F480B4B984761
:1022B000788813210D4B9847051EE4D00448054B40
:1022C00098470B48054B9847E225DCE7900F002024
:1022D000849F0000AD8B0000B4A40000918A000030
:1022E0006F8A0000E0A4000078A400007D4F000089
:1022F00098A4000010B50088782301220121024C27
:10230000A047002010BDC0469D4F0000F0B5DE463E
:1023100057464E464546E0B585B0060004886E49EE
:102320000A00002303E001337C32052B20D0108902
:10233000A042F8D110005E3000780228F3D1664840
:102340005A01D51AAD0045195E3506222A70F932B8
:1023500013405A01D21A92008218127DD0070BD472
:102360005A01D21A92005C4B9B185E3302221A70FB
:102370003088002300241BE0F0780028F0D05901B9
:10238000C91A89001A31544BC9183088534B9847E1
:10239000002850D05248534B98475348534B9847C6
:1023A000E22048E00134E4B201337C31052C10D046
:1023B0001D000A898242F5D10A005E321278022A93
:1023C000F0D15B015D1BAD00434B5B195E33013205
:1023D0001A7001AB02221A72F2789A7001225A70B6
:1023E00003321A700022DA70A04663011B1B9B00A7
:1023F000394A9B5C022B25D001AB01229A71DA711C
:1024000001AB10225A711A7143465B0142469B1A76
:102410009B00314AD3181B7E402B18D06201121B3F
:10242000920060322C4C12193088002301A9304CE4
:10243000A047002844D105B03CBC90469946A2462E
:10244000AB46F0BD01AB03229A71DA71D8E76701A0
:102450003F1BBB009B461D0060351300AD185A465C
:10246000683292469A44234B99460F27C847384012
:102470002870C8473840A87401355545F6D15F46E5
:102480007037154BFF181B4B9A460F239946D047C0
:102490004B46184028700135BD42F8D1154B98477E
:1024A0000D4A43465901CB1A9B00D318703318804C
:1024B0004346C91A890052187A3210231370ADE7C7
:1024C00001AB00229A705A700548064B98470A489B
:1024D000064B9847E220AEE7900F0020DD68000031
:1024E000849F0000AD8B000010A50000918A0000C1
:1024F000A5650000C18B000028A50000F0B5DE46F0
:1025000057464E464546E0B587B0019000884D4B92
:102510000022002405E00134E4B201327C33052CB2
:102520000FD019898142F6D119005E31097802294C
:10253000F1D153019D1AAD00424B5B195E3303226A
:102540001A7003AB02221A72013A9A705A70002272
:102550001A70DA70A04663011B1B9B00394A9B5C12
:10256000022B26D003AB01229A71DA7103AB102241
:102570005A711A7143465B0142469B1A9B00314ACD
:10258000D3181B7E402B19D06201121B92006032BF
:102590002C4C1219019B1888002303A92A4CA04730
:1025A000002843D107B03CBC90469946A246AB46B2
:1025B000F0BD03AB03229A71DA71D7E767013F1BC5
:1025C000BB009B461D0060351300AD185A466832AB
:1025D00092469A441D4E0F27B04738402870B047A6
:1025E0003840A8740135AA45F6D15F467037154BBF
:1025F000FF18164B9A460F239946D0474B46184072
:1026000028700135BD42F8D1104B98470D4A43461A
:102610005901CB1A9B00D318703318804346C91A4E
:10262000890052187A3210231370ADE703AB0022F1
:102630009A705A700648074B98470748074B9847C7
:10264000E220AFE7900F0020A5650000C18B0000DD
:10265000849F0000AD8B000054A50000918A00000B
:10266000F0B585B00500484B1A6802929A8802AB13
:102670009A8001AC042201002000444B9847E37883
:10268000002B0CD080235B0001AA52889A4252D0C2
:1026900001AB9B78012B00D16DE0002061E03C484C
:1026A0003C4B98473C483D4B984700273C4CFEB27A
:1026B000206842685368013B5360002B13DB42687B
:1026C0001368591C11601878002811D00300303BA2
:1026D000092B28D9052EEBD92D482E4B9847314888
:1026E0002E4B98472DE041682F4B9847C0B2EBE73F
:1026F000274F3800274EB0472C48284CA0473800B9
:10270000B0472B48A047288813212A4B984703003D
:10271000E220002B25D01E481E4B984726481F4B11
:102720009847E2201DE002ABF854244B984701374C
:10273000062FD1D0BBE71648164B98472048174BB9
:102740009847002402AE1D4FA05DB8470134062C07
:10275000FAD101AB9978288802AA1A4B9847002829
:1027600001D105B0F0BD0A480A4B984716480B4BFB
:1027700098470020F5E70648064B98471348074B53
:1027800098470020EDE7C0463CA300006F8A000098
:10279000849F0000AD8B00007CA50000918A0000A2
:1027A0007C00002030A60000398C0000A4A50000A9
:1027B000B0A500007D4F000098A40000C58A00006D
:1027C000C4A50000B1670000FCA5000014A600002D
:1027D000F8B5060005882F4B0022002405E00134DF
:1027E000E4B201327C33052C19D010001989A942BA
:1027F000F5D119005E3109780129F0D9254A430144
:10280000181A800010185E300623037063011B1B2A
:102810009B00D2187032128873889A4215D01E4FCE
:1028200038001E4EB0471E481E4DA8473800B0471E
:102830001D48A84763011C1BA400164B1C192089C6
:1028400005211A4B9847E220F8BD6101091B890058
:102850007231104BC918301D0822154B98470028BB
:10286000DDD16201131B9B0060330A495B18141B06
:10287000A4000C19217D308801220E4CA0470028AD
:10288000E2D00548054B98470B48064B9847002077
:10289000DAE7C046900F0020849F0000AD8B000057
:1028A00044A60000918A00007CA600007D4F000035
:1028B000518A0000A1690000D4A6000030B5002AAA
:1028C00043D0062943D88900254B5B589F46254CA9
:1028D00005250AE0244C012507E0244C052504E0E9
:1028E000234C012501E0234C0525002813D1236842
:1028F000002B0BD0211D00230133DBB2AB4208D2E9
:102900000C000431081F00680028F5D12260012363
:1029100004E0002302E00023012801D0180030BDAC
:1029200023689A420BD0211D00230133DBB2AB4256
:1029300009D20C000431081F00688242F5D100233F
:1029400023600133EAE70023E8E70023E6E70023FA
:10295000E4E7094C0525C8E7084C0125C5E7C04652
:10296000B0A100007C0F0020780F00200012002092
:10297000301600201412002028120020841200209B
:10298000F0B5C64600B590B005006E4A002313604E
:1029900053609360D36013616B4A1360536093601C
:1029A000D3601361694A136053609360D36013610D
:1029B000674A1360674A1360674A13605360936005
:1029C000D3601361654A1360654C9B239B00984656
:1029D000A044644F40267C2200212000B8472300F9
:1029E0005E3300221A7026767C34A045F3D15E4B0C
:1029F0001A705E4C5E4B63605E4B043323600123B0
:102A00002C32A3540132A3545B4BA3605B4BE360B5
:102A10005B4B23615B4B63615B4BA3615B4BE3618E
:102A20005B4B23625B4B63625B4BA3620121012022
:102A30005A4B98475A485B4B98475B485B4B9847C3
:102A400020005B4B9847002862D15A4C220000219D
:102A50000020594EB04722004C3202210020B047DE
:102A600009215648564B9847002805D04C484D4BF5
:102A7000984754484D4B984704AB53490A0089681E
:102A8000049191890832998092799A71002D4BD0E6
:102A90004348444B98472B796A79A9792878039061
:102AA00068780290A8780190E878009047483F4CF9
:102AB000A04706AC0A232370454B638007222900F8
:102AC00007A8444B98470023E37623776377A377DF
:102AD000E3772384638480239B00A38420003E4B00
:102AE0009847002805D02E482E4B98473B482F4B3F
:102AF000984728003A4B9847002805D02848294B8A
:102B000098473848294B984710B004BC9046F0BD10
:102B1000234E3000234DA8473348244CA0473000B3
:102B2000A8473248A047FEE71800314B984704AD4C
:102B30000028ADD01A481B4B98472E481B4B98478E
:102B400004ADA5E714120020281200207C0F0020FD
:102B500084120020780F0020001200203016002080
:102B6000900F0020818A0000FC11002050120020EC
:102B7000E204000044010020594200006D420000C0
:102B80007942000099420000B5420000A5410000D2
:102B900089410000E14100004D4200006141000018
:102BA000849F0000AD8B0000F4A60000918A000015
:102BB000E14B0000B8A20000BD28000068A700009B
:102BC0005D4A000074A700003CA30000A4A7000019
:102BD000983A00006F8A0000DD4A0000DCA7000080
:102BE000494D000000A800000CA700002CA7000021
:102BF000B94A00008CA7000010B501220121064B44
:102C00009847002800D110BD0448054B9847054857
:102C1000054B9847E220F6E759680000849F0000C2
:102C2000AD8B00003CA80000918A0000F0B5DE46A4
:102C30004F464646C0B59AB00500837A9946002BA8
:102C400000D0CFE06F4E30006F4FB8472B796A79D4
:102C5000A97968780290A8780190E87800906B488C
:102C60006B4CA0473000B84729896A48A047122218
:102C700029006948694B984704950722290068484C
:102C80006430684B9847002802D02B78022B3BD049
:102C9000654E0024634B9B46E7B2059407220499D6
:102CA0003000D847002858D001347C36052CF3D1A9
:102CB0005E4B1B78052B5AD05E235B4AD35C002BFE
:102CC00065D05B4A012301271C001178002960D0E0
:102CD0000137FFB201337C32052FF5D107222900DD
:102CE0004F4864304F4B984700286AD17B01DB1B6B
:102CF0009B004D4AD31805229A740232002148489D
:102D000064304C4B984776E05022002106A8494B8E
:102D10009847494F002306AE1C001034A4B2390076
:102D20001A00531C9BB20878B05401311A00A34218
:102D3000F7D17C37502BEFD106AA290005203F4B55
:102D400098478146002856D02E482F4B98473C483C
:102D50002F4B9847E22399464DE0059B5A01D21A22
:102D60009200314B9B185E3302221A70B6E7254859
:102D7000254B98472D4B1978C9B23248244B9847B8
:102D800028891321304B9847E223994633E00024E9
:102D9000002763019846181B8000234E80191222D9
:102DA00029001E4B9847214A13780133DBB2137078
:102DB00043461C1BA40033195E331A000223137010
:102DC0008CE77B01DB1B9B00174AD3180A229A74FD
:102DD000033A002112486430164B984728891B4B50
:102DE000984708E00748084B9847A97A1848084BC5
:102DF00098470023994648461AB01CBC904699460D
:102E0000A346F0BD849F0000AD8B00005CA80000CD
:102E1000918A0000A0A800003C1200206F8A0000E8
:102E2000C4050020518A0000900F0020FC110020F2
:102E30006A100020818A0000D60F0020DD4F0000BC
:102E4000B8A80000DCA800007D4F0000F92B0000AE
:102E500018A90000F0B5C64600B50378002B0ED1C6
:102E6000374D0024461C374F102229003000B84748
:102E700000284FD00134E4B27C35052CF4D1324B1C
:102E80001B78052B13D05E23304AD35C002B1ED059
:102E90002F4A0123DDB21C001178002919D001331B
:102EA0007C32052BF6D1002004BC9046F0BD2948A9
:102EB000294B9847244B1978C9B22848284B984782
:102EC000284B18891321284B9847E220ECE700246F
:102ED00000251E4B98466601371BBF00474412224F
:102EE00020493800214B9847174A13780133DBB249
:102EF00013705E3702233B70341BA4004444083334
:102F0000A3746B015D1BAD004544AB7C0A2B11D053
:102F10000020C9E70D4863011A1B920082181100B6
:102F20005E3102250D700A219174100012220D49A4
:102F30000E4B98470B4B18890D4B98470020B3E771
:102F4000D60F0020518A0000FC110020900F0020B5
:102F50006A100020849F0000AD8B0000DCA80000F8
:102F6000918A00003C1200207D4F00006F8A000013
:102F7000F92B0000F8B50D003A2870D883003B4AC1
:102F8000D3589F4684000026394F02E00436142EA1
:102F90006BD0BB59002BF9D01B59002BF6D0280061
:102FA0009847F3E71338C4B2A4000026314F02E07B
:102FB0000436142E59D0BB59002BF9D01B59002BC5
:102FC000F6D028009847F3E71D38C4B2A4000026C5
:102FD000294F02E00436142E47D0BB59002BF9D0FC
:102FE0001B59002BF6D028009847F3E72738C0B2CA
:102FF000224B1B68002B38D08000C358002B34D0E4
:103000000800984731E02D38C0B21D4B1B68002BDB
:103010002BD08000C358002B27D00800984724E00D
:103020003638C4B2A4000026164F02E00436142E2F
:103030001BD0BB59002BF9D01B59002BF6D0280010
:103040009847F3E73838C0B20F4B1B68002B0CD001
:103050008000C358002B08D00800984705E00B4DAE
:1030600028000B4CA0472800A047F8BDCCA10000C9
:1030700014120020281200207C0F0020841200204F
:10308000780F00200012002030160020849F0000DE
:10309000AD8B000010B5142207490848084B98472B
:1030A000041E02D0E224200010BD044B187802490F
:1030B000044B9847F7E7C0462414002080120020F4
:1030C000E1430000752F0000F0B591B008AC03217A
:1030D00061700A23A3701822E270122020716271BD
:1030E000133A2270A3710927E7710AAA164B21CB64
:1030F00021C21B78137061741923A374134D290026
:103100007431022233206844114EB0476B461F7061
:10311000FF236A4653702900783108226B46981CB9
:10312000B0470A236A46152120000A4CA047002810
:1031300002D1002011B0F0BD0748084B984708485D
:10314000084B9847F5E7C04668A70000B8A2000002
:103150006F8A00009D4D0000849F0000AD8B000031
:1031600040A90000918A0000F8B5DE4657464E4659
:103170004546E0B5040000250026458206700A2376
:10318000437018238370858286751133C3750133AC
:103190009846037602239B460385E84F0522E849BB
:1031A0003800E84B99469847E762052323861423A5
:1031B000638603239A4631335246E254A563A587BA
:1031C000E5871033E6540133E6540133E654023305
:1031D000E5520233E5520233E55225640433E552E9
:1031E0000233E65424220133E25401334246E254CE
:1031F00010335A46E2520A22D349D448C847D34B27
:10320000A3666C230A22E25202331422E2520233F2
:103210005246E25465670833E5520233E5520633FD
:10322000E6540133E6540133E6540233E5520233E7
:10323000E5520233E552E5670433E5520233E654C2
:1032400025220133E25401334246E25410335A46F8
:10325000E2520F22BE49BF48C847A423BD4AE250EC
:1032600004330F22E25202330532E2520233524655
:10327000E2540433E5500433E5520233E552063399
:10328000E6540133E6540133E6540233E552023387
:10329000E5520233E5520C3BE5501033E552023360
:1032A000E65427220133E25401334246E2541033FC
:1032B0005A46E2520522A849A848C847E023A74A2F
:1032C000E25004330522E25202331422E252023366
:1032D0005246E2540433E5500433E5520233E552DA
:1032E0000633E6540133E6540133E6540233E55223
:1032F0000233E5520233E5520C3BE5501033E55200
:103300000233E65426220823FF33E25401334246B7
:10331000E25410335A46E252072291499148C84775
:103320008E235B008F4AE25004330722E2520233BD
:103330001422E25202335246E2540433E55004337D
:10334000E5520233E5520633E6543623FF33E654A2
:103350000133E6540233E5520233E5520233E552BB
:103360000C3BE5501033E5520233E6542822442347
:10337000FF33E25401334246E25410335A46E252DC
:10338000072279497948C847AC235B00774AE25065
:1033900004330722E25202331422E252023352462D
:1033A000E2540433E5500433E5520233E552063368
:1033B000E6547223FF33E6540133E6540233E552F8
:1033C0000233E5520233E5520C3BE5501033E5522F
:1033D0000233E65423228023FF33E2540133424672
:1033E000E25410335A46E252052261496148C84707
:1033F00038007D305E4908310322C847CA235B008C
:103400005C4AE2508D3BFF3BCC225200A352023279
:10341000A3529533FF335246E2540433E55004334C
:10342000E5520233E5520633E654AE23FF33E65449
:103430000133E6540233E5520233E5520233E552DA
:103440000C3BE5501033E5520233E654BC23FF3306
:103450005022E25401334246E25410335A46E252BB
:10346000CC3BFF3B8022BB545E3A81217A543A0028
:1034700081322221517033218322B9543A008332A0
:10348000517085220121B9543A00853200215170D2
:1034900039008031E8225200A15004320721A152A4
:1034A00002320721A15202325146A1540432A550E2
:1034B0000432A5520232A5520632A654EA22FF3245
:1034C000A6540132A6540232A5520232A55202324B
:1034D000A5520C3AA5501032A5520232A654F82239
:1034E000FF324146A1540132A15410325946A15233
:1034F00087370432A7500432A3521F4B0A22E252EC
:1035000002335246E2540433E5500433E5521B4B78
:10351000E5520633E6541A4BE6541A4BE65402338E
:10352000E552194BE5520233E5520C3BE5503CBCE9
:1035300090469946A246AB46F8BDC04634160020D8
:1035400070A900006F8A000084A9000048160020BE
:1035500098A900005C160020A0A9000070160020A9
:10356000A8A9000084160020B0A900009816002029
:1035700064A90000AC160020120200001E02000028
:1035800025020000260200002A02000010B582B0C9
:103590000100123109230193030014330093002327
:1035A0000022024CA04702B010BDC046D95A00000C
:1035B00010B5094CC1000B189B0000221A510B18C2
:1035C0009B00E3185A609A60DA601A615A619A6146
:1035D000DA611A6210BDC046E41A0020F0B5DE467A
:1035E00057464E464546E0B58BB0060009919446D5
:1035F0009A4604930290B94B9B4640020122C25462
:103600001B18332159700021002459801C71122588
:103610005D7106359D71996199830390B04DA846FF
:103620003500F7000197B9464D44AD004544071DEC
:10363000B946D9444F4600956F600796B146019E42
:103640004E44B700861CB146D94446464D46BD514E
:1036500019852A272A25A846984445462C702B25EB
:10366000A84698442335A94645464E462E702C253B
:10367000A846984445462F7006259D8765461D64DB
:103680004425AC469C4465462A801A0046321125E2
:103690001570996406321180023211800232147062
:1036A00059650832147002321180023214700232ED
:1036B0001180196606321180020028325A4408929D
:1036C000009DAA601A006832118002321470013223
:1036D0004B251570013217701F007C373A00022706
:1036E00017801F0086373A00032717701F0088379E
:1036F0003960043739800237398002373C7004372B
:10370000396004373C700237398002373C701C0046
:103710009E34218002342160A433198068305844DB
:10372000009BD8605346002B00D1DDE0079EF300DC
:1037300005930126D846029AD3009B460027002312
:103740009C465A44069279E05B465B189A01634CAA
:10375000A1464A441224948701339B014B4403241D
:103760009C71130058330E341C705A3217805B4D15
:103770005B465B189B01EB189F641A004C32178064
:10378000023217800232644614705F650C32147086
:10379000023217800138162400906043029A5202C8
:1037A000019081464A44AA18F42040008146914481
:1037B000E738FF388246484654460480F5204000EA
:1037C00082469244EA38FF38814650464C4604709F
:1037D000EC20FF3082469244504664460470F62046
:1037E000400082469244504608240470EE20FF3088
:1037F00082469244504629240470FD32FF321780DD
:10380000039AE932FF320198841864191C66643304
:103810004A461A80069B9946009B4B441800043088
:103820008000059B99464944890128314D192C4B4C
:10383000C5500136F6B2049BB34256D33000711C1A
:103840005B465B189A014244178514002A3465468A
:10385000257001344D2525702C322A241470214AFC
:10386000B2189200159C125901339B0144461A511B
:10387000721E4344169CA45C9C80149B9B5C012B91
:1038800000D161E7022B15D0032B00D06FE75B4618
:103890005B189A01114CA1464A440A2494870133CB
:1038A0009B014B4433249C71130058331F705A32D0
:1038B00017805CE75B465B189A01084CA1464A44B6
:1038C0000E24948701339B014B4433249C711300D5
:1038D00058331F705A32178049E7C046CC16002073
:1038E000E41A0020FFFFFF3F0126731CDBB2099A98
:1038F000022A00D191E0924D079AD400E618B20155
:10390000AA1800210020834611852A27B8461700EF
:103910002A37387001374A203870013740463870EE
:103920000136B60117987051AE1904208446B08054
:10393000022797870137B771916416004C363180A2
:103940000236318002365846307051650836307084
:1039500002363180023630700236318011666432B0
:103960001180079A2600A718BF00764AD7191A199E
:10397000920128325219FA610133DBB20093994661
:103980004C44A201AA1811852A2081469144484638
:103990005B4603702B208146914421308246484685
:1039A000534603702C23994691444B464046187069
:1039B0000134A401644B63512C190123A380634695
:1039C00093871023A371916414004C342180023436
:1039D000218002345846207051650834207002342A
:1039E00021800234207010005E3001801166643244
:1039F0001180009B9B199B0128335B193B62079A3E
:103A000050022818089B0362072383840BB03CBC38
:103A100090469946A246AB46F0BD494A9346079A5E
:103A2000D2009246D718B8015844002200250285DA
:103A30002A24A046A4468444644625702B24A44628
:103A400084440734A1466446494621702C218C46A3
:103A50008444614644460C700137BF013B495C46D3
:103A600039515F440121B9800E2181873321B97119
:103A7000826407004C373A8002373A8002373D7043
:103A8000426508373D7002373A8002373D70023791
:103A90003A80026664300280079F5744BF0029497C
:103AA0008C466744D44653449B0128335B44BB6136
:103AB000B01CC3B200939946CA44514650468B018C
:103AC0005B441A852A24A14699444C4625702B2430
:103AD000A1469944093CA2464C46514621702C21EE
:103AE00089469944494644460C70010001318901D8
:103AF000174C58460C50594408248C8012249C873B
:103B000003248C719A6419004C310A8002310A80B6
:103B100002310D705A6508310D7002310A80023190
:103B20000D7002310A801A6664331A80009B634468
:103B300098012830584478610336F3B2DBE6C0467A
:103B4000CC160020E41A0020341B0020C8160020E8
:103B50002C1B002030B54302094CE41823008033AD
:103B6000196084342280074DC3001C18A4002C194E
:103B7000E468A1611B189B00EB18DB689A8330BDD9
:103B8000CC160020E41A0020F0B583B007000C002A
:103B900015001E0001AB00221A705A700120164B4E
:103BA00098477802154BC018154B9847002802D04B
:103BB000144803B0F0BD002E11D001A92B780B7072
:103BC00023784B70FB00DB199B000F4AD3181B694D
:103BD0009B6B988A02220D4B9847041E04D17F02EA
:103BE000064BDF197888E4E709480A4B984721001B
:103BF00009480A4B9847F2E729060000CC16002036
:103C000041560000FFFF0000E41A0020895B00001D
:103C1000849F0000AD8B0000F8A90000918A00008D
:103C20000D4B1B681B88834204D20B4B1B6A1B88FD
:103C300083420FD2084B5B6A1A88FF23824205D267
:103C4000054B5B6C1A88FF23824201D21800704733
:103C5000FE3BFBE70023F9E7E41A0020C3001B1832
:103C60009B00174AD3189B681B888B4220D0C30047
:103C70001B189B00D3181B691A888A421BD05B8EC5
:103C80008B421AD0C3001B189B000D4AD3185B69E6
:103C90001A8806238A420CD0C30018188000084BEB
:103CA0001818036A1B885B1A59424B41DB0000E07D
:103CB0000023180070470223FBE70323F9E7C046FF
:103CC000E41A002010B582B001AB00241C705C70B7
:103CD00002346B465C80002A28D0C3001B189B006E
:103CE000144CE3181B695C8E8C4212D0012A1FD938
:103CF000C3001B189B000F4CE3185B695C8E8C4261
:103D000007D0022A10D9C30018188000094B1818D0
:103D1000836901AC9B6B988A6B469A1C2100064B09
:103D20009847207802B010BDFF20FBE7FF20F9E79D
:103D3000FF20F7E7E41A0020955B000030B583B060
:103D4000150001AC0023237063706B469A1C02239C
:103D50001380CB0059188900074B59180B699B6BCE
:103D6000988A2100054B98472078401B431E9841B4
:103D70004042C0B203B030BDE41A0020955B0000A1
:103D8000F0B583B004000E00019308AB1D88144BFE
:103D900098470700FF2814D0F3009B191B18043321
:103DA0009B00104A9B5818882A0001990E4B98478F
:103DB000051E08D00D480E4B984729000D480E4BA4
:103DC000984703B0F0BDF3009E19F7190437BF0000
:103DD000044BFB5819882000084B9847F1E7C04670
:103DE0003D3D0000E41A00200D5B0000849F0000B0
:103DF000AD8B000054AA0000918A0000C55C000051
:103E000010B5034B1B68002B00D0984710BDC0466F
:103E10003006002010B5034B5B68002B00D098479C
:103E200010BDC0463006002010B5034B9B68002B28
:103E300000D0984710BDC0463006002010B5014B99
:103E4000984710BDF904000010B5044C2000044B45
:103E500098472000034B984710BDC046700E0020C5
:103E6000310F0000FD1B000010B5032808D8012801
:103E700019D0002805D0022827D01D481D4B98478F
:103E800010BD1D48007C0028F7D11B4C23601B4B44
:103E900099601B49D9601A7419001548194B984745
:103EA00001232374E9E71448407C0028E5D1124C33
:103EB0006360154B99601549D9601A7419000C4854
:103EC000104B984701236374D7E70B48807C002888
:103ED000D3D1094CA3600E4B99600E49D9601A7476
:103EE00019000348074B98470123A374C5E7C04650
:103EF0007C0E00209508000030060020401B0020AA
:103F0000013E0000D1080000301C0020153E0000DA
:103F10001C1C0020293E000010B5032805D80128EC
:103F200010D0002802D0022818D010BD114B1B7CE5
:103F3000002BFAD010491148114B984700220D4B25
:103F40001A74F2E70B4B5B7C002BEED00D490B484B
:103F50000B4B98470022074B5A74E6E7054B9B7CB6
:103F6000002BE2D008490548054B98470022014B39
:103F70009A74DAE730060020401B00207C0E0020F7
:103F80007D090000301C00201C1C0020014B186023
:103F90007047C046381B002010B5431C08D0054BA5
:103FA0001B6841000918090101220020024CA047AA
:103FB00010BDC046381B0020693E000010B500202F
:103FC000014B984710BDC046193F000000B5C1B075
:103FD0003430084B984782B2002A01D141B000BD6D
:103FE000054B1868436801A9984781B201A8034BA3
:103FF0009847F3E7E91000004C1C0020F541000051
:1040000070B50B4C0B4A002120000B4DA8470B4A02
:1040100001212000A8470A4920000A4B98472000A8
:10402000094B98470022094B1A70002070BDC0460A
:10403000980E0020CD3F0000310D0000F940000037
:104040004C1C0020050D0000AD0C0000481C002099
:1040500070B5104C2000104B984720000F4B98472C
:104060000F4C032120000F4B98470F4A00212000DE
:104070000E4DA8470E4A01212000A8470D492000F7
:104080000D4B984720000D4B98470D4B01221A709D
:1040900070BDC046980E0020D90C00007D0C0000B9
:1040A000200E0020A90D0000CD3F0000310D0000C2
:1040B000F94000004C1C0020050D0000AD0C000074
:1040C000481C002010B5084B1B78012B05D0074871
:1040D000074B98474342584110BD0648044B984748
:1040E00043425841F8E7C046481C0020980E002083
:1040F000D90D0000200E002010B5044CA047002868
:10410000FCD10022024B1A7010BDC046C540000011
:10411000501C002070B506000D000D4CA047002873
:10412000FCD1002D05D10B4A1378002BFCD10020C7
:1041300070BD0122074B1A70074B18682A00310026
:10414000064B9847024CA0470028FCD1EBE7C0463D
:10415000C5400000501C00204C1C0020ED06000053
:1041600010B5064B1870CF23012801D0180010BDE0
:10417000034B9847034B98470023F7E7440600207A
:10418000450100000140000010B5044B1B78012BD5
:1041900000D010BD89B2024B9847FAE744060020D0
:1041A0001541000010B5002807D1012902D0084BA5
:1041B000984710BD074B9847FBE70128F9D1012923
:1041C00002D0054B9847F4E7044B9847F1E7C04607
:1041D0002D0100003901000015010000210100003F
:1041E000034B1B78012B00D07047014B5860FBE755
:1041F0004406002070B50A4B1B78012B00D070BD1F
:104200000029FCD0040001398DB201354519044E56
:104210002078736898470134AC42F9D1EFE7C04683
:104220004406002072B6BFF35F8F0022014B1A7064
:104230007047C046580000200122034B1A70BFF39C
:104240005F8F62B67047C0465800002010B5014B22
:10425000984710BD5140000010B5024B98470248E6
:10426000043010BD8D3F00005800002010B5014BF8
:10427000984710BDBD3F000010B50C00034B984798
:104280002000034B9847034B984710BD2542000080
:10429000993F00003942000010B5034B9847034B8B
:1042A0009847034B984710BD25420000BD3F0000D2
:1042B0003942000010B580B2014B984710BDC0468E
:1042C0002906000070B50C4D2C68002C13D0266810
:1042D000E2602E600025094A238113682560A080D2
:1042E000E180AB4201D1146005E01A68002A01D0D8
:1042F000131CFAE71C6070BDF4060020EC060020D9
:104300000A4B0022191C10B51868094B9C18D05094
:104310001032201CA02AF8D190330B60054BA13A33
:104320005A801A8000229A60DA6010BDF4060020DC
:104330004C060020541C002038B5204C051C081CDD
:104340002188231CA9420ED1A18881420BD10123CF
:104350005B422380A2601A4B628801219A422BD1D2
:10436000184B98471CE05988A9420CD19988814282
:1043700009D10121494259809968002901D19A60E7
:10438000EEE7DA60ECE7104B9D420FD00F4B9D42F9
:1043900008D00F4B00219D420ED1101C0D4B9847A9
:1043A000012109E0111C0C4B002202E0111C00222B
:1043B0000A4B984741424141081C38BD541C00201B
:1043C000FFFF000009640000130E0000150E00003E
:1043D000010E00004D6F00001D710000F57100001E
:1043E0000023F0B50D1C85B0029003920370B84B0A
:1043F0000398984700230193B64C2368002B04D1FF
:10440000B54B98470190D028F6D1B44B9847019B03
:10441000D02B00D18BE223681A68D9682260DA8831
:104420000092AF4A9C88106813601860019B002BB3
:1044300000D07CE2AB4B9C4208D1009BA34200D051
:1044400065E23823029A1370296070E2009BBB2B4F
:1044500025D1BB2C23D16B469B88AB808B784A78C7
:104460001B02CC78087913434A799F49AC702B80A2
:104470008B4206D89D4A93420BD29D4A934208D064
:1044800009E09C498B4206D113020343AB803723DA
:1044900002E0362300E00023029A137047E2964BB5
:1044A0009C4200D1A2E100D983E0944B9C4200D110
:1044B000FDE13CD8924B9C4200D1FCE116D8914BD7
:1044C0009C4200D1D5E104D83826B44200D12CE278
:1044D0001DE28D4B9C4200D1D1E1FE33FF339C4263
:1044E00000D014E200982A1C884B94E1884B9C422F
:1044F00000D1D0E10DD8874B9C4200D1C5E1864B5D
:104500009C4200D003E200982A1C844B9847142652
:104510000BE2834B9C4200D1C3E1824B9C4200D012
:10452000F5E100982A1C804B98471826FDE17F4B47
:104530009C4200D1CCE11ED87D4B9C4200D1CEE103
:104540000DD87C4B9C4200D0E1E100982A1C7A4BAC
:104550009847A988061C794B28889847E5E1784B4D
:104560009C4200D1ADE1774B9C4200D0CFE1009856
:104570002A1C754B4FE1754B9C4200D12AE109D8AA
:10458000083B9C4200D19EE0714B39269C4200D1F1
:10459000CBE1BCE1D1231B019C4200D120E16D4B5A
:1045A0009C4200D0B3E1081C6B4B291C98470F2696
:1045B000BBE16A4B9C4200D135E13DD8684B9C423F
:1045C00000D152E119D8674B9C4200D11AE107D8BB
:1045D000033B9C4200D09AE100982A1C624B1AE1EE
:1045E000624B9C4200D107E1614B9C4200D08EE1BE
:1045F00000982A1C5F4B98476FE15F4B9C4200D1AB
:1046000006E10BD85D4B9C4200D12AE15C4B9C42F9
:1046100000D07CE100982A1C5A4BFCE05A4B9C428B
:1046200000D1FAE0594B9C4200D070E100982A1C5E
:10463000574B98470E2678E1564B9C4200D104E137
:1046400020D8554B9C4200D105E10DD8534B9C42DC
:1046500000D1EEE0524B9C4200D058E100982A1C59
:10466000504B9847122660E14F4B9C4200D1E6E048
:104670004E4B9C4200D04AE1081C4D4B291C9847E8
:104680002A2652E14B4B9C4200D134E10DD84A4BD3
:104690009C4200D129E1494B9C4200D037E100986F
:1046A0002A1C474B984730263FE1464B9C4200D19D
:1046B00027E1454B9C4200D029E100982A1C434B3E
:1046C0009847322631E1081C414B291C91E0C04635
:1046D00099630000EC06002015640000BD63000033
:1046E000F4060020FFFF00001E2000001D20000037
:1046F000030C00001F2000001C0D00000C0C00002B
:10470000020C0000020A0000030A00001D820000E3
:10471000060C0000040C0000050C000009810000DC
:10472000070C0000090C0000FD820000170C0000BF
:10473000120C00000D0C0000C981000085800000F3
:10474000130C0000150C0000955C0000080D000023
:10475000010D0000150D0000697E00001B0E000019
:104760000F0E0000030E0000216D0000060E000079
:104770000A0E0000FD750000150E0000110E00006D
:10478000130E0000F5710000170E0000190E000056
:1047900041750000270E0000210E00001C0E0000D5
:1047A0001D0E00001D770000220E0000250E0000E7
:1047B000A3770000051B0000011B0000031B000085
:1047C0000B860000061B0000081B0000238600006B
:1047D000D17A0000081C5B4B291C98470426A4E0F2
:1047E000081C594B291C984701269EE0081C291CCF
:1047F000564B9847061C98E000982A1C544B984743
:10480000112692E0081C534B291C984706268CE081
:104810002A1C0098504B9847ECE700982A1C4F4BF5
:1048200098470D2681E000982A1C4D4B98470B268F
:104830007BE000982A1C4B4B9847102675E0081C1B
:10484000494B291C984728266FE0081C474B291C18
:104850009847292669E0081C454B291C98472726BC
:1048600063E000982A1C434BD5E700982A1C424B72
:10487000D1E7081C414B291C98472B2655E0081C02
:104880003F4B291C98472C264FE000982A1C3D4B93
:104890009847132649E000982A1C3B4B9847152659
:1048A00043E000982A1C394B984716263DE00098B3
:1048B0002A1C374BAFE700982A1C364B9847232613
:1048C00033E0009B081C1F0A2F80291C324B90E705
:1048D000081C009A291C314B98473A2625E000987D
:1048E0002A1C2F4B984720261FE000982A1C2D4B8E
:1048F0009847332619E000982A1C2B4B98473426FA
:1049000013E000982A1C294B984735260DE0C52254
:10491000274E28495200284B37682848B847336843
:1049200027480099221C98470026029B1E70029B74
:104930001B783A2B03D1019B002B00D157E501983E
:1049400005B0F0BDB57A0000717D00008D7E0000DD
:10495000A1760000757000001D7100009D740000BC
:10496000557600006B760000357700006377000015
:1049700079770000A1750000CB750000A1640000EC
:10498000CD640000CD8000005181000095810000C1
:10499000C9810000ED820000295C0000595C000024
:1049A0003D8300000186000011860000178600008C
:1049B00078000020D6AA0000A8AA0000B9AA00002A
:1049C000FDAA0000F7B50E4900240B680F1C1E1C41
:1049D0000C4A15680192002B0ED09A881968824201
:1049E00007D1002C01D0216000E00E1C1D601D1CB1
:1049F000231C1C1C0B1CEEE7019B3E601D60F7BDD9
:104A0000EC060020F4060020F7B5124A0090136867
:104A100011481F1C0021844604680192002B14D009
:104A2000D888009A1D68060A96420BD1FD260640DA
:104A30000C2E07D1002901D00D6000E02F1C1C6056
:104A40001C1C0B1C191C2B1CE8E7019B1F606346F8
:104A50001C60F7BDEC060020F406002038B50028E5
:104A600002D04B1E1F2B0BD90D4C0E49F7220E4BBB
:104A70000E482568A84723680D489847CF200DE0C9
:104A80000C4A131CAA33198000231C1CC55CAC34CF
:104A900001331555DCB28C42F7D3002038BDC04637
:104AA0007800002070AB0000C1AD0000B9AA000082
:104AB000BFAB0000F41C002010B5041CCF20002C5C
:104AC00006D0044BCE38211C9847034B1B7923702A
:104AD00010BDC04679790000F41C0020F0B50679BD
:104AE00089B0041C032E0CD9A722334D3349520040
:104AF000334B2E683348B04721792B6832489847AA
:104B000020E003780F2B0DD954222B4D2B49FF3277
:104B10002B4B2E682B48B0472B6821782B489847A1
:104B2000E02546E08023878C9B009F420CD95A22C7
:104B3000214C234B23482149FF322568A84723688D
:104B400023489847CF2534E0C57F837FAD015B01C3
:104B50001D43C37E1D43437F1B011D43037F9B00F9
:104B60001D431C4BEDB21E710079032809D803F0D8
:104B700061FE02040606002302E0012300E0022396
:104B80002371231C0B3361880793237920780093CA
:104B90000195258C621D0295658C079B03950497F2
:104BA0000D4DA8472671051C211C0A4826220B4BD7
:104BB0009847281C09B0F0BD7800002070AB0000B9
:104BC00032AB0000B9AA0000D2AB0000F0AB00008D
:104BD0000DAC0000F41C0020557800006F8A000026
:104BE0007FB5041C46490B22464B01A89847201C60
:104BF000454B9847051C041E09D0444C444B45487E
:104C000045492D222668B0472368444872E0444B4A
:104C10009847231C051E09D03C4C3D4B3D483E495E
:104C200033222668B04723683E4863E001213E4AAC
:104C300049429A1812335181902BF7D13B4C813B5A
:104C400023703B4B3B4A6380002323710133581E82
:104C500019010143023311700132212BF7D1802257
:104C60009200A284221C002373321370221C723221
:104C70001370221C76321370221CCC321380211C3C
:104C8000A022D03152000A80211CCE310A80221C81
:104C9000D2321380FA21221C4900D4321180221C06
:104CA000D632E37623776377A377E377238463842D
:104CB0001370201C204B9847051E09D0134C144B31
:104CC000144815495D222668B04723681B4811E047
:104CD00007237434237001A80B21194B9847051E34
:104CE0000AD00A4C0A4B0B480B4966222668B0478B
:104CF00023681448291C9847281C04B070BDC0467E
:104D000027AB00006F8A0000456200007800002099
:104D1000D8AD0000B9AA000070AB000037AC0000AD
:104D2000C577000053AC0000641C0020F41C002078
:104D3000983A0000FF1C0020DD4A00006CAC000027
:104D40005D4A00008FAC000038B5451C031CCF2025
:104D5000002D18D01A78032A15D8012A02D15A78C2
:104D6000002A10D01C1C291C0622074B0748984714
:104D7000237807480371074B98472378002B02D10B
:104D8000281C054B984738BD6F8A0000F91C00208D
:104D9000F41C0020DD4A0000796B0000F8B5844661
:104DA0000F1C161C1C1C002802D1E220002A2BD04C
:104DB000CF201F2F28D81F2C26D86346002B0ED0BB
:104DC0001248134D002F04D1391C1F22114B984754
:104DD00003E061463A1C104B984772352F70301E25
:104DE00012D00B4D0D48002C07D1211C1F22094B5E
:104DF000733598472C70201C06E0311C221C064B92
:104E00009847002073352C70F8BDC046281D00203F
:104E1000F41C0020818A00006F8A0000471D0020DA
:104E2000F0B591B01F1C16AB1D8817AB1B880D91F8
:104E30000E9318AB1B78041C0F93424B161C733354
:104E40001B78CF200C93012C03D10E9B002B76D125
:104E500024E0042C73D88023DB019D426FD8002C02
:104E600002D11F2D6BD903E09F2D01D8012C66D1F3
:104E7000002F09D00D9BCF20013B012B5FD9012CC6
:104E800002D1002D00D120352F4B9847011C002E58
:104E900043D03378601E002B09D13BE08023DB0137
:104EA0009D424CD8002E4AD0002FE3D12BE00123A5
:104EB00003283AD90D20721C02E00E20321EFAD1CE
:104EC000204C743426780724002E00D0341C009225
:104ED0000D9A039404921B4A01950295059772322C
:104EE00012780E9C0692194A07920C9A0892184A58
:104EF00009926422624392B20A920F9A154C0B9265
:104F0000154AA0471BE0002DBED10F4B9847202526
:104F1000011CBEE70328CDD806E0601E032803D994
:104F2000331C0D20321CCBE7002303F079FCC606AE
:104F300004020F20C2E700220C920C20BEE711B041
:104F4000F0BDC046F41C0020597D0000281D002043
:104F5000471D0020457C0000983A000010B5054B25
:104F60009847041E03D1D120034B00019847201C11
:104F700010BDC046517A0000C549000038B5041C78
:104F8000044B081C211C9847051C034B201C984708
:104F9000281C38BD2D700000094A000070B5094C6E
:104FA000A047041E0BD0D022074D0849084B0948E2
:104FB00092002E68B0472B680748211C9847201C98
:104FC00070BDC046517500007800002070AB000035
:104FD00048AB0000B9AA0000AEAB000010B5CF236B
:104FE00000280AD0002908D0002A06D00C78022C0C
:104FF00003D1034B013198470023181C10BDC04654
:10500000F97D0000CF23022801D8024B1B5C181C3D
:105010007047C046E4AD0000831EDBB203200E2BB8
:1050200001D8014AD05C704761AB000070B5051C27
:1050300000240C4B19680C4B1E688C4210DC0C20B1
:105040006318DA0FD318021C5B105A43B018028899
:10505000AA4201D2591EF0E7AA4202D95C1CECE731
:10506000002070BD0C0700200407002010B50324A9
:105070008306044040069B0FC00F002C01D0A1B254
:1050800002E04C1EA14189B2002B01D09B0002E03E
:10509000002A01D004231943002801D1802000E018
:1050A00090208001084310BD70B503258C060D408B
:1050B0004906A40FC90F0023860700D5ABB2060727
:1050C00004D5A60033438026B6013343860601D5B6
:1050D0002E013343C60601D5AD012B4380256D005B
:1050E000284200D02B43C50702D58025AD002B43B5
:1050F000002902D08021C9000B43410704D5A1003B
:105100000B43802109010B43410602D507490B439C
:105110009BB2010605D5A40023439CB284239B01C6
:1051200023439003034398B270BDC04604100000AF
:1051300007B56A460B7813704B7853704B889370A1
:105140001B0AD3700B791371CB88072153711B0A8B
:105150009371014B98470EBDED840000F7B5254CC7
:105160001D1C23680190D326002B40D01E1C0C3E32
:105170002660002905D0204FBC4660463F68BF1816
:1051800007601D4807688446BE422AD96846808861
:105190000C3B18802368002909D0002A07D06046FC
:1051A00000689A80801A9860144B984702E00021AA
:1051B0009A8099600023226893702B0704D50121FF
:1051C000226893780B439370ED0904D00221226882
:1051D00093780B4393700A4A0026136801331360D7
:1051E00005E023601126002901D0BA1A0260301CA4
:1051F000FEBDC04604070020080700206F8A00009B
:105200000C070020F8B5051C0E1C141C1F1C002ADE
:1052100015D00A07104BD20FD2039C4604D0211C94
:105220003A1C331CE04715E0111C331CE0470028F2
:1052300010D1281C391C221C084B98470AE0084C46
:105240000849FB22084B09482568A84723680848F5
:105250009847CF20F8BDC0465D510000ED840000A6
:1052600078000020FFAD0000E7AD0000B9AA000003
:1052700035AC000037B5094B051C081C0C1C9847C1
:10528000002809D08268002A06D08388291C009251
:10529000201C0022024CA0473EBDC0462D500000FD
:1052A000FD7E0000F0B58BB0049310AB0024029299
:1052B00004CB1022051C1B880691059312AB1B78AA
:1052C000211C0393BB4B1E68BB4BB71D72803480FF
:1052D000381C9847B94B28789847B94B021C691C71
:1052E000381C984704222B7874711B011343039ACE
:1052F000029C9201134333711623049A12345343D0
:10530000029A1233D718BC420FD0AE4B21880093BB
:105310000E2306AA9B180193AB4D301C01220223D9
:10532000A8471634051EEED040E1109F0023143725
:105330003C1C0293029B059A934200DBB0E0A34B16
:1053400006AA00930E239B1801939F4D301C042145
:1053500001220223A847051E00D027E1231C123B8F
:105360001B78257B1A1C291C03932088984B98478F
:105370002D076389ED0FED031D4307908F4B0398B5
:105380009847221C113A0092033A031C0192291CEF
:10539000301C8D4D079AA847051E00D006E1C0229B
:1053A00023885200134204D1A38A0393002B15D102
:1053B00032E01906C90FDB0501D502231943854BDD
:1053C00006AA00930E239B1801937F4D0902301CFF
:1053D00001220223A847051EE6D0E7E080232288A9
:1053E000257F5B001A40281C0121002A00D00A1CDE
:1053F000794B9847794B2D070093231CED0FED0354
:105400002843203382B201936F4D301C039902234D
:10541000A847051E00D0C9E0012123880B4211D006
:10542000A07F6D4B002298476D4B021C0093231CFC
:1054300024330193644D301C6A490223A847051E9A
:1054400000D0B3E0302322881A4212D00121607FBD
:105450000A1C614B9847644B021C0093231C2233A7
:105460000193594D301C5F490223A847051E00D007
:105470009CE0A369002B0ED05C4B06AA00930E2380
:105480009B180193504D301C072101220223A8478D
:10549000051E00D08AE0029B3C340133029349E7A9
:1054A000301C534B9847051E00D07FE03388069A86
:1054B00013803688049B059AF618B3B202933C23F6
:1054C0005343109A1433D3180493049B9F426DD016
:1054D000029B9C1C3B1CA4B2143B1C8003933B8985
:1054E000002B08D1C0233A885B001A421FD0029ECD
:1054F0000336B4B21BE03B7B7A891907C90FC90395
:1055000007D07968002900D13A49201C3A4EB047AB
:105510000AE0201C384EB047002846D1039B398949
:1055200018887A68354B98470028DBD03DE0BB8A65
:10553000002B0AD00134A4B23C84397FFB8A201CA2
:105540003A692F4EB04700282FD13B88DB070DD595
:1055500000220134A4B209A9BC84BB7F201C0A70BC
:105560004A70254E0232B04700281ED130233A88B7
:105570001A420DD000220134A4B209A97C847B7F99
:10558000201C0A704A701C4E0232B04700280CD111
:10559000B969002906D00134A4B2201C194B9847E0
:1055A000002802D13C3702948FE7051C281C0BB061
:1055B000F0BDC04610070020818A000005500000A1
:1055C0006F8A000068000020558400006A000020F7
:1055D000A9500000740000206D50000072000020EF
:1055E00070000020028000006C0000206E0000208F
:1055F0004D830000000700205D510000ED84000095
:105600000552000031510000084B094A18604B0850
:105610001360084AC3181360074A41181360032334
:1056200003319943054B0439196070471007002076
:10563000F8060020FC0600200807002004070020D0
:10564000F0B5CF2589B0002800D137E21022002420
:10565000C84B211C1B6802909D1D5A801F1C1C807A
:10566000281CC54B9847029B1879C44B9847029B4E
:10567000021C591D281CC24B9847029B1B791A011A
:10568000029B1B787C719B011343042213433B71E3
:10569000029B9B69A34219D100230493029B1B6ABE
:1056A000002B67D180E0029A63009269B54D995A48
:1056B000B54B04AA00930E239B180193381C0122BA
:1056C0000223A847051E00D0F8E10134029B9B8B02
:1056D0009C42E8DBE0E7A578A67F2A1C311CA08A63
:1056E000AA4B984736070590A38BF60FF6031E4387
:1056F000281CA24B9847E21C031C00920194381C02
:10570000311C059A9F4DA84700284DD1029B039A52
:105710001B6A9B189A8AC0235B001A424BD1029BDA
:10572000039A1B6A9B189B8C002B5AD10121029B68
:10573000039A1B6A9B189B8A0B4275D1029B039AA2
:105740001B6A9B189A8A30231A4200D081E0029A81
:10575000039B126A94466344DB6A002B00D08EE000
:1057600000230393A38F039A9A4200D297E0049BED
:1057700001330493029B049A9B8C9A4214DA049B93
:10578000381C9B010393029B039A1B6A04219C18FB
:105790007F4B04AA00930E239B180193012202233E
:1057A000784DA847002896D0381C7A4B9847051E9C
:1057B00000D083E19DE0A38A1906C90FDB0501D55E
:1057C00002231943744B04AA00930E239B180193E0
:1057D0006C4D0902381C01220223A847051E9ED0E9
:1057E0006CE18023A28A5B001A40231C28331878BE
:1057F0000121002A00D00A1C684B9847231C28333B
:105800001A78674BA18C0093231C1207D20FD20386
:105810001043263382B201935A4D381C0223A84705
:10582000051E00D182E749E1231C34331878002299
:105830005A4B98475B4B021C0093231C3633019351
:10584000504D381C58490223A847051E00D175E762
:1058500034E1231C0121303318780A1C4F4B984740
:10586000524B021C0093231C32330193454D381CCC
:105870004D490223A847051E00D168E71EE14C4BA5
:1058800004AA00930E239B1801933E4D381C072158
:1058900001220223A847051E00D161E70EE116256B
:1058A0000021039B0A1C5D43A36B5D19AE783B4B43
:1058B000301C9847EB78021C012B03D0022B05D13A
:1058C0003C4B01E08023DB011A4392B23607298862
:1058D000F60F2B1DF6031435009301953143294D26
:1058E000381C1123A847051E00D0E7E0039B0133B5
:1058F00037E73B88029A5380029B3A889B8BD318E8
:105900009BB20393029B1B6A002B00D1D6E004904C
:10591000029B049A9B8C9A4200DBCFE0049B9B0184
:105920000593029B059A1B6A9E18039B9C1CB38BD4
:10593000A4B234809C46002B0DD1029A059B126ABA
:10594000944663449A8AC0235B001A4247D0039B63
:1059500003339CB243E0B37F1A07D20FD2032FD098
:10596000B169002900D11449201C6246134FB84781
:1059700032E0C04610070020818A00000550000078
:105980006F8A00005584000068000020A9500000C4
:105990006A0000204D830000740000206D5000005C
:1059A0007200002070000020028000006C000020C7
:1059B0006E0000200080FFFF000700205D51000006
:1059C000201C111C3F4FB847002800D075E03088DC
:1059D000B18BB2693C4B98470028AED06DE0B38CD8
:1059E000002B0BD0321C0134A4B22832F48411787D
:1059F000201C326A354FB84700285ED1B38ADB07D6
:105A00000FD5331C00220134A4B2F48607A9343325
:105A10001B78201C0A704A702A4F0232B8470028AF
:105A20004BD13023B28A1A420FD0331C00220134EA
:105A3000A4B2748607A930331B78201C0A704A7000
:105A4000204F0232B847002837D1F16A002906D02A
:105A50000134A4B2201C1E4B984700282DD1B38FCF
:105A6000002B25D0002303936B469A89B18F0398AE
:105A700013199BB288421AD21621039B5943631C07
:105A8000D218B36B5B189A82B36B59188B78888ADB
:105A90001A07D20FD20302D00A880E4900E0111C67
:105AA000084FB847002808D1039B0133DBE71C1CD3
:105AB000049B0394013304932AE7051C281C09B0B6
:105AC000F0BDC0465D510000ED84000005520000AD
:105AD00031510000000700207FB508AC40CC051C08
