:08000000640000200102000071
:1002000080B500AF084A536880210B4353608023B8
:100210009B011A6882F30888044A9360044B1B68A8
:100220009847BD4680BDC0460040004100ED00E05B
:0402300004200000A6
:10200000483100201537000011370000113700005B
:1020100000000000000000000000000000000000C0
:102020000000000000000000000000001137000068
:102030000000000000000000113700001137000010
:102040001137000011370000113700001137000070
:102050001137000011370000492800003531000019
:102060001137000011370000113700001137000050
:10207000113700000000000000000000892C000063
:102080001137000011370000113700001137000030
:1020900011370000000000000000000011370000B0
:1020A0001137000011370000113700001137000010
:1020B0000000000010B5064C2378002B07D1054B1B
:1020C000002B02D0044800E000BF0123237010BDA4
:1020D000E0000020000000007C3A0000084B10B532
:1020E000002B03D00749084800E000BF07480368F9
:1020F000002B00D110BD064B002BFBD09847F9E711
:1021000000000000E40000207C3A00007C3A00005F
:10211000000000000F231840000230331940014333
:102120008020C0010143044A53785BB2002BFBDBE3
:10213000014B59807047C046000C0040254A536847
:102140001E218B431C390B435360234A53785BB2E7
:10215000002BFBDB0122204B1A701A0053785BB274
:10216000002BFBDB1C4901220B781342FCD11B49DD
:102170000B6A402293431A4A13409B009B0880221B
:10218000120613430B621022CB681A42FCD013498B
:1021900000238B84134B1A68134B1B689B05920E0C
:1021A00092029B0D13438B621022CB681A42FCD023
:1021B0000A4B02229A841900CE32CB681A42FCD113
:1021C000054A53785BB2002BFBDB034B074A5A608E
:1021D0007047C04600400041000C0040000800402D
:1021E000FFFCFFFF246080002860800000070900DA
:1021F00010B5014B984710BDFD27000010B5010038
:10220000882292000148024B984710BD28140042D2
:10221000B127000010B50388032B02D0042B1CD07B
:1022200010BD17480380213343800023838001338E
:10223000C380144B9B698360134B1B68C360134BB3
:102240001B680361124B1B684361124B1B6883615F
:1022500088218900104B9847E2E78388022B0BD036
:10226000032B04D0012BDBD10C4B9847D8E78821F6
:102270008900094B9847D3E7094B9847D0E7C046F8
:1022800040030020002000410CA0800040A08000FE
:1022900044A0800048A08000FD2100003D380000DF
:1022A000952D000010B52E4B1B68002B08D02D4B30
:1022B0001B68002B2CD000232A4A1360284A136085
:1022C000294B1B68002B04D00023284A1360264AA0
:1022D0001360274B1B68002B08D0264B1B68002B74
:1022E0001AD00023234A1360214A1360224B9847D7
:1022F00088239B00181A80B2204B1B889BB2002BAE
:1023000010D01E4B1B889BB2012B09D0194A0AE042
:102310001B481C4B9847CEE71B481C4B9847E0E7EF
:10232000124A00E00F4A154B5B880433984211D3E0
:102330001368002B0ED101331360104B1B889BB226
:10234000002B08D00D4B1B889BB2012B02D00B48F1
:102350000E4B984710BD09480A4B9847FAE7C0460C
:10236000B001002004010020A8010020FC00002092
:10237000AC010020000100208D2700009007002004
:10238000B009002005240000600E00201522000086
:10239000024B18600122024B1A60704714010020A2
:1023A000180100200022014B1A6070471001002024
:1023B00010B5402202490220024B984710BDC0468A
:1023C000240100200933000010B50C000B490B68F4
:1023D000012BFCD00121094B1960131C402A00D9A4
:1023E00040239AB201000120054B9847002C03D0EE
:1023F000024A1368012BFCD010BDC046100100201A
:10240000FD320000F0B5DE4657464E464546E0B583
:1024100083B00190314A138801331380468830001D
:102420003D303E212E4B98470138C0B2002E4ED091
:102430000023984600272B4D2B4B9A460F23994695
:1024400003409B4624E028493F2232400B783F203E
:10245000834313430B70244B1C78A406A40E391D30
:10246000019B9C46614422002048214B9847A2B220
:10247000B61AB6B2D719BFB2023201211A481D4BA3
:102480009847434601334A461A409046002E1ED0D4
:102490002B68012BFCD0402200215046164B984758
:1024A00053465B784A4693434246120159460B43D2
:1024B00049460B401343524653703E2EC3D90A4A35
:1024C00013783F218B433E210B431370C3E703B0C6
:1024D0003CBC90469946A246AB46F0BD1E0100208A
:1024E0008D380000100100206401002066010020EA
:1024F000ED390000C9230000FF39000010B50023AA
:10250000044A1360044A1380044A1380044B98471A
:1025100010BDC046080100201C0100200C01002055
:10252000B1230000F8B5504B1B68002B66D0002289
:102530004D4B1A604D4B1B68002B33D04C4B1B7816
:102540007F2B33D80022494B1A600023494A13805D
:10255000494A13800026464B5B780F22934336D0BE
:10256000444B1D88424B1B789B069C0E2A198623E0
:102570009B009A423BD8281D404BC0183C4FB91CC9
:1025800022003F4B98472C193A4B1C8001363A4A9F
:1025900016807B781B093B4A128893422FD03A4B16
:1025A00098472BE0324B1B787F2B58D8324B1E8834
:1025B000002ED0D02E4B5B781B09B342CBD000232A
:1025C0002C4A13802C4A13802F4B984716E0284B37
:1025D0005B781B071B0F2B4A13800022254B1A80A8
:1025E0008822920000212548284B9847B8E700230D
:1025F000204A1380204A1380234B9847F8BD1B4B79
:102600001B68002B19D10122184B1A60184B1B783C
:102610005B0616D41948174C23884380882189000B
:102620001B4B9847184B98471A4A1388013313805D
:1026300000232380104A1380E0E700220B4B1A602E
:10264000E4E7154C40220A4920000D4B9847134BF4
:102650001A6892B201212000114B9847DAE7012253
:10266000024B1A6071E7C0461801002008010020E3
:10267000240100201C0100200C0100206405002022
:10268000ED39000060050020B1230000FF39000093
:10269000FD21000020010020640100201401002021
:1026A000C9230000F0B5D6464F464646C0B52D4B6F
:1026B0002D4A53632D49916302262D491180002430
:1026C0002A219173293989462A495161494619823B
:1026D000198AC904C90C1982188A80214901014349
:1026E0001982188A8021C90001431982188A224957
:1026F0008A4608401882188A1825A846A843082543
:10270000AC46654628431882DC613F270120D0553E
:102710001A4850644D255655484618801888C004FC
:10272000C00C188018881649084018801988802025
:102730000001084318801888514601401980198803
:1027400040468143604601431980DC60D4550D4BFF
:102750005364565540220C4B1A601CBC9046994657
:10276000A246F0BD8010002000480041F00D00207E
:10277000020F000001010101FFFCFFFF20088000A3
:10278000FFEFFFFF6007800000E100E0064B1B6BDE
:10279000180C1B041B0E60229343802B02D0034BAA
:1027A000588880B27047C04600480041F00D0020B4
:1027B00070B506000C0015000B4A1368002BFCD006
:1027C0000A4B98470022084B1A60094B5D829E61B4
:1027D00064195C61074B01213F3299540131013288
:1027E0009954054B984770BD00000020A1360000A9
:1027F0008010002000480041E136000010B50C4B6D
:1028000098470C4B882292005A800B4A88218900F5
:102810008C4662449A60094A5A60094B00213F2263
:102820009954023101329954064B984710BDC04665
:10283000A1360000801000209007002028140042DC
:1028400000480041E136000010B5244B00213F2232
:1028500099540F329B5C9B0716D54D3A204B1A605A
:1028600002314E231D4AD1541E4B1B889BB2002BB4
:102870001AD1882292001B491B481C4B9847012201
:102880001B4B1A601B4B9847144B01213F22995454
:102890000F329B5C9B0706D54D3A174B1A600131EE
:1028A0004E230E4AD15410BD0E4B1B889BB2012BF8
:1028B00009D0882292000B4910480C4B98470122FE
:1028C0000F4B1A60DEE78822920006490D48074B3D
:1028D000984701220C4B1A60D4E7C04600480041DB
:1028E000A401002090070020B0090020ED3900006D
:1028F000B0010020FD27000000000020600E002035
:10290000AC010020D00B0020A801002010B5224B04
:102910008022D2025A605222995C022001439954CB
:10292000995C012081439954013A995C0124214327
:1029300099543821585C423A0240302002435A549C
:1029400050201A5C22431A545A5C413882430320B7
:1029500002435A54114A136A18390B431362093956
:1029600000200F4B98470F480F4B186019000422A6
:10297000CB691A42FCD10C4BC02292025A60002251
:102980009A810223184308490232CB691A42FCD1CA
:10299000054B186010BDC0460044004100040040D3
:1029A00015210000044010000014004210B5094B2E
:1029B0005022995C0124A14399545120195CA143F0
:1029C0001954802149029961995C0420014399546A
:1029D00010BDC0460044004110B5074B5022985C22
:1029E0000124204398545120195C21431954995CC7
:1029F0004D388143995410BD0044004110B50C4B33
:102A00005822995C0124214399543C215A5C0F209F
:102A10008243062002435A5459201A5C22431A5416
:102A2000585C0F220240602002435A5410BDC04639
:102A30000044004110B5024B9847024B984710BD27
:102A40000D290000FD29000010B5014B984710BD6D
:102A5000AD29000010B5014B984710BDD9290000E1
:102A600030B52A4B1B682A4A11682A4A934208D07B
:102A7000002848D0284A128B01204042D20505D5B3
:102A800030BD264A9142F3D10020F9E7224A54682A
:102A900050688025A843506055688020C0022843B4
:102AA0005060108B2025FF35284310831C48D061CF
:102AB0001C48108010000122057D1542FCD0164AEA
:102AC000108B2025FF35284310831548D061164808
:102AD0000340490A49020F4803430C4803600F4B67
:102AE00019430B4B1960114B13800123117D1942BF
:102AF000FCD0094B5C60BFF34F8F0D4A0D4BDA6081
:102B0000BFF34F8FFEE701204042B9E7004080004D
:102B100004408000EFA7E0D8004000415AFCFFFFCE
:102B20000020400005A5FFFF8800FE0106A5FFFF6D
:102B30000400FA0500ED00E010B5354A53785BB2A9
:102B4000002BFBDB324B334A9A601A0053785BB29E
:102B5000002BFBDB2E4B304A5A601A0053785BB2D5
:102B6000002BFBDB2A4B812292005A801900802225
:102B7000D2014B881342FCD1254A53785BB2002B1B
:102B8000FBDB234B254A5A80254A937A5BB2002B04
:102B9000FBDB0022224B1A801A00937A5BB2002BD7
:102BA000FBDB01221E4B1A801A00937A5BB2002BCA
:102BB000FBDB1B4901220B881342FCD1184A937A94
:102BC0005BB2002BFBDB164B164A1A801A21002041
:102BD000154B9847154A116A80235B000B4313621B
:102BE000134980228B681A42FCD1124A104B1A6496
:102BF000190002228B681A42FCD10D4B02221A6086
:102C0000013A9A62802212020B4B1A6010BDC04634
:102C1000000C0040032000000303290004430000CF
:102C2000001400400A0A00001521000000040040C2
:102C3000002000427FBB000000E100E0104A136862
:102C4000013313600F4B1B68002B05D00D4A13682E
:102C5000591E1160012B0AD00A4B9B68002B05D02E
:102C6000084A9368591E9160012B04D070470022D6
:102C7000044B5A60F0E70022024BDA60F6E7C046E8
:102C800000110020F010002010B5054BDB6ADB07B7
:102C900000D410BD0122024BDA62024B9847F8E7DC
:102CA000002000423D2C000070B5304AD36920213D
:102CB0000B43D3612E4A2F4B5A802F4A13780121A0
:102CC0000B4313709378DB07FCD42C4B1B68580B19
:102CD000294C218D1F2528408001294A114001439C
:102CE0002185990C228D29401F2082430A43228589
:102CF0009B01228D5B0F1B0322490A40134323854E
:102D0000214D8022520000212800204B9847656207
:102D100022787F23134023702378042213432370E7
:102D200023890C2293432381082323830A22FF3221
:102D3000A35C10210B43A3542378083AFF3A1343B2
:102D4000237000212200702507240B0008335B014B
:102D5000985CA8439854985CA04398540131082982
:102D6000F3D180220A4B1A6070BDC04600040040B7
:102D700006400000000C004000500041246080002C
:102D80003FF8FFFFFF8FFFFF34020020FF390000F4
:102D900000E100E0024A138901218B43138170474F
:102DA00000500041F0B584787F2222407F239C436D
:102DB000C37803211940057943791B022B439B05F6
:102DC0009B0D802C55D0444E100008304001855D8D
:102DD0000727BD4385550025082B16DD0135102B2F
:102DE00013DD0135202B10DD0135402B0DDD0135C4
:102DF000802B0ADD802040000135834205DD013053
:102E0000FF300135834200DD01350120002906D065
:102E1000012937D002390800411E88410330802C37
:102E200032D007262C4F130008335B01DC5D010014
:102E300031400720844320000843D8555401274AD5
:102E4000A1184878012210434870BC4663441979A0
:102E500011431971597940221143597133002B40A4
:102E60001F4A121951681B071E4801400B4353604B
:102E7000F0BD194E100008304001855D7027BD433C
:102E80008555A8E70220CAE70723134F1100083130
:102E90004901CC5D18400601702084432000304376
:102EA000C85556010D4AB0184478022214434470A4
:102EB000BC4661440879104308710A798020404279
:102EC00010430871064A921951692B401B07054DA2
:102ED0000D402B435361CBE70050004108510041A6
:102EE00034020020FFFFFF8F802908D00830400106
:102EF000084BC05C4007431E9841C0B27047083081
:102F00004001044BC05C4006400F431E9841C0B2D4
:102F1000F4E7C04600500041802907D04001074B2C
:102F20009C4660448079C006C00F70474001034B47
:102F30009C46604480798006C00FF6E7005100414E
:102F4000802908D04001084B9C46604443791022F8
:102F50001343437170474001034B9C4660444379DF
:102F6000202213434371F5E700510041802918D016
:102F70004301184A944663449B79DB0610D543010C
:102F800063441A7910210A431A71DB799B0607D52D
:102F9000400160442023C37103790122134303716C
:102FA000704743010B4A944663449B799B06F7D5CF
:102FB000430163441A7920210A431A71DB795B06C5
:102FC000EED5400160444023C371037902221343CC
:102FD0000371E5E70051004180235B421843C0B212
:102FE000014B98727047C0460050004110B5440133
:102FF0000C4B1B191C0019615B699204910C9A0B14
:1030000092030A4362616369074A134063614001A6
:10301000064B9C466044427980235B4213434371D4
:1030200010BDC04634020020FF3F00F000510041B7
:1030300010B50C4B4401E1501B1959689204140956
:10304000094A0A4022435A605A68920B92035A6016
:103050004001064B9C4660440379402213430371B0
:1030600010BDC04634020020FF3F00F00051004177
:103070000B4A53699B0B9B0353610A4B02210822A5
:10308000FF3299540621FF31585C883AFF3A0243D7
:103090005A5419000822FF328B5C9B07FCD57047FD
:1030A000340200200050004103490622FF328B5CAD
:1030B000202003438B5470470050004170B50C0032
:1030C000164BDB798B4220DA154B1861144B59698A
:1030D000A404A40C890B8903214359615A6911493D
:1030E0000A405A61104B02210822FF3299540621EE
:1030F000FF31585C883AFF3A02435A5419000822BB
:10310000FF328B5C9B07FCD570BD084D0A000100A7
:103110002800074B9847024B1D61D7E78800002025
:1031200034020020FF3F00F000500041B4010020B5
:10313000ED390000F8B5CE46474680B55F4B9B8B16
:103140001B0753D55D4B08229A8378329A7200216F
:103150001A00702507240B0008335B01985CA84314
:103160009854985CA043985401310829F3D1534AEC
:10317000093180235B00D1540621FF31535C402488
:103180002343535482204000115C80235B420B4355
:1031900013544B4B4B49196159694B4F3940C0256A
:1031A000AD05294359615969890B890359615E69E4
:1031B00046498C460E405E61454919605E683E4056
:1031C00035435D605D6861460D4080218902294379
:1031D00059605968890B89035960135C1C43145466
:1031E0000A21FF31535C1020034353540823FF335B
:1031F000324AD35CDB060AD4304B1D8CADB20126BB
:103200000024002D1FD10CBC90469946F8BD140037
:1032100010220823FF33E2542D482E4B9847822278
:103220005200A35C40210B43A354E5E7244B586CA8
:103230008004800C284B984726E0002DE3D0072E11
:10324000E1DC01340136A1462B002341DB07F4D534
:103250000123A3409D436701184B9C466744082304
:10326000FF33FB5CDBB29846DB070DD50122082358
:10327000FF33FA546301194A944663445A79402152
:103280000A435A71022CD1D043469B07D5D502225E
:103290000823FF33FA544B465B01104A94466344BB
:1032A0001979802252420A431A714B46012BC4D12C
:1032B0000B4B9847002DC4D1A5E7C04600500041F4
:1032C00034020020B4010020FFFFFF8FFF3F00F019
:1032D000F40100201533000091230000005100414B
:1032E000A523000010B50022024B1A60024B98473C
:1032F00010BDC04634030020A92C000010B5014BBE
:10330000984710BDED2F000010B5014B984710BD38
:1033100031300000F0B5C64600B582B004004378F5
:103320001B0202781343B54A934200D11FE114DD1A
:10333000B34A934200D191E148DC823AFF3A93428A
:1033400000D1C4E08132FF32934254D0AD4A93425F
:1033500000D10FE1AC4B9847C1E08022520093426C
:1033600000D126E10DDD81225200934200D126E1F9
:1033700000DA21E1FF32FF329342EBD1A24B9847B2
:10338000ADE0802BE6DB812B00DCE5E0822BE1D198
:10339000027943791B0213437F241C4080251D4082
:1033A00000226B46DA8029002000984B98470028BD
:1033B00000D1D9E029002000954B98476B46D88072
:1033C000063302211800934B984788E0902212019F
:1033D000934200D19CE0904A934200D183E0A13A0D
:1033E0009342B7D16B46981D8C4B1B68037001212B
:1033F000884B984773E08278C3781B0213431A0AFC
:103400008179C67936020E43012A33D0022A3DD093
:10341000032A59D1DBB2002B47D0042B51D89B0093
:103420007F4A9C5820007F4B984705007E4F4022E2
:10343000002138007D4B98476B1C5B003B700323D9
:103440007B70002D0ADD7A4B681C4000991E4018E5
:1034500021781970013402338342F9D1724B1B7801
:10346000191C9BB2B34200D9311C89B26E48694B1A
:10347000984734E06F4B1B78191C9BB2B34200D9BC
:10348000311C89B26B48634B984728E06A4A9178AF
:10349000D3781B020B43191C9BB2B34200D9311CD9
:1034A00089B265485B4B984719E0644B1B78191C3F
:1034B0009BB2B34200D9311C89B26048554B984742
:1034C0000DE0514B98470AE04F4B984707E05C4BA3
:1034D0009847A378E078000218435A4B984702B007
:1034E00004BC9046F0BD027943791B021343012BC3
:1034F000F5D15549822252008B5C402003438B5406
:103500000822FF328B5CDB07FCD54D4B9847E6E782
:10351000424D8278C3781B0213432B60484B984777
:103520002B68002BDBD0444B9A78DD782D021543B5
:103530000DD01C0004E02378ED1AE418002D06D00D
:103540006378052BF7D12000404B9847F3E7334BC6
:1035500018683F4B9847C2E76B46981D00230380CD
:1035600002212C4B9847BAE7274B9847B7E7344BD3
:103570009847B4E7027943791B0213437F251D4026
:103580008178C27812020A4301D1002D02D11E4B6C
:103590009847A4E780241C40210028001B4B984733
:1035A0000028F4D0210028002A4B9847244B984744
:1035B00095E7154B984792E7214B98478FE702799B
:1035C00043791B0213437F251D408178C278120284
:1035D0000A4301D1002D02D10B4B98477FE780248D
:1035E0001C4021002800094B98470028F4D02100F6
:1035F0002800194B9847124B984770E701030000C9
:103600008106000002030000A9300000E92E00003E
:10361000192F0000BD3000002109000034030020F4
:10362000BC0000200F3A000004110020FF39000008
:10363000061100208800002044000020B80000206F
:1036400071300000D92F000000500041A52D00006E
:10365000FD240000412F00006D2F00008279C37906
:103660001B0213430179427912020A4308D1191C43
:103670001C2B00D91C2189B20648074B98472EE71E
:10368000191C3F2B00D93F2189B20448024B9847AF
:1036900025E7C0469C000020BD300000040000204B
:1036A0000C4B1B68002B06D1EFF31083002B07D0C7
:1036B0000022094B1A70074A1368013313607047E0
:1036C00072B6BFF35F8F0022044B1A700132024BB7
:1036D0001A70F0E7380300203C030020D0000020DF
:1036E000084B1A68013A1A601B68002B09D1064B77
:1036F0001B78002B05D00122044B1A70BFF35F8F9B
:1037000062B67047380300203C030020D000002040
:10371000FEE70000F8B52A4A2A4B9A4211D01A0057
:10372000294B9A420DD2294A03339B1A9B08013335
:103730009B000022234822498C58845004329A422C
:10374000FAD1234A234B9A420AD2D34321495B1828
:1037500003218B4304339B18002102C29342FCD106
:103760001D4AFF211D4B8B439360FD3990235B0065
:103770001B4AD1501B4AD3780325AB430224234371
:10378000D370D3780C27BB4308263343D370164B32
:10379000987B30229043202210439873997BB94341
:1037A000314399739A7BAA4322439A730F4A536811
:1037B00080210B4353600E4B98470E4B9847FEE712
:1037C0007C3A000000000020D4000020040000200B
:1037D000E00000204411002000ED00E00020000087
:1037E000007000410050004100480041004000418D
:1037F000A53900007138000010B50120084B98472A
:10380000431C00D1FEE7074B9847074B9847074BEF
:103810009847074B9847074B9847074B984710BD69
:10382000612A00003D210000A5260000392B000080
:10383000352A0000F1210000E532000010B5074BE9
:103840009847074B98470422064B1A61BFF34F8FE6
:1038500030BF054B9847054B984710BDA136000077
:10386000492A000000ED00E0552A0000E136000082
:1038700070B5034B9847034D034CA847A047FCE79E
:10388000F9370000A522000025250000002243088A
:103890008B4274D303098B425FD3030A8B4244D318
:1038A000030B8B4228D3030C8B420DD3FF2209025A
:1038B00012BA030C8B4202D31212090265D0030B19
:1038C0008B4219D300E0090AC30B8B4201D3CB030F
:1038D000C01A5241830B8B4201D38B03C01A524151
:1038E000430B8B4201D34B03C01A5241030B8B4253
:1038F00001D30B03C01A5241C30A8B4201D3CB023E
:10390000C01A5241830A8B4201D38B02C01A524122
:10391000430A8B4201D34B02C01A5241030A8B4225
:1039200001D30B02C01A5241CDD2C3098B4201D33D
:10393000CB01C01A524183098B4201D38B01C01ABB
:10394000524143098B4201D34B01C01A5241030932
:103950008B4201D30B01C01A5241C3088B4201D3E1
:10396000CB00C01A524183088B4201D38B00C01A8E
:10397000524143088B4201D34B00C01A5241411AB5
:1039800000D20146524110467047FFE701B50020C2
:1039900000F006F802BDC0460029F7D076E7704770
:1039A0007047C04670B500260C4D0D4C641BA4102A
:1039B000A64209D1002600F051F80A4D0A4C641BBA
:1039C000A410A64205D170BDB300EB58984701364C
:1039D000EEE7B300EB5898470136F2E7683A00008B
:1039E000683A0000683A00006C3A0000002310B505
:1039F0009A4200D110BDCC5CC4540133F8E70300F7
:103A00008218934200D1704719700133F9E70023FF
:103A1000C25C0133002AFBD1581E70475374657095
:103A200068616E20456C656374726F6E69637300C4
:103A30004D6F6F6C746970617373204D696E69208E
:103A4000424C450052617720484944004B657962F9
:103A50006F6172642048494400000000F8B5C04618
:103A6000F8BC08BC9E467047DD200000F8B5C04693
:0C3A7000F8BC08BC9E467047B520000062
:103A7C000100000005010906A10175019508050763
:103A8C0019E029E7150025018102950175088103CC
:103A9C009505750105081901290591029501750314
:103AAC00910395067508150025FF0507190029E7F0
:103ABC008100C000090242000201008032090400AA
:103ACC00000203000003092111010001221C000760
:103ADC0005020340000107058103400001090401B0
:103AEC00000103010104092111010001223F00071B
:103AFC0005830308000100001201000200000040D1
:103B0C00D016A00900010102000100000631FF0AD5
:103B1C007400A1017508150026FF0095400901816C
:103B2C0002954009029102C0040309040000000040
:103B3C001C3A0000303A0000443A00004C3A0000B5
:043B4C000100000074
:0400000300003715AD
:00000001FF
