:1000000078220020512700004D2700004D270000D6
:1000100000000000000000000000000000000000E0
:100020000000000000000000000000004D2700005C
:1000300000000000000000004D2700009526000091
:100040004D2700004D2700004D2700004D270000E0
:10005000812200004D270000811900004D2700007B
:100060004D2700004D2700004D2700004D270000C0
:100070004D2700004D270000C524000091260000F8
:100080004D270000932600004D2700004D2700005B
:100090004D27000000000000000000004123000088
:1000A0004D2700004D2700004D2700004D27000080
:1000B0000000000010B5064C2378002B07D1054B3B
:1000C000002B02D0044800E000BF0123237010BDC4
:1000D000200000200000000098330000084B10B5FD
:1000E000002B03D00749084800E000BF0748036819
:1000F000002B00D110BD064B002BFBD09847F9E731
:100100000000000024000020983300009833000015
:1001100000000000F0B5DE4657464E464546E0B5C5
:1001200093B00600C3699846836902698768456889
:10013000110079400800414669408A4641465140D5
:100140000291414679400C00310076695E40009191
:100150000968714001914A4005920490020051469D
:100160004A401000424601994A4007924D40220001
:1001700008956A400992009AD568069045406F40FC
:100180006B401900009803687B400A933A00724064
:100190001500029B4B4000685840834603955D4024
:1001A00028000B935E40069B10973B401A00574671
:1001B0003740BC46029D0B9B1D40049B11900340A1
:1001C0001F006F40B9462300039803405D40099B20
:1001D0000A9F3B401F000B0053405F4049464F4081
:1001E00000990968059B19400B000F946340434038
:1001F00053406B40089A0198024051464A40724071
:1002000061464A4049464A404446744061464C4033
:1002100007985946084044406540390059408C468B
:1002200039001140884669400F00614639400C0092
:100230005C4011006940894641464B4049460B40AD
:100240006B40390059400D405A406A406F4027408A
:1002500061464F4015007D402800210059400D00A7
:10026000210079408946190051408C460C90684025
:1002700080460099086818400D9049460E400E9639
:10028000019838400190594621408B4611984146CB
:100290000840099E1640099651464E4631408A460E
:1002A000049E41460E40B046029E2E4041464E40BE
:1002B00008990F40594679400891109F61460F40B8
:1002C0000E99794002910D9957467940029F7940E5
:1002D00089460496019F7E4037000B9E35400E9E56
:1002E0006E404640039D0C990D40454039007D40CD
:1002F0000395069867463840050009984540AC4686
:100300000D0067467D40AC46019F77403900079D50
:100310002C404F467C40039D6C400A9D2A40674616
:100320007A40029F574065466E40009DEE61FE4355
:100330004E40AE610F9E0C9D2E4045466E40614082
:10034000C9434E4000994E610E000F610D995D4604
:1003500069404A40F260059A134043405C40B460F3
:10036000534608994B400398C5435D407560049B14
:100370004A465340DB434B40336013B03CBC90468D
:100380009946A246AB46F0BDF0B5DE4657464E460E
:100390004546E0B583B00368426854005F4988462B
:1003A0000C405F49894619400C4359084B46194097
:1003B00043461A40114383680090C5686A0040466E
:1003C00002404E461E40324394465F084B461F4053
:1003D000434605402F4300980569426956001E4078
:1003E0004B462B401E436B084846034040460240A4
:1003F000134300988569C2695200404610404A463E
:100400002A40104382466D084A46154042460098ED
:10041000C06902401543A84662469500414A91468C
:100420001540414A934622401543A4085A461440B9
:100430006246484602401443BA000240584608400B
:10044000104384468A0859460A4049460F403A43B9
:10045000019251468900484601405F463740394382
:10046000B608584606405746484607403E43404671
:100470008700484607405846184007439B0858469F
:10048000034040464A461040184383460B019946B4
:10049000264B484618408146254A90461000284081
:1004A00082464846524610430200009802602D09D9
:1004B00042461540194029430161390119406546FA
:1004C00042461540294341606246110942461140A7
:1004D0001F400F43476131011940454625402943DC
:1004E00081602409424614401E40264386615A46D4
:1004F000110119404446019D2C402143C1602A0945
:1005000041460A4059460B401343C36103B03CBC0B
:1005100090469946A246AB46F0BDC046AAAAAAAAF2
:1005200055555555CCCCCCCC33333333F0F0F0F0BB
:100530000F0F0F0F10B588B000236A469850043390
:10054000202BFAD16846054CA0476846044B9847D3
:100550006846A047009808B010BDC0468903000057
:1005600015010000F0B5DE4657464E464546E0B55B
:10057000FBB00190182A00D17EE0202A04D0102A76
:100580002CD0002300936FE00E2300939708009B6C
:1005900001339B00984602AC0025487800028B7816
:1005A0001B0418430B781843CB781B0618432060B4
:1005B0006060013504310834BD42EEDB474535DA71
:1005C000FD0002AB9C4665444346DB1B9946002672
:1005D00000239A4600242A4B9B4619E02C23984678
:1005E0000427223B0093D6E70823D841D847254B60
:1005F00052469B5C5840F30002AA9B585840286022
:1006000068600134BC420CD0013608354E450DD02F
:10061000002CE9D0062FEEDD042CECD1184B9847C6
:10062000E9E701239C46E2440024EDE702AC260002
:100630000025154F4446B0463000B84704352036F3
:10064000A542F9DB4346A0461C00019800210F4E4D
:100650000F4D47462368334062682A40134308C061
:1006600001310834B942F5DB00987BB03CBC9046C0
:100670009946A246AB46F0BD0C23009386E7C046E0
:1006800035050000A0280000890300005555555588
:10069000AAAAAAAAF0B50131890011D00400C900A4
:1006A0004018084F084E08CA1D003D406900294304
:1006B0002160334059080B43636008348442F2D10F
:1006C000F0BDC04655555555AAAAAAAA30B5002A6C
:1006D00007D00023CC5CC55C6C40C454013393420A
:1006E000F8D130BD10B50400034B08C0034B984748
:1006F000F423E05010BDC046AC28000065050000A2
:10070000F0B5DE4657464E464546E0B59F4CA544FB
:1007100003908A4601929946021DF423C15814A8F9
:100720009B4B984753461B781B0651464A78120448
:100730001343CA7813438A78120213431F000E79B9
:1007400036064B791B041E43CB791E438B791B0263
:100750001E430D7A2D064B7A1B041D43CB7A1D4395
:100760008B7A1B021D434C7B24040B7B1B061C4312
:10077000CB7B1C438B7B1B021C434B46002B00D1C5
:10078000DEE0019B0293834B98460197019F3B0259
:10079000814803403A0A81490A4013431022D34159
:1007A000049333020340370A0F403B43D34106937F
:1007B0002B0203402F0A0F403B43D34108932302EF
:1007C0000340270A0F403B43D3410A93631C9C46D6
:1007D00023006746BB43DB0F9B465D446B1EAB4368
:1007E000DB175F463B40F618771EB743FF173B40C9
:1007F000019FBB469B445B465F461B02034001973B
:100800003F0A0F403B43D341059333020340370A6D
:100810000F403B43D34107932B0203402F0A0F4065
:100820003B43D341099363461B02184063461B0AAE
:1008300019400843D0410B904B46102B78D9A31C8C
:10084000123A141B1C43E443E40F2D196A1EAA43F9
:10085000D21714403619721EB243D2171440019AAF
:100860009346A3445A4601921C0004A8C047F423AF
:10087000039AD05804AA14A9494B984704A8C04722
:10088000049A0CAB1A70110A5970110C9970120E5F
:10089000DA70069A1A71110A5971110C9971120EB7
:1008A000DA71089A1A72110A5972110C9972120EA1
:1008B000DA720A9A1A73110A5973110C9973120E8B
:1008C000DA73059A1A74110A5974110C9974120E7C
:1008D000DA74079A1A75110A5975110C9975120E66
:1008E000DA75099A1A76110A5976110C9976120E50
:1008F000DA760B9A1A77110A5977110C9977120E3A
:10090000DA774B46202B15D920220CA9029B9B4657
:100910001800244FB8475B462033029320235B42E4
:100920009C46E1444B46002B00D02FE7019F07E097
:1009300064469AE7019F4A460CA90298194B9847CA
:100940003B0E524613703B0C53703B0A9370D770AA
:10095000330E1371330C5371330A9371D6712B0E0E
:1009600013722B0C53722B0A9372D572230E1373CE
:10097000230C5373230A9373D4738D239B009D44DC
:100980003CBC90469946A246AB46F0BDCCFDFFFF6D
:10099000950600008903000000FF00FFFF00FF0034
:1009A000B9110000CD060000F0B5DE4657464E46B0
:1009B0004546E0B5564CA54480460D0014001E0087
:1009C000021DF423C1586846524B98476B781B02AE
:1009D000AA78120413432A781343EA7812061343C1
:1009E0009C466B791B02A8790004034328790343D2
:1009F000E879000618436B7A1B02A97A09040B43B5
:100A0000297A0B43E97A090619436B7B1B02AA7BFF
:100A1000120413432A7B1343EA7B12061A43002372
:100A200079937B937D937F93002E47D03A4B9B46DF
:100A30003A4B994663781B02A7783F043B432778DB
:100A40003B43E7783F063B4367467B4078936379B7
:100A50001B02A7793F043B4327793B43E7793F06D5
:100A60003B4343407A93637A1B02A07A000403431A
:100A7000207A0343E07A000603434B407C93637B78
:100A80001B02A17B09040B43217B0B43E17B09067D
:100A90000B4353407E9378A8D847F4234246D0585E
:100AA00078AA6946C84778A8D847789B9C467A9820
:100AB0007C997E9A1034103E002EBBD163462B7079
:100AC00063461B0A6B7063461B0CAB7063461B0EC0
:100AD000EB702871030A6B71030CAB71000EE871A7
:100AE00029720B0A6B720B0CAB72090EE9722A7336
:100AF000130A6B73130CAB73120EEA7381239B0002
:100B00009D443CBC90469946A246AB46F0BDC046CB
:100B1000FCFDFFFF9506000089030000B9110000ED
:100B2000F0B5DE4657464E464546E0B5D44CA544A2
:100B300007900D000891170009921C00021DF42374
:100B4000C15812A8CF4B98472B781B0629006A780A
:100B500012041343EA781343AA78120213439A4605
:100B60002E7936066B791B041E43EB791E43AB7955
:100B70001B021E432D7A2D064B7A1B041D43CB7A94
:100B80001D438B7A1B021D430B7B1B064A7B120401
:100B90001343CA7B13438A7B1202134398467B7824
:100BA0001B023900BA78120413433A781343FA78D7
:100BB0001206134301937B791B02BA791204134383
:100BC0003A791343FA791206134302937B7A1B0294
:100BD000BA7A120413433A7A1343FA7A1206134389
:100BE0000393BF7B3F044B7B1B021F430B7B1F43C5
:100BF000CB7B1B061F43949B002B00D1F1E04346A7
:100C00001B029B464346DB430093012305939E4B07
:100C100099464346B846049318E00B9F4F4001970E
:100C20000D99514002910F9A5A400392119B5840DE
:100C3000804680235B009C46E344009B013B00937D
:100C4000949B002B00D1AFE00023059353461B0279
:100C50004A4613405246120A8C4802401343102160
:100C6000CB410A9333024A461340320A02401343EF
:100C7000CB410C932A024B461A402B0A03401A43DD
:100C8000CA410E92049F3B0A03405A46484602401E
:100C90001343CB4110933A0001320492009B13435B
:100CA000DB43DB0FED186A1EAA43D2171340F61878
:100CB000721EB243D21713409A44019B0B93029ABF
:100CC0000D9203980F90414611910AA870498847E8
:100CD000F4230799C8580AAA12A96E4FB8470AA860
:100CE0006B49884761780902A3781B04194323786C
:100CF0001943E3781B0619430A9F7940627912026F
:100D0000A3791B041A4323791A43E3791B061A4378
:100D10000C9F7A40637A1B02A07A00040343207A76
:100D20000343E07A000603430E9F06977B40607BF7
:100D30000002A77B3F043843277B3843E77B3F060D
:100D40003843109F784021700F0A67700F0CA7700E
:100D50000F0EE7702271170A6771170CA771170E33
:100D6000E77123721F0A67721F0CA7721F0EE772CA
:100D70002073070A6773070CA773070EE773103415
:100D8000949F103F9497059F002F00D145E7019F46
:100D90004F400197029951400291039A5A400392A1
:100DA00043464340984644E7049B47469846019B88
:100DB0000A93029B0C93039B0E9310970AA8344C42
:100DC000A047F423079AD0580AAA12A9314B984792
:100DD0000AA8A0470A9B01930C9B02930E9B0393C6
:100DE000109F53461B0E089A137053461B0C5370EA
:100DF00053461B0A93705346D370330E1371330C52
:100E00005371330A9371D6712B0E13722B0C5372DC
:100E10002B0A9372D57243461B0E137343461B0C69
:100E2000537343461B0A93734346D373099A1300C3
:100E3000019919700B0A53700B0C93700B0ED37041
:100E4000029911710B0A53710B0C93710B0ED37134
:100E5000039911720B0A53720B0C93720B0ED3721F
:100E600017733B0A53733B0C93733F0ED7738B235B
:100E70009B009D443CBC90469946A246AB46F0BDC3
:100E8000D4FDFFFF9506000000FF00FFFF00FF00FC
:100E900089030000B9110000F0B5DE4657464E4602
:100EA0004546E0B5BD4CA54404900D0007911700E0
:100EB0001C00021DF423C15814A8B94B98472B7885
:100EC0001B0629006A7812041343EA781343AA78B0
:100ED00012021800104305902E7936066B791B0418
:100EE0001E43EB791E43AB791B021E432D7A2D0660
:100EF0004B7A1B041D43CB7A1D438B7A1B021D4387
:100F00000B7B1B064A7B12041343CA7B13438A7B69
:100F1000120219001143884678780002BB781B043E
:100F200018433B781843FB781B061843797909026C
:100F3000BB791B0419433B791943FB791B06194301
:100F40007A7A1202BB7A1B041A433B7A1A43FB7A61
:100F50001B061A43BB7B1B0406977F7B3F023B4368
:100F6000069F3F7B3B43069FFF7B3F063B43969F8D
:100F7000002F00D1C6E047463F0203974746FF4394
:100F80000197059FB9468C4602929A464B461B0232
:100F9000844A13404946090A8B4683495F460F40FD
:100FA0003B431027FB410C9333021340370A0F4099
:100FB0003B431027FB410E932B0213402F0A0F4097
:100FC0003B431027FB41109343461B0A1940039FE4
:100FD0003A4011431023D94112910F3B9B46D8440C
:100FE000019B42461343DB43DB0FED186A1EAA4305
:100FF000D2171340F618721EB243D2171340994409
:1010000062781202A3781B04134322781343E27818
:101010001206134358400D9063791B02A279120403
:10102000134322791343E279120613436246534075
:101030000F93637A1B02A27A12041343227A13439A
:10104000E27A12061343029A53401193637B1B0208
:10105000A27B12041343227B1343E27B1206134349
:101060005246534013930CA8504A9047F423049AD5
:10107000D0580CAA14A94E4B9C46E0470CA84B4AEA
:1010800090470C9B08AA13701A0A08A94A701A0CF8
:101090008A701B0ECB700E9B0B711A0A4A711A0CC8
:1010A0008A711B0ECB71109B0B721A0A4A721A0CB2
:1010B0008A721B0ECB72129B0B731A0A4A731A0C9C
:1010C0008A731B0ECB73102220003A4B98470D9861
:1010D0000F9A9446119A0292139A92461034969A55
:1010E000103A96923A000132FF320392019B013B83
:1010F0000193969B002B00D048E74B460593614631
:10110000029A5346059C240E079F3C70059C240CB4
:101110007C70059C240ABC706C46247DFC70340EE7
:101120003C71340C7C71340ABC71FE712C0E3C7223
:101130002C0C7C722C0ABC72FD724446240E3C734B
:101140004446240C7C734446240ABC734446FC7316
:10115000069D2870040A6C70040CAC70000EE870D8
:101160002971080A6871080CA871090EE9712A72C0
:10117000110A6972110CA972120EEA722B731A0A03
:101180006A731A0CAA731B0EEB738D239B009D448C
:101190003CBC90469946A246AB46F0BDCCFDFFFF55
:1011A0009506000000FF00FFFF00FF00890300001C
:1011B000B9110000CD060000F0B5DE4657464E4698
:1011C0004546E0B58BB00890099193460A000B683C
:1011D000594609684B4059460B60536849684B4073
:1011E00059464B60936889684B4059468B60D36879
:1011F000C9684B405946CB60136909694B40594651
:101200000B61536949694B4059464B619369896940
:101210004B4059468B61D3690193C9694B4059468C
:10122000CB61012800D8DEE01300202294466344FD
:101230009946012303931F335B445C469B46A3E01E
:101240005C468B462768E369019308233E00DE4134
:101250006168D9418C46A068D841E168D9412569C7
:10126000DD4104956569DD410595A569DD4106957A
:10127000019DDD412A00019D55402B0077403D0036
:1012800007931F007740BA4610272B00FB411E0032
:10129000534673409A4623606368664673401E0057
:1012A000634602925340019A53406B409846330084
:1012B000FB411D0043466B4098466360A368434072
:1012C0001D0046401800F841330043409C46A3608F
:1012D000E0684840029A51400E00019B5E40754014
:1012E0000100F9414D40E5602369049E73401900F7
:1012F0005640019B5E4070400A00FA415040206118
:101300006369059E73401A0071401E00FE417140E2
:101310006161A669069B5E405A403300FE417240FF
:10132000A2611E00029B7340079EFE417340E36171
:101330004F4656463F687E4026604F4646467F6889
:101340007E4066604F466646BF687E40A6604E4659
:10135000F6687540E5604D462D6968402061484655
:10136000406941406161494689694A40A2614A46F3
:10137000D2695340E361039B0133039320229446D7
:10138000E144089A9A422DD020004A4B9847200009
:10139000C0231B029846FF239C46F0273F03F026FC
:1013A00036045946A34602689308FC24A40123404E
:1013B000940145462C4023436446144023431409BA
:1013C0003C4023431401344023439409C025AD0419
:1013D0002C4023439200920E9206134308C0884289
:1013E000E1D12DE7A3465846324B98475846202373
:1013F0005B449946FC239B019846C0231B029C46F4
:10140000FF27F0263603F0231B049A46494602685C
:10141000930844462340940165462C4023433C00F6
:1014200014402343140934402343140155462C40EF
:1014300023439409C025AD042C4023439200920E0F
:101440009206134308C08142E1D1089B5B01099ACF
:10145000944663445A46126819684A4059460A60DD
:101460004A6859684A4059464A608A6899684A40B9
:1014700059468A60CA68D9684A405946CA600A69AA
:1014800019694A4059460A614A6959694A405946A8
:101490004A618A6999694A4059468A61DB69CA6921
:1014A0005340CB610BB03CBC90469946A246AB463C
:1014B000F0BDC0461501000080B500AF8023DB0100
:1014C0001A6882F30888034A9360034B1B689847A5
:1014D000BD4680BD00ED00E004400000F0B5DE46F2
:1014E00057464E464546E0B5CB4CA544CB4B9847B6
:1014F000CB4B9847CB4B0593059B5A1E0592002B6F
:10150000FAD10020C84B9847002801D0C74B984714
:10151000C74B9847002802D0C64B9847FEE7C64BFA
:10152000984700283DD0C54C2000C54B9847C54B77
:101530009847C54B98472000C44B9847431C33D06D
:10154000C34B9847042207A90020C24B9847431C6D
:101550002FD00422079906A8BF4B9847079B043356
:101560000793BE4B9847431C28D0BD4B9847202279
:1015700000211CA8BB4CA0471022002110A8A047A6
:101580002022002114A8A047B74B5A6880218A4323
:101590005A6059688022D2020A435A6000231F0011
:1015A00003E1A24B9847BEE7B04B98479F4B984743
:1015B000C6E7AE4B98479D4B9847CAE7AB4B984759
:1015C0009A4B9847D1E7009D22E0012280214900F3
:1015D0001800A74B984728E04B46002B52D1029B9E
:1015E000002B3AD1BF19A2AB9B4500D1CDE062AB35
:1015F0000193A2AB9B469F4B9F4200D9CAE0802635
:10160000B603F61B80235B009E42DCD91E00009DC2
:10161000A0470028FCD00095A2AB9B45D5D0012265
:101620008021490062A8924B98473300019A08A98B
:1016300024A8914DA847039B029A1343CCD1079B42
:10164000F2199A42C8D9DB1B4A46002A06D04A46FC
:10165000012A1ED001230293C4E700235246B21888
:10166000D31A9A46069B9A4500D285E0102208A913
:101670000CA8824B98470023029301330393002365
:101680009946AFE74B46012BACD1029B002BA9D06A
:101690000023590872089046914272D20122934366
:1016A000009D5B1B019A914699446F4A0123B44601
:1016B0000E00514638004F46009781460DE0280045
:1016C000984307000098405B388002310235069845
:1016D000814217D20136464546D0FF20284208D124
:1016E000009F107D1842FCD000976808D0616448C4
:1016F00010803F202842E2D1009F107D1842FCD08C
:101700000097DCE700958A4666464F46102208A9F6
:101710000CA85C4B9847002806D1002302930133A4
:101720000393203399465DE74F4B5A6880218A43E3
:101730005A6059688022D2020A435A608020C00150
:101740001A0001214E4D8024E40206E04308D361D3
:1017500015800130FF30A04203D0137D0B42FCD036
:10176000F4E7344B9847FEE700958A4666464F46B5
:1017700001230293994635E70123029300239946FA
:1017800030E70123029399462CE7A2AB019362ABA9
:101790009B4630E74F463C4CA0470028FCD03B4BD3
:1017A00098470137BFB2012F26D8202214A924A8B8
:1017B000374B98471022002108A82A4B9847354BF1
:1017C000984781460123802252000100A2A8324C92
:1017D000A047284B9945DED80023029303939A46ED
:1017E0008025ED01A2AB019362AB9B46264C009590
:1017F0004B46B9461F0002E71B4A0123117D1942DF
:10180000FCD01A4B9847BFF34F8F244A244BDA6021
:10181000BFF34F8FFEE7C04674FCFFFFED220000D0
:10182000DD240000A086010001250000B91400009D
:10183000751F0000FD220000952000000000002020
:10184000051E0000CD1800005523000019220000DD
:10185000111E00004D1E0000811C0000991D00009B
:10186000DD1900008F280000004000416D200000BD
:10187000C91C0000FFFF1F00A90900007D2800000F
:1018800002A5FFFFAD260000C91A0000E51D0000FB
:10189000E5060000491E0000091D00000400FA05CD
:1018A00000ED00E00F2318400002303319400143DF
:1018B0008020C0010143044A53785BB2002BFBDB5C
:1018C000014B59807047C046000C0040254A5368C0
:1018D0001E218B431C390B435360234A53785BB260
:1018E000002BFBDB0122204B1A701A0053785BB2ED
:1018F000002BFBDB1C4901220B781342FCD11B4956
:101900000B6A402293431A4A13409B009B08802293
:10191000120613430B621022CB681A42FCD0134903
:1019200000238B84134B1A68134B1B689B05920E84
:1019300092029B0D13438B621022CB681A42FCD09B
:101940000A4B02229A841900CE32CB681A42FCD18B
:10195000054A53785BB2002BFBDB034B074A5A6006
:101960007047C04600400041000C004000080040A5
:10197000FFFCFFFF24608000286080000007090052
:10198000074B01213F2299540F329B5C9B0706D5E0
:101990004D3A044B1A6001314E23014AD15470472D
:1019A000004800413C0000200122014B1A607047B2
:1019B0003C0000200022084B1A801A0013889BB2BA
:1019C000002BFBD10122044B1A801A0013889BB212
:1019D000002BFBD17047C04600480041F0B5CE4611
:1019E000474680B52F4B304A5363304991630224F8
:1019F0008021090189462E49118000252A219173F1
:101A000029398C462B49516161461982198AC904CA
:101A1000C90C1982198A284E31401982198A484600
:101A200001431982198A254F39401982198A1826CB
:101A3000B14308208046404601431982DD613F21C1
:101A400088460121404611541D4951644D2154548A
:101A500061461984198CC904C90C1984198C8C46E7
:101A600080214901604601431984198C8C468021EC
:101A7000C900604601431984198C0F401F84198CDA
:101A8000B1431984DD624346D45480231B04484685
:101A90001843506440220B4B1A600CBC9046994688
:101AA000F0BDC04600010020004800419000002029
:101AB000020F000001010101FFEFFFFFFFFCFFFF2C
:101AC0000007800000E100E0044B1B680020002BB1
:101AD00003D00022014B1A60013070473C00002007
:101AE000F8B505000C0016000B4B98470B4B5E82B7
:101AF000280028305861A1199961094A3F2701241B
:101B0000D4554025013454555E8498625962D455A9
:101B10005455044B9847F8BDDD2600000001002015
:101B2000004800411D270000F0B5DE4657464E46EE
:101B30004546E0B585B0282398468044002402AB92
:101B4000DC71444A444B538001235B429360434B16
:101B500053634348906343481080012082461880B5
:101B60001888C004C00C188018883F4DA94628402A
:101B7000188018883D4DAC462840188018883C4F86
:101B80003840188018881826B0431880DC603F2041
:101B9000834614543748506450461882188AC0044B
:101BA000C00C1882188A4D4628401882188A65464B
:101BB00028401882188A07401F82188AB04318826A
:101BC000DC610123584613542B4B5364002932D057
:101BD000224E02AB0733019340239A460234A146BA
:101BE0004E2522E0BBB29B46738043467360019B47
:101BF000B360002084463F23D05450464B461354D4
:101C00005B4673824346B361019B736101233F20AE
:101C1000135453464846D05463463F201354535DF3
:101C20002342FCD05455C91B05D00F00134B9942D9
:101C3000D8D91F00D6E7074901220B7B1342FCD1FC
:101C4000044B986805B03CBC90469946A246AB460A
:101C5000F0BDC04600480041042000000001002003
:101C600090000020060F0000FFF7FFFFFFFBFFFFC3
:101C7000FFFCFFFF0007800000088000FFFF00005E
:101C800010B50400002907DB0A4B18681300220076
:101C9000094CA047002010BD8B1808488342F3D898
:101CA00080231B069C466144054BC9182000054B48
:101CB0009847EFE770000020BD200000A90A0080CF
:101CC000CC2800007D28000010B504000A4B1B68DA
:101CD000002B07D0002A06D1084B18680A00210003
:101CE000074B984710BD8AB2044B1B681868210047
:101CF000044B9847F6E7C0466C00002070000020B7
:101D000075210000E11A000070B5050014001E00E6
:101D100000290DDB174B1B68002B1BD0002E21D197
:101D2000154B186822002900144B9847002070BDFD
:101D30008B18134A9342EDD880231B069C466144BE
:101D4000104BC9182200104B9847002EEED00F4BB5
:101D50009847EBE7084B18680D4B98470122054B55
:101D60001A60DBE7A2B2044B1B6818682900094B14
:101D70009847DBE76C000020700000207521000010
:101D8000A90A0080CC2800007D280000A9190000C5
:101D900031210000E11A0000F8B50C4C0C2120683C
:101DA0000B4B98470B4EB0470B4D69680C392368B5
:101DB00018680A4B984707002068094B9847B047B6
:101DC000A868C01B431E98414042F8BD7000002027
:101DD00031210000B5190000F4010020291B00008A
:101DE0009921000010B5044B1868044B9847002255
:101DF000034B1A6010BDC0467000002099210000FE
:101E00006C000020014B18607047C0467000002035
:101E100010B50A4C802200212000094B9847094B3D
:101E200022689A4206D1054B5B6880208003984265
:101E3000804110BD01204042FBE7C046F401002074
:101E4000811C0000785634122020704710B50C0019
:101E5000002A11D1364B5B6D834247D9013348D0FC
:101E6000334B9A6D00231918890089180422200029
:101E7000304B9847002010BD012A0FD0022A19D0FC
:101E8000032A29D0042A49D1294BDB6C984248D235
:101E9000013349D0264B1A6D0023E4E7264BDB8C37
:101EA000234AD26DC118914226D2013227D0204A4E
:101EB000126ED8E71E4BDB6F0022984201D31E4BF7
:101EC0001A8D13001A49496E12188A421AD24A1CF6
:101ED0001BD0174A926EC6E7154BDB6E984217D29D
:101EE000013318D0124B1A6F0023BCE70120404287
:101EF000C1E701204042BEE701204042BBE701208C
:101F00004042B8E701204042B5E701204042B2E735
:101F100001204042AFE701204042ACE701204042AF
:101F2000A9E701204042A6E701204042A3E7C046BE
:101F3000F4010020811C0000400000200C4B1B68B5
:101F40005B065B0F072B0ED00622D21A80235B00A4
:101F500093401A0A824208D900028022D202944693
:101F60006044C01A70470020FCE70020FAE7C04632
:101F70000040800070B500200E4B9847002816D016
:101F80000D4B186004200B4DA84704000B4B186044
:101F90000120A847E0235B019C4664448023DB02C8
:101FA0009C4200D0FEE7064B1860002070BD012067
:101FB000FCE7C0463D1F000078000020F001002033
:101FC00074000020F8B50C001B4B9847061E32D059
:101FD0001A4B5A6880218A435A6059688022D2027B
:101FE0000A435A60190001220B7D1342FCD04208BB
:101FF000124BDA61124A1A80431CFF339C460F4F82
:1020000001223B7D1342FCD0050040350100914385
:10201000831B9343E35A0B800230A842F6D1280079
:10202000AC45EED1054B5A6880210A435A605A6884
:1020300004490A405A60F8BD3D1F000000400041BD
:1020400002A5FFFFFFFFFBFF10B50C00054B9847F3
:10205000002805D08022520001002000024B984742
:1020600010BDC0463D1F00007D28000000B5C1B076
:1020700069460020054B98470022FC236946CA5058
:102080000020034B984741B000BDC04649200000E6
:10209000C51F0000074B1B68002B08D0FC22985876
:1020A000054B9C46604443425841C0B270470020F3
:1020B000FCE7C04678000020565487ABF0B583B0EB
:1020C00005000F0001921E000379DB0116498C46C2
:1020D0006344816859610B210068144CA047390C96
:1020E000C9B22868A047390AC9B22868A047F9B21E
:1020F0002868A04700212868A047002E0BD0019B2C
:102100001C009C466644094F00212868B84720708F
:102110000134B442F8D12B79AA68DB0102498C461C
:1021200063449A6103B0F0BD004400417D26000085
:1021300070B504000E000379DB010C4A9446634439
:1021400082685A610B210068094DA847310CC9B259
:102150002068A847310AC9B22068A847F1B22068B0
:10216000A84720680021A84770BDC0460044004130
:102170007D260000F8B50600002A09D00C008D1855
:10218000044F00213068B84720700134AC42F8D1C8
:10219000F8BDC0467D26000003798268DB01024954
:1021A0008C4663449A61704700440041F8B50500CD
:1021B0000C000379DB010C498C466344816859614A
:1021C000002A08D0A618094F21782868B84720703F
:1021D0000134A642F8D12B79AA68DB0102498C466A
:1021E00063449A61F8BDC046004400417D2600006A
:1021F00000B583B001A9AB230B700122054B9847B2
:1022000012230093009B5A1E0092002BFAD103B0B8
:1022100000BDC046AD21000030B583B00500114BB4
:10222000984701AC9F23237000236370A370E37071
:102230000422210028000C4B98476378EF2B0BD128
:1022400001AB9B78402B0AD101ABD8781538431EDF
:102250009841404203B030BD01204042FAE70120DE
:102260004042F7E7F1210000AD210000034B1B784D
:10227000002B01D1014B18707047C0460C000020A4
:1022800010B5184B1B695B0528D50120164B9847E4
:10229000144B1B695B070FD4124B1B69DB050BD476
:1022A000104B1B699B0707D40E4B1B695B0503D4BE
:1022B0000C4B1B691B0710D50A4B04221A619A604C
:1022C000FC321A619A60FE3A1A619A608022D2004A
:1022D0001A619A6008221A619A6010BD0320024BAD
:1022E0009847D5E7001800406D220000024B80227D
:1022F00012029A609A6170470044004182B08022C5
:1023000052050D4B5A610D4B0093009B5A1E0092D3
:10231000002BFAD180225205074B9A60074B01939C
:10232000019B5A1E0192002BFAD180221202024B0D
:102330005A6102B07047C0460044004110270000B7
:102340000123024A1360024A137670477C00002082
:1023500000400042F0B5DE4657464E464546E0B5E1
:1023600085B04A4C80231B04A360A36180239B0398
:10237000A3605522A35C0121884601263343A35460
:102380001B3AA35C0E3189460B4030210B43A3540A
:1023900080235B03A3605421635C33436354A35CD9
:1023A00049468B4303210B43A3548023DB03636023
:1023B00063615623E25C04210A43E254E25C324347
:1023C000E2543B22A35C49468B430D390B43A35493
:1023D0002F4F3B6A1B3A13433B62153100202D4BB4
:1023E0009B469847434602930193002300930022A3
:1023F00001212948294DAA46A84780235B02A360F2
:10240000A36180239B02A3605122A35C3343A354A6
:10241000193AA35C0F210B4020210B43A3548023C6
:102420001B03A3601B32A35C3343A3541A3AA35C7F
:102430000F251D400D43A5548023DB0263606361BB
:102440005223E15C04200143E154E15C0E43E65475
:10245000A35C49468B430D390B43A3543B6A313A85
:1024600013433B6213310020D847434602930133A4
:10247000019300930023002201210948D04705B0B1
:102480003CBC90469946A246AB46F0BD0044004194
:1024900000040040A518000000140042ED250000D3
:1024A000000C0042054A137D04210B431375802163
:1024B000C9018023024AD1507047C046001C004227
:1024C00000E100E010B58022D205024B5A60024BB9
:1024D000984710BD00440041A5240000074B5E2230
:1024E000995C012081439954995C022001439954DD
:1024F0008022D2055A605A617047C04600440041AC
:1025000030B52D4B1A682D4B1C682D4B13402D49AF
:102510008B4208D000284CD02B4B1B8B0120404213
:10252000DB0507D530BD294B234029498B42F1D12A
:102530000020F7E7244B586859688025A943596063
:102540005D688021C90229435960198B2025FF3518
:10255000294319831F49D9611F4919801900012393
:102560000D7D1D42FCD0184B198B2025FF352943CA
:1025700019831849D96119490A40FE2109020C4002
:1025800010490A430C490A60114A14430B4A14606B
:10259000134A1A801A000123117D1942FCD00A4BFC
:1025A0005860BFF34F8F0F4A0F4BDA60BFF34F8F66
:1025B000FEE701204042B5E7004080000440800073
:1025C00077FF01FE17A700D800400041FF01FFFF81
:1025D0005A00FFFF0020400005A5FFFF8800FE0114
:1025E00006A5FFFF0400FA0500ED00E070B5160037
:1025F00004AA127805AC2578C9B2017306994C1E5D
:10260000A14101241C4064034B0423430424C169F9
:102610000C42FCD143600221012E02D980239B058C
:10262000194302239E431CD1104B1940104B1940F3
:1026300003231A4012050F4C214011432B401B0469
:102640000D4A114019438023994380331943E43BD9
:102650009943103B19430222C3691A42FCD101601D
:1026600070BD80235B051943E0E7C046FFFFFFEF25
:10267000FFFFFFF0FFFFCFFFFFFFFCFF022303760A
:1026800081620222037E1342FCD0806AC0B270478E
:10269000704770470022034B1A600132024B1A60E8
:1026A0007047C04610E000E010000020F0B583B095
:1026B00000246B46DC71002A0BD000236C46E61D1B
:1026C0003478C55CCF5C7D402C43347001339A4232
:1026D000F6D16B46D879C0B203B0F0BD0C4B1B6885
:1026E000002B06D1EFF31083002B07D00022094BFB
:1026F0001A70074A136801331360704772B6BFF34C
:102700005F8F0022044B1A700132024B1A70F0E7FF
:10271000800000208400002014000020084B1A686C
:10272000013A1A601B68002B09D1064B1B78002B5D
:1027300005D00122044B1A70BFF35F8F62B6704759
:10274000800000208400002014000020FEE700002C
:10275000F8B52A4A2A4B9A4211D01A00294B9A42BC
:102760000DD2294A03339B1A9B0801339B00002298
:10277000234822498C58845004329A42FAD1234A81
:10278000234B9A420AD2D34321495B1803218B433E
:1027900004339B18002102C29342FCD11D4AFF2141
:1027A0001D4B8B439360FD3990235B001B4AD15036
:1027B0001B4AD3780325AB4302242343D370D37839
:1027C0000C27BB4308263343D370164B987B30222B
:1027D0009043202210439873997BB94331439973F6
:1027E0009A7BAA4322439A730F4A536880210B4372
:1027F00053600E4B98470E4B9847FEE79833000006
:10280000000000201800002004000020200000200C
:102810007402002000ED00E00000000000700041A4
:1028200000500041004800410040004135280000B0
:10283000DD14000070B500260C4D0D4C641BA41077
:10284000A64209D1002600F097FD0A4D0A4C641BF0
:10285000A410A64205D170BDB300EB5898470136CD
:10286000EEE7B300EB5898470136F2E784330000F7
:10287000843300008433000088330000002310B547
:102880009A4200D110BDCC5CC4540133F8E7030078
:102890008218934200D1704719700133F9E70000A4
:1028A00001020408102040801B360000F8000000E0
:1028B0001000000004000000E5060000210B0000ED
:1028C000990E000001070000A90900000D01C200D7
:1028D000B30020007E00A100FF0031013101520150
:1028E000530178017801FFFFFFFFFFFFFFFFFFFFAC
:1028F000FFFFFFFFFFFFFFFFFFFFFFFFFFFFFFFFE8
:10290000FFFFFFFFFFFFFFFFFFFFFFFFFFFF0000D5
:102910000100020003000400050006000700080093
:1029200009000A000B000C000D000E000F00100043
:1029300011001200130014001500160017001800F3
:1029400019001A001B001C001D001E001F002000A3
:102950002100220023002400250026002700280053
:1029600029002A002B002C002D002E002F00300003
:1029700031003200330034003500360037003800B3
:1029800039003A003B003C003D003E003F00400063
:102990004100420043004400450046004700480013
:1029A00049004A004B004C004D004E004F005000C3
:1029B0005100520053005400550056005700580073
:1029C00059005A005B005C005D005E005F00600023
:1029D000610062006300FFFF64006500660067003D
:1029E00068006900FFFF6A006B006C006D00FFFF6C
:1029F000FFFF6E006F00700071007200FFFF730038
:102A00007400FFFFFFFFFFFF75007600770078007E
:102A100079007A007B007C007D007E007F008000D2
:102A200081008200830084008500FFFF860087000C
:102A3000880089008A008B00FFFF8C008D008E00CB
:102A40008F009000FFFFFFFF910092009300940021
:102A5000950096009700980099009A009B009C00B2
:102A60009D009E009F00A000A100FFFFA200A30008
:102A7000A400A500A600A700A800A900AA00AB001A
:102A8000AC00AD00FFFFFFFFAE00AF00B000B10033
:102A9000B20007000000FFFFFFFF01080203000073
:102AA000000003030102010000000505000303000C
:102AB0000000050A000207000000050800030E00E0
:102AC00000000508000313000000010302021800C3
:102AD0000000030A010219000000030A01021D00A0
:102AE0000000050500032100000005050005250084
:102AF00000000204010929000000050100072A0066
:102B00000000020202092B000000050A00032C004D
:102B1000000005080003330000000508000338002A
:102B20000000050800033D00000005080003420006
:102B300000000508000347000000050800034C00E2
:102B400000000508000351000000050800035600BE
:102B50000000050800035B0000000508000360009A
:102B6000000002060205650000000208010567007A
:102B700000000407010369000000050300056D0063
:102B80000000040701036F00000005080003730044
:102B900000000508000378000000050800037D0020
:102BA00000000508000382000000050800038700FC
:102BB0000000050800038C000000050800039100D8
:102BC00000000508000396000000050800039B00B4
:102BD000000005080003A000000005080003A50090
:102BE000000005080003AA00000005080003AF006C
:102BF000000005080003B400000005080003B90048
:102C0000000005080003BE00000005080003C30023
:102C1000000005080003C800000005090003CD00FE
:102C2000000005080003D300000005080003D800D9
:102C3000000005080003DD00000005080003E200B5
:102C4000000005080003E700000005080003EC0091
:102C5000000005080003F100000005080003F6006D
:102C6000000005080003FB000000020A0202000148
:102C70000000050A010303010000020A01020A0123
:102C80000000050300030D0100000601000C0F0108
:102C900000000303010210010000050500061201F7
:102CA00000000508000316010000050500061B01D1
:102CB0000000050800031F010000050500062401AF
:102CC00000000408010328010000050700062C018C
:102CD000000005080003310100000308010336016C
:102CE0000000030A000339010000050800033D014C
:102CF000000003080103420100000505000645012C
:102D000000000505000649010000050500064D010B
:102D100000000507000651010000050700065601E6
:102D20000000050500065B010000050500065F01C7
:102D300000000408010363010000050500066701A7
:102D40000000050500066B010000050500066F0187
:102D50000000050500067301000005070006770165
:102D60000000050500067C010000030B0102800144
:102D70000000010A020285010000030B0102870125
:102D80000000050200058C010000010803038E010C
:102D90000000050700058F010000050900029401ED
:102DA0000000050500059A010000050800039E01CA
:102DB0000000050B0001A301000003010103AA01AB
:102DC000000005080003AB01000004070101B00189
:102DD000000005040007B401000005030006B70168
:102DE000000005070003B901000003010103BE0153
:102DF000000004040102BF01000005060004C10137
:102E0000000002020203C501000005070006C6011A
:102E1000000005090002CB01000002020206D101F8
:102E200000000203010AD201000004060101D301DF
:102E3000000005040007D601000005080003D901C1
:102E40000000050A0001DE010000050A0001E5019D
:102E50000000050A0001EC010000050A0001F30171
:102E60000000050A0001FA010000050A0001010244
:102E700000000508000308020000050A00030D0217
:102E80000000050A000114020000050A00011B02EF
:102E90000000050A000122020000050A00012902C3
:102EA0000000050A000130020000050A0001370297
:102EB0000000050A00013E020000050A000145026B
:102EC0000000050A00014C020000050A000153023F
:102ED0000000050A00015A020000050A0001610213
:102EE0000000050A000168020000050A00016F02E7
:102EF00000000508000376020000050A00017B02BD
:102F00000000050A000182020000050A0001890292
:102F10000000050A000190020000050A0002970265
:102F20000000050900029E02000005090002A4023B
:102F3000000005090002AA02000005090002B00213
:102F4000000005080003B602000005090002BB02EC
:102F5000000005050006C102000005070006C502C5
:102F6000000005090002CA02000005090002D002A3
:102F7000000005090002D602000005080003DC027B
:102F8000000003090102E102000003090102E50259
:102F9000000003090102E902000003080103ED0239
:102FA000000005090002F002000005090002F60217
:102FB000000005090002FC020000050900020203EE
:102FC00000000509000208030000050800030E03C5
:102FD00000000505000513030000050500061703A2
:102FE0000000050900021B0300000509000221037F
:102FF00000000509000227030000050800032D0357
:103000000000050A0003320300000305010639032E
:103010000000050800033B0300000505000640030F
:103020000000050A000144030000FDB68057D5F5F5
:103030000023AB4714B571007D6AA336B264A88A39
:10304000564DE02A49244488924950255D5200217A
:103050003E4200F6F8F00844221108840074675CD0
:10306000C62E270842109F744222221F7442608697
:103070002E11952F8847FC21E0862E7421E8C62E5C
:10308000F8422210847462E8C62E746317842EF00E
:10309000F0F0F612484210F83E8421248074421168
:1030A0001004746F5BC20F229518FE31F463E8C6FA
:1030B0003E746108422EF46318C63EFC21E8421FAC
:1030C000FC21E84210746109C62E8C63F8C631F900
:1030D0000842109F084210C62E8CA98C52518421A0
:1030E00008421F8EEB58C6318E6B38C63174631898
:1030F000C62EF463E84210746318C6AE08F463E8A1
:10310000C6317460E0862EF9084210848C6318C6BC
:103110002E8C631528848C631AD7718C62A22A3195
:103120008C63151084F84444421FEAAAB0841082CC
:1031300010420840D5557022A2FC88807C633680FE
:103140008421E8C63E746107800842F8C62F747F68
:103150000780344E44447C631785C08421E8C6311F
:103160004064972032493884212A7251C92497F546
:103170006B5A80B663188074631700F4631F4200B3
:103180007C63178420B66108007C1C1F00444E44F9
:10319000438C6336808C54A200AD6B55008A88A89E
:1031A000808C631785C0F8888F802925124880FF9E
:1031B000C08924524A006D80BF23AB4A3C8064A181
:1031C000C84211F08B94E8808ABE4F9084745349B2
:1031D0004525945CA0E09B18B45C799700F04CA462
:1031E00090F842E0B35AE6C0E06996213E427C6026
:1031F00094A52EC2007D6B5794A528F0D869960F30
:10320000925320200888422E4108A5463F8C401149
:1032100008A5463F8C402280452A3F8C406D88A5FA
:10322000463F8C405008A5463F8C402288A5463F2B
:103230008C407D29EA5297746108422E2200413F5A
:10324000087A1087C0113F087A1087C022BF087A19
:103250001087C0503F087A1087C0413E4210842733
:10326000C0113E42108427C02281F2108427C05032
:103270003E42108427C06DA39ACE318C40411D1868
:10328000C6318B80111D18C6318B802280E8C63173
:103290008B806D9D18C6318B80501D18C6318B8078
:1032A00074675CC62E412318C6318B80112318C663
:1032B000318B80228118C6318B80502318C6318B08
:1032C000803263294631B400208007C6336811007C
:1032D00007C63368228007C633686D8007C6336827
:1032E0005000F8C66D228807C63368756F47807432
:1032F0006107910041000747F07811000747F07817
:1033000022800747F0785000E8FE0F880C92E028F2
:103310000C92E0540C92E0A064976D800B663188AB
:103320004100074631701100074631702280074680
:1033300031706D80074631705000E8C62E203E0285
:103340000074EB9700410008C63368110008C633CB
:1033500068228008C63368500118C66D500118C62F
:103360002F0B80C92E7D296A528F556F45805001E1
:1033700018C5442100000000F8B5C046F8BC08BCE0
:103380009E467047DD000000F8B5C046F8BC08BC9A
:083390009E467047B5000000E5
:10339800001400420000000000008000030000004C
:0833A80001000000010000001B
:040000030000275181
:00000001FF
