:1000000078220020991F0000951F0000951F000016
:1000100000000000000000000000000000000000E0
:10002000000000000000000000000000951F00001C
:100030000000000000000000951F0000F51E0000F9
:10004000951F0000951F0000951F0000951F0000E0
:10005000191B0000951F000001130000951F0000F0
:10006000951F0000951F0000951F0000951F0000C0
:10007000951F0000951F0000351D0000EF1E0000B9
:10008000951F0000F11E0000951F0000951F000045
:10009000951F00000000000000000000BD1B0000D4
:1000A000951F0000951F0000951F0000951F000080
:1000B0000000000010B5064C2378002B07D1054B3B
:1000C000002B02D0044800E000BF0123237010BDC4
:1000D0002000002000000000B42B0000084B10B5E9
:1000E000002B03D00749084800E000BF0748036819
:1000F000002B00D110BD064B002BFBD09847F9E731
:100100000000000024000020B42B0000B42B0000ED
:10011000000000000269C369F0B514009C468168C4
:1001200099B04C400B946446436885695C400594E3
:10013000644654400C9464464C40069444690668F6
:100140006C4066400296564010960B9A059E72408F
:100150000D926246029E7240119232005A40069BF6
:100160000E92534012930D9AC368534059405D401C
:10017000036807914B4013930B00634008930C9B5B
:100180006B400393039A036853401493089B059FA5
:1001900053401593130063400993099A0D9B174030
:1001A0000C9E039A0B40164015990B9A069C0A4028
:1001B000089972400C4066401299139C5D402140A2
:1001C0006940109C056851402540069C6540089C8C
:1001D00065405D400E9C029B75402340059C63403A
:1001E000099C63407B405340624662407A40119CC8
:1001F000149F3C405440744026000F0019404E406C
:1002000032006F403A406A4004921A004D4062400A
:1002100015406540290071400C406B4063407440BC
:1002200021000A93049B0A9A194079404A400F9290
:100230001A002C004A4094462A005C400A9B019513
:100240005A4016920F9F0268049B2A4017926246FA
:10025000099D159E1540029A67400A400292149A21
:100260003E401A4009920A9B129A1A406346129223
:10027000059A1A4094460B9A0E9B3A400C9F0592A1
:1002800027407A400B92099A19404A40169B0799D9
:10029000179F1940634669405F404F400B9B07978B
:1002A000029F0C925F40039B1C4065400F9B089C83
:1002B00075401C406640169B0D9C7E401C40129B66
:1002C000049A5C40119B67401A40079B029C5A406D
:1002D00072400292139B0A9A6C401A4013007B40B2
:1002E00059406F40CD43029A65405440E443C76192
:1002F0008561069F0F9D01612F40059D17996F40F5
:100300006740099CF64361404B40C3600199109BD4
:1003100047610B4012994B405A40634682600C9AE9
:100320000B9953405E40079B46605940C94351407A
:10033000016019B0F0BD00000268F0B516004E4C27
:100340004E49456852086B0022400D402A4385689B
:1003500026400B4033432E00C76887B001926D08DA
:100360007A0026400F400A40254032433D4346690B
:1003700002950569770025400F402F4305690E401F
:100380006D08254035430395C56900936E00856966
:100390000E4025403543866976082640C4692140D1
:1003A0000E43374CB4469600264033003549009E34
:1003B00022400E401E43009B04969B080B401343B3
:1003C0000093029B9A00019B22400B401A43059226
:1003D0003A00019B0A409E08029B0E4023401E43A8
:1003E000AB002340134362460196039E92000E40E9
:1003F00022403243039EBF08B6080F403140664694
:10040000254034402143204C3D431F0127400293A7
:100410003B001E4E049F37403B43049F0360029BFA
:100420003F09374023403B43059F03611301374099
:1004300023403B434360059B22401B0933401A4342
:100440004261009A2B013240234013438360009B9A
:1004500025401A0932401543019A0B0132402340CE
:100460001343C360019B21401B091E40314385613A
:10047000C16107B0F0BDC04655555555AAAAAAAAF4
:10048000CCCCCCCC33333333F0F0F0F00F0F0F0F74
:10049000002310B588B06A4698500433202BFAD157
:1004A0006846054CA0476846044B98476846A047F5
:1004B000009808B010BDC0463903000015010000C7
:1004C000F0B5FFB00590182A06D0202A38D00026B3
:1004D000102A32D10A2600E00C260020731C9B0053
:1004E000029303009408A3422CDB63000393E30010
:1004F000049300231D0006AF00940193009B029A11
:10050000934232DB0025E80006AC2C4B20189847BC
:10051000029B0435AB42F6DC0023294F294DD9005C
:100520006218526809593A4029400A4305999800CF
:100530000A50029A01339A42F1DC30007FB0F0BDDC
:100540000E26CAE79A00575C8A18557890782D02D3
:100550002F4300040743D07806AD0006DA00384385
:1005600050510432A8500133BDE7002D1FD108239C
:10057000D841154B9847154B019A9B5C58403B68F6
:1005800006AA5840049B0135F850039B01339B0099
:100590009850AC4203D10025019B01330193009B8D
:1005A000083701330093039B02330393A6E7062C1D
:1005B000E5DD042DE3D1044B9847E0E73903000063
:1005C000AAAAAAAA5555555591040000BE200000BC
:1005D0000131F0B50901094D094E51188A4200D187
:1005E000F0BD08CA1F002F407C003C43334004602C
:1005F0005C08234343600830F0E7C0465555555525
:10060000AAAAAAAA0B0A017043700B0C090E8370E8
:10061000C17070470B0E03700B0C43700B0A837094
:10062000C1707047437802781B021A438378C07800
:100630001B041343000618437047037842781B06D7
:1006400012041343C27880781343000218437047A2
:1006500000BA7047002330B59A4200D130BDCC5C5F
:10066000C55C6C40C4540133F6E70000044B10B580
:10067000040008C0034B9847F434206010BDC04606
:10068000C8200000C1040000F0B55D4CA5440A93E9
:100690000300F433059003910B921968021D594B26
:1006A0001CA89847584C0398A047039B029004331A
:1006B00018000693A047039B060008331800079311
:1006C000A047039B05000C3318000893A0470400C3
:1006D0000A9B0193019A0A9B9B1A0B9AD3180993C0
:1006E000019B002B71D0494F0298B8470C90300005
:1006F000B8470E902800B84710902000B847631CF8
:1007000004932300621C9343DB0FED186A1EAA4377
:10071000D2171340F618721EB243D2171340029A32
:100720001290D31818000293B8470D903000B847C4
:100730000F902800B8471190601CB847019B139098
:10074000102B15D9A31C049302235B421C1B049B92
:100750001C43E443E40F2D196B1EAB43DB171C4015
:100760003619731EB343DB171C40029B1B190293FF
:10077000274C0CA8A047059B0CAAF4331CA91868A9
:10078000244B98470CA8A047234C0C9914A8A047C9
:100790000E9915A8A047109916A8A047129917A856
:1007A000A0470D9918A8A0470F9919A8A04711991B
:1007B0001AA8A04713991BA8A047019A174B202AF3
:1007C00014D814A909989847049C154F02990398C6
:1007D000B84731000698B84729000798B847210064
:1007E0000898B84795239B009D44F0BD202214A98A
:1007F00009989847019B049C203B01936AE7C046F7
:10080000ACFDFFFFD10500003B06000051060000D3
:1008100039030000910D0000050600005506000098
:1008200015060000F0B5344CA54409930300F433D9
:100830000490019108921968021D304B12A8984744
:100840002F4C0198A047019B070004331800059323
:10085000A047019B0600083318000693A047019BA0
:1008600002900C3318000793A0470023089C0390C4
:100870000B930D930F931193099B089AE31A9342DC
:1008800010D1204C39000198A04731000598A047AD
:1008900002990698A04703990798A0478B239B00CD
:1008A0009D44F0BD164D2000A8474740201D0A97E3
:1008B000A8474640200008300C96A847029B4340BA
:1008C00020000C300E93A847039B0F4D43400AA80D
:1008D0001093A847049B0AAAF433186812A90B4B7B
:1008E00098470AA8A8470E9B0A9F0293109B0C9E4C
:1008F00003931034C0E7C046D4FDFFFFD1050000CC
:10090000250600000506000039030000910D0000D7
:10091000F0B51D000300834CF433A5440A90069102
:1009200007921968021D804B20A898477F4E0698B1
:10093000B047069B0890043318000C93B047069B01
:100940000390083318000D93B047069B04900C33B6
:1009500018000E93B047764E05900798B047079B56
:100960000400043318000F93B047079B029008332C
:1009700018001093B047079B07000C331800119321
:10098000B047059B0600DB430993012301950B93B8
:100990009E9B002B00D195E0664D0898A8471890C3
:1009A0000398A8471A900498A8471C900598A84750
:1009B000059B614D01330593059A099B1E901343D6
:1009C000DB43049ADB0FD21804920499013A8A435C
:1009D000D2171340039A18A8D21803920399013A28
:1009E0008A43D2171340089A1994D3180893029B8C
:1009F0001D971B931F96A8470A9B18AAF43320A99A
:100A0000186816934D4B984718A8A847484D019869
:100A1000A847189B434012931893019B0433180076
:100A20001393A8471A9B5840019B1A90083318004B
:100A30001493A8471C9B5840019B1C900C33180032
:100A40001593A8471E9B3E4D58401E901299019841
:100A50001793A8471A991398A8471C991498A84760
:100A60001E991598A847019B0B99103301939E9BE3
:100A7000189A103B9E931A9B002941D05440029A29
:100A80005A401C9B02920B935F401E9B5E40099B49
:100A9000013B09939E9B002B42D1029B189418A8FE
:100AA000254C1A931C971E96A047169B18AA1868E7
:100AB00020A9224B984718A8A0471A9B189C1C9F56
:100AC0001E9E02931F4D08990698A84703990C98FB
:100AD000A84704990D98A84705990E98A8472100A2
:100AE0000798174CA04702990F98A0473900109813
:100AF000A04731001198A04799239B009D44F0BD69
:100B000019991F9E0C0054401B9A5A401C9B02923C
:100B10000B930B9F1D9B1E9A12935F405640B6E7A6
:100B2000002334E79CFDFFFFD10500003B060000D9
:100B3000250600005106000039030000910D000059
:100B40000506000015060000F0B5614CA5441193A0
:100B50000300F4330A90029103921968021D5D4B61
:100B60001EA898475C4C0298A047029B049004334F
:100B700018000B93A047029B0190083318000C93B8
:100B8000A047029B07000C3318000D93A047534C5D
:100B900006000398A047039B0590043318000E93AA
:100BA000A047039B0690083318000F93A047039BB0
:100BB00007900C3318001093A047F343119C089042
:100BC00009939C9B119AE31A93421DD1444C0499BA
:100BD0000298A04701990B98A04739000C98A047AC
:100BE00031000D98A0473F4C05990398A0470699FE
:100BF0000E98A04707990F98A04708991098A0470A
:100C000097239B009D44F0BD374D0498A84716904C
:100C10000198A84718903800A8471A903000A847B4
:100C2000099B01363343DB43DB0FFF187A1EBA43BF
:100C3000D2171340019A294DD21801920199013A15
:100C40008A43D2171340049A1C90D31820000493AF
:100C5000A847059B4340201D1793A847069B434088
:100C6000200008301993A847079B434020000C3010
:100C70001B93A847089B1D4D434016A81D93A847EA
:100C80000A9B16AAF4331EA91868194B984716A890
:100C9000A847144D169912A8A847189913A8A84751
:100CA0001A9914A8A8471C9915A8A8472000114B09
:100CB000102212A99847179B10340593199B06938D
:100CC0001B9B07931D9B0893099B013B099378E7A6
:100CD000A4FDFFFFD10500003B0600002506000033
:100CE000150600000506000051060000390300004B
:100CF000910D0000550600000A6803685340036028
:100D00004A684368534043608A68836853408360FD
:100D1000CA68C3685340C3600A69036953400361EA
:100D20004A694369534043618A69836953408361D7
:100D3000CB69C2695340C36170470300F7B5FC2714
:100D4000C026FF2520330193BF0136020368F0243B
:100D50009A08990131403A400A43190029400A4350
:100D6000240319092140F0240A43240419012140D5
:100D7000C0240A43A40499099B0021409B0E9B06B2
:100D80000A431A43019B04C08342DFD1F7BD000030
:100D9000F0B58BB00990444B1000029114009847B5
:100DA0000123082510260193019A09993F4B200041
:100DB0008A420CD3984720003D4B9847099B20005E
:100DC0005901029B5918384B98470BB0F0BD984712
:100DD0002000374B98476268E169EA419446A2686F
:100DE0002068EA410392E2680300EA410492226922
:100DF000EB41EA41059262690F00EA410692A2695D
:100E00005840EA4107920A00EA41574008977B4060
:100E10000700F7417B402360634667685F405340AB
:100E20004B4043403800F04143406360A068039B5F
:100E300058405F400300F3415F40A760049BE768B0
:100E40005F4053404B4058403B00F3414340E36018
:100E50002069059B584053404B407B4019000300DC
:100E6000F3414B4023616169069B594058400B0098
:100E7000F34158406061079BA06959405840030006
:100E8000F3415940A161089B4240F3415A40019B04
:100E9000E2615901029B20005918034B9847019BBE
:100EA0000133019380E7C046F90C000015010000F2
:100EB0003B0D0000802380B5DB0100AF1A6882F390
:100EC0000888034A9360034B1B689847BD4680BD62
:100ED00000ED00E004400000F0B5B54CB54BA54472
:100EE0009847B54B9847B54B09930998431E09930A
:100EF0000028FAD1B24B9847002801D0B14B98474F
:100F0000B14B9847002802D0B04B9847FEE7B04B52
:100F10009847002801D1AB4B9847AE4CAE4B200010
:100F20009847AE4B9847AE4B9847AE4B200098473A
:100F3000431C03D1AC4B9847A24B9847AB4B984707
:100F4000AB4B04220AA900209847431C03D1A64BAF
:100F500098479C4B9847A74B04220A990BA898479F
:100F60000A9B04330A93A44B9847431C03D19E4B1E
:100F70009847944B9847A14B9847A14C20220021B9
:100F800018A8A047102200210CA8A0472022002169
:100F900020A8A04780229B4C00266368934363608F
:100FA00080236268DB0213436360202220A928A803
:100FB000954B984710220021914B14A89847934BCA
:100FC00098478022019001230100914D520066A8AC
:100FD000A84780230025DB0104930595009566ABA7
:100FE0000693A6AB5AE08023019A9B039B1A0293B7
:100FF0001A0080235B009A4200D90293854B9847E0
:101000000028FBD0039A66AB9A421ED180210122B0
:1010100003984900804B9847069A029B14A928A878
:101020007E4FB847059A2A4314D1019902980A9B2A
:101030000918994200D8B4E001995B1A002E0ED02D
:10104000012E4ED0012505921CE08021012249008D
:10105000A6A8DFE7002E3FD1002D13D03300029A5F
:1010600000998F18FB1A0093009A0B9B9A4200D2AA
:101070008DE06B4B102214A910A89847012300257E
:1010800005932E00029A019B9446039A63440193B0
:1010900066AB9A4200D182E0A6AA06920393019A17
:1010A000604B9A429FD95B4B98470028FBD0013692
:1010B0005D4BB6B29847012E00D176E70123227D21
:1010C0001A42FCD0484B9847BFF34F8F574A584BB2
:1010D000DA60BFF34F8FFEE7012ED3D1002DD1D0C0
:1010E0000023029A009952085B0807925A00521A8C
:1010F00006993F258C46944401224E48079EB342F0
:1011000001D30125BDE7FF21049E0E4206D1267DB5
:101110001642FCD0049E7608E6612080049E2E4292
:1011200002D1267D1642FCD067460099049E7F5A64
:10113000964337800E0002360096049E009F0236CA
:1011400004960B9EB74220D3102214A910A83A4B44
:10115000984700281ED0802263680125934363606E
:1011600080236268DB021A43626080223149D20127
:10117000207D2842FCD050080132FF32E0612180FE
:101180009A42F5D1114B9847FEE70133B6E70125A6
:10119000002677E7012305000593212672E7039BCC
:1011A0001EE71500002E00D06CE73500059669E7B4
:1011B00064FCFFFF751B00004D1D0000A0860100B0
:1011C000711D0000B50E000059180000851B0000BD
:1011D0006D190000000000203517000061120000AA
:1011E000D11B0000C51A000049190000411700007A
:1011F00079170000BD150000C91600004D1300004E
:10120000AF200000004000416D060000751700008F
:101210003D160000311400000116000025080000F2
:101220009D200000FFFF1F00151700000400FA05B5
:1012300000ED00E002A5FFFF0D1F00003F23194055
:10124000303B1840000201438020044AC0010143A2
:1012500053785BB2002BFBDB51807047000C0040E1
:101260001E2220494B6893431A00022313434B600C
:101270001D4B18005A7852B2002AFBDB01221A706B
:1012800043785BB2002BFBDB012302781A42FCD1CE
:10129000164B17491A6A1140802212060A431A6235
:1012A0001022D9681142FCD000229A84114A116898
:1012B000114A890E126889029205920D0A439A62B8
:1012C0001022D9681142FCD002229A84CE32D96809
:1012D0001142FCD143785BB2002BFBDB074B436030
:1012E0007047C04600400041000C0040000800402C
:1012F000BFFCFF3F246080002860800000070900D9
:1013000001210222044B1970044B1878104202D0BC
:10131000034801601A7070473F4800414E48004141
:101320003C0000200122014B1A6070473C00002065
:101330000022054B1A801A88002AFCD101321A803B
:101340001A88002AFCD1704700480041F0B5802679
:101350002F4B304A30497600536302259163802435
:101360003100A40029430C438021C9000C43802193
:1013700009010C4314802A2418209473274F293C18
:1013800026433E4356611C821E8A254FF604F60C06
:101390001E821E8A3E401E821E8A224F0E431E82DD
:1013A0001E8A3E401E821E8A8643B4460826604638
:1013B000064300201E821600D8611B483F36347059
:1013C00050644D2084469444604605701C841C8CF7
:1013D000E404E40C1C848024188C64010443802001
:1013E0001C841C8CC000204318241884188C0740CF
:1013F0001F84188CA04318840020D86280231B040B
:101400001943357051644022084B1A60F0BDC04644
:101410000001002000480041900000200000010170
:10142000FFEFFFFFFFFCFFFF0007800000E100E08F
:101430000020034B1A68824201D0186001307047C7
:101440003C00002070B5060014000D000C4B9847BE
:101450000C4A30001600291901250B4B28303F3665
:101460005C8240325861996135706D1915705C84E9
:10147000986259623570054B1570984770BDC0462B
:10148000311F00000048004100010020651F0000DE
:10149000F0B5002587B004ABDD713A4A3A4B2830ED
:1014A0000091019053800123012418265B42936030
:1014B0003649374B37485363916337498446118027
:1014C0001C801988354FC904C90C19801988394006
:1014D0001980198801401980198831480140198004
:1014E00019883048B14319802F49DD600D70506470
:1014F0001C82188AC004C00C1882188A07401F82F8
:101500006746188A38401882188A254F3840188252
:10151000188AB04318822548DD610C70506402209F
:1015200002920394009A002A07D10123029A117BA8
:101530001942FBD1906807B0F0BD009C1C4DAC4235
:1015400000D92C00A5B2AC465D80019D62465D606D
:1015500004ADEF1D0025174E9F600D7030705A824C
:10156000019A9A616A46127B5F610A7030700D7051
:10157000114D2E780642FCD02870009A121B009262
:10158000D0E7C04600480041042000009000002041
:1015900000010020FFFBFFFF060F0000FFF7FFFF29
:1015A000FFFCFFFF000780003F480041000880006B
:1015B000FFFF0000404800414E48004110B500299F
:1015C0000CDA0A4C8B18A34208D880231B06C918D2
:1015D000074BC918074B9847002010BD13000200A5
:1015E0000548064C0068A047F6E7C046A90A0080F7
:1015F000E82000009D200000700000208D190000F0
:1016000010B50A4B1B68002B08D0094B002A06D0E6
:101610001B688AB201001868064B984710BD0A0083
:1016200001001868044B9847F8E7C0466C0000209A
:101630007000002045140000311A0000F7B50600C4
:1016400014000193002912DA8B18164A93420ED81F
:1016500080231B06C918144B2200C918134B984746
:10166000019B002B01D0124B98470020FEBD114F6B
:10167000114D3B68002B04D1104B2868984701237B
:101680003B60019B002B06D02B68A2B2186831008A
:101690000B4B9847E9E7220031002868094B98472F
:1016A000E3E7C046A90A0080E82000009D20000072
:1016B000251300006C00002070000020F1190000CC
:1016C00045140000311A0000F8B50C4C0C212068BC
:1016D0000B4B98470B4FB8470B4D23686968186848
:1016E0000C390A4B98470600094B20689847B847C1
:1016F000A868801B431E98414042F8BD700000203E
:10170000F119000031130000F401002091140000D1
:10171000511A000010B5044B1868044B984700227A
:10172000034B1A6010BDC04670000020511A000023
:101730006C000020014B18607047C046700000200C
:1017400010B5094C8022094B002120009847084B16
:1017500022689A4205D180206368800398428041C4
:1017600010BD01204042FBE7F4010020BD15000040
:10177000785634122020704770B50C00002A11D121
:10178000254D696D814244D90B00013108D0AB6D04
:1017900011188900C9180422204B20009847002303
:1017A000180070BD012A0BD11D4B1B4DDA8CE96D61
:1017B00083188B422DD20B000131F1D02B6EE7E75D
:1017C000022A0FD1144D0022EB6F984201D3144B23
:1017D0001A8D696E13188B421BD20B000131DFD0BA
:1017E000AB6ED5E7032A09D10B49CA6E904210D2DD
:1017F00013000132D4D00B6F0022C9E7042A08D1AC
:101800000549CA6C904204D213000132C8D00B6D56
:10181000F2E701235B42C3E7F4010020BD1500009D
:10182000400000200B4B00221B685B065B0F072B60
:101830000DD00632D21A80235B0093400022190A91
:10184000814204D980220002D2028018C21A1000FC
:101850007047C0460040800070B500200D4DA8477D
:10186000002814D00C4B18600420A8470B4B040030
:1018700018600120A847E0235B01E4188023DB0205
:101880009C4203D1064B1860002070BDFEE701208A
:10189000FBE7C0462518000078000020F00100207A
:1018A00074000020F7B51C4B01919847002831D0F7
:1018B00080211A4B5A688A435A6080225968D202A2
:1018C0000A435A600122197D1142FCD04208DA61B4
:1018D000134A01211A800200471CFF371D7D0D426B
:1018E000FCD01600403615008D43AC46019C151AFD
:1018F0008D43655B6446023225809642F3D1320007
:10190000B742EBD1802259680A435A605A680549A8
:101910000A405A60F7BDC04625180000004000414B
:1019200002A5FFFFFFFFFBFF10B5054B0C0098471A
:10193000011E04D0802220005200024B984710BDA7
:10194000251800009D20000000B5C1B069460020A8
:10195000044B984700206946034B3F90984741B09D
:1019600000BDC04629190000A5180000054B1B68E2
:10197000181E06D0FC331868034BC0184342584168
:10198000C0B2704778000020565487ABF7B50F00FF
:101990000400150001930379134ADB019B18826848
:1019A000124E5A610B210068B047390CC9B2206849
:1019B000B047390AC9B22068B047F9B22068B047C9
:1019C00000212068B047019BEF18BD4206D1237962
:1019D0000549A268DB015B189A61F7BD0021206808
:1019E000B04728700135F0E700440041DD1E0000DB
:1019F00070B50E00040003790B4ADB019B18826866
:101A00000A4D5A610B210068A847310CC9B2206801
:101A1000A847310AC9B22068A847F1B22068A84790
:101A200000212068A84770BD00440041DD1E000071
:101A300070B506000C008D18AC4200D170BD0021BD
:101A40003068024B984720700134F5E7DD1E000036
:101A5000037903498268DB015B189A617047C046CD
:101A60000044004170B50C00050003790A49DB0110
:101A70005B188168A6185961B44206D12B790649D2
:101A8000AA68DB015B189A6170BD21782868034B56
:101A9000984720700134EFE700440041DD1E00004C
:101AA00007B5AB236A4669461370054B0122984778
:101AB00012230193019B5A1E0192002BFAD107BDFC
:101AC000651A000037B50E4B050098479F2301ACFF
:101AD0002370002304226370A370E3702100094B7C
:101AE000280098476378EF2B08D1A378402B05D1C5
:101AF000E0781538431E984140423EBD0120FBE787
:101B0000A11A0000651A0000024B1A78002A00D1C1
:101B1000187070470C00002010B5144C144B22694B
:101B20000120520500D40320984723695B070BD49A
:101B30002369DB0508D423699B0705D423695B056A
:101B400002D423691B070FD504232361A360FC3350
:101B50002361A360FE3B2361A3608023DB0023613C
:101B6000A36008232361A36010BDC0460018004095
:101B7000091B00008022024B12029A609A61704792
:101B80000044004113B580210A4B0B4A49055961B5
:101B900000920098441E00940028FAD199600192A6
:101BA000019A511E0191002AFAD1802212025A6133
:101BB00013BDC04600440041102700000123024A23
:101BC0001360024A137670477C00002000400042F8
:101BD0008023F0B54A4C1B04A360A361802322003C
:101BE00001259B03A3605532137800262B43137005
:101BF00023000F223A33197885B0114021320A436D
:101C00001A70802221005203A26054310A78002009
:101C10002A430A700F22197891430C3A0A431A702A
:101C20008023DB03636063612300042156331A7849
:101C30000A431A701A780B312A431A7022003B3279
:101C400013788B430D390B43137020222D4B153124
:101C50001B6A13432B4A13622B4B98473300320005
:101C600029000295019500962848294FB8478023FE
:101C70005B02A360A361802322000F219B02A3606B
:101C800051321378193A2B435376137830000B40B6
:101C900011310B43137080231B03A360D37E1139D2
:101CA0002B43D376521913780B4011310B43137029
:101CB0008023DB0263606361523423781C390B4359
:101CC000237023780B312B43237013788B430D390A
:101CD0000B4313700B4B13311A6A08231343094A41
:101CE0001362094B98470223029501930093320037
:101CF000330029000748064CA04705B0F0BDC04698
:101D000000440041000400403D1200000014004265
:101D1000551E0000000C00420423044A117D0B43B1
:101D200013758022024BD201DA677047001C004213
:101D300004E100E0802210B5024BD2055A60024B4C
:101D4000984710BD00440041191D0000074A0120BA
:101D500013005E331978814319700221187801430A
:101D600019708023DB0553605361704700440041C4
:101D7000F0B52B4D2B492F682B4B2C4E85B00C68A2
:101D80003B400291B34204D1294B2A4A234093425B
:101D900040D0002841D00120274B40421A8BD20569
:101DA00039D45A68813001925A68244982435A6072
:101DB00080225868D20202435A602022188BFF32D8
:101DC000104318831E48D861198003900120197DA3
:101DD0000142FCD0188B02431A83039ADA61194A34
:101DE0001740FE22120214403E43124A2E60144352
:101DF000029A1460144A1A800122197D1142FCD003
:101E0000019A5A60BFF34F8F104A114BDA60BFF34B
:101E10004F8FFEE7002005B0F0BD01204042FAE7F9
:101E2000004080000440800077FF01FE17A700D823
:101E3000FF01FFFF5A00FFFF0040004105A5FFFF23
:101E4000002040008800FE0106A5FFFF0400FA05FF
:101E500000ED00E070B50C00E4B20473069C04A928
:101E6000661EB44101261E406304042405AD7603BA
:101E700009782D783343C6692642FCD1436002239A
:101E8000012A1CD8002A1FD1114A13400322114CE9
:101E90001140090523400B430F492A4012040B400F
:101EA00013438022934392181343E43A9343103A26
:101EB00013430A3AC1691142FCD1036070BD80240A
:101EC000A4052343022ADFD0802252051343DDE715
:101ED000FFFFFFEFFFFFCFF0FFFFFCFF02230376C2
:101EE0008162027E1A42FCD0806AC0B2704770479D
:101EF000704700000022034B1A60034B01321A6046
:101F00007047C04610E000E010000020F7B56B46B7
:101F1000DC1D00232370934202D12078C0B2FEBDA5
:101F2000C65CCF5C25787E40354325700133F2E7EF
:101F3000094B196800290BD1EFF31080074A0028DC
:101F400005D172B6BFF35F8F05490870012111708A
:101F50001A6801321A607047800000208400002057
:101F600014000020084B1A68013A1A601B68002B05
:101F700009D1064B1B78002B05D00122044B1A70A7
:101F8000BFF35F8F62B6704780000020840000209E
:101F900014000020FEE700002148224970B5884265
:101FA00004D00023204CCA18A24232D300211F4B78
:101FB0001F4A934231D3FF211E4B1F4A8B4393602C
:101FC00002220C25082430261C4B1D485A62C37877
:101FD000FC398B431343C370C378AB432343C370B3
:101FE000184B987BB0430600202030439873987BB1
:101FF000A84304439C73987B884302439A738023CD
:10200000114A51680B435360104B9847104B984747
:10201000FEE7C55804331560C5E702C3C9E7C046EB
:10202000B42B000000000020180000202000002039
:10203000740200200000000000ED00E0FC70004190
:102040000050004100480041004000415520000080
:10205000D90E000070B500260C4D0D4C641BA41069
:10206000A64209D1002600F095FD0A4D0A4C641BDA
:10207000A410A64205D170BDB300EB5898470136B5
:10208000EEE7B300EB5898470136F2E7A02B0000CB
:10209000A02B0000A02B0000A42B0000002310B5F3
:1020A0009A4200D110BDCC5CC4540133F8E7030060
:1020B0008218934200D1704719700133F9E7010289
:1020C0000408102040801B36F800000010000000BB
:1020D000040000006D06000011090000490B00001B
:1020E00089060000250800000D01C200B300200091
:1020F0007E00A100FF00310131015201530178013E
:102100007801FFFFFFFFFFFFFFFFFFFFFFFFFFFF64
:10211000FFFFFFFFFFFFFFFFFFFFFFFFFFFFFFFFCF
:10212000FFFFFFFFFFFFFFFFFFFF000001000200B6
:1021300003000400050006000700080009000A006B
:102140000B000C000D000E000F001000110012001B
:1021500013001400150016001700180019001A00CB
:102160001B001C001D001E001F002000210022007B
:1021700023002400250026002700280029002A002B
:102180002B002C002D002E002F00300031003200DB
:1021900033003400350036003700380039003A008B
:1021A0003B003C003D003E003F004000410042003B
:1021B00043004400450046004700480049004A00EB
:1021C0004B004C004D004E004F005000510052009B
:1021D00053005400550056005700580059005A004B
:1021E0005B005C005D005E005F00600061006200FB
:1021F0006300FFFF64006500660067006800690017
:10220000FFFF6A006B006C006D00FFFFFFFF6E00B8
:102210006F00700071007200FFFF73007400FFFF19
:10222000FFFFFFFF750076007700780079007A00E5
:102230007B007C007D007E007F00800081008200AA
:10224000830084008500FFFF8600870088008900E6
:102250008A008B00FFFF8C008D008E008F009000A5
:10226000FFFFFFFF910092009300940095009600FD
:102270009700980099009A009B009C009D009E008A
:102280009F00A000A100FFFFA200A300A400A500E2
:10229000A600A700A800A900AA00AB00AC00AD00F2
:1022A000FFFFFFFFAE00AF00B000B100B2000700BB
:1022B0000000FFFFFFFF010802030000000003030E
:1022C0000102010000000505000303000000050AEB
:1022D000000207000000050800030E0000000508CA
:1022E0000003130000000103020218000000030AAB
:1022F000010219000000030A01021D00000005058B
:10230000000321000000050500052500000002046F
:10231000010929000000050100072A00000002024F
:1023200002092B000000050A00032C00000005082C
:102330000003330000000508000338000000050812
:1023400000033D00000005080003420000000508EE
:10235000000347000000050800034C0000000508CA
:1023600000035100000005080003560000000508A6
:1023700000035B0000000508000360000000020687
:10238000020565000000020801056700000004075F
:10239000010369000000050300056D00000004074B
:1023A00001036F000000050800037300000005082A
:1023B000000378000000050800037D000000050808
:1023C00000038200000005080003870000000508E4
:1023D00000038C00000005080003910000000508C0
:1023E000000396000000050800039B00000005089C
:1023F0000003A000000005080003A5000000050878
:102400000003AA00000005080003AF000000050853
:102410000003B400000005080003B900000005082F
:102420000003BE00000005080003C300000005080B
:102430000003C800000005090003CD0000000508E6
:102440000003D300000005080003D80000000508C1
:102450000003DD00000005080003E200000005089D
:102460000003E700000005080003EC000000050879
:102470000003F100000005080003F6000000050855
:102480000003FB000000020A020200010000050A2E
:10249000010303010000020A01020A010000050312
:1024A00000030D0100000601000C0F0100000303F2
:1024B00001021001000005050006120100000508D8
:1024C000000316010000050500061B0100000508B9
:1024D00000031F0100000505000624010000040898
:1024E000010328010000050700062C010000050873
:1024F0000003310100000308010336010000030A54
:10250000000339010000050800033D010000030835
:102510000103420100000505000645010000050514
:10252000000649010000050500064D0100000507F1
:1025300000065101000005070006560100000505D0
:1025400000065B010000050500065F0100000408AD
:102550000103630100000505000667010000050591
:1025600000066B010000050500066F01000005056F
:10257000000673010000050700067701000005054D
:1025800000067C010000030B010280010000010A2B
:10259000020285010000030B010287010000050211
:1025A00000058C010000010803038E0100000507EF
:1025B00000058F01000005090002940100000505D7
:1025C00000059A010000050800039E010000050BAC
:1025D0000001A301000003010103AA010000050896
:1025E0000003AB01000004070101B0010000050475
:1025F0000007B401000005030006B701000005074D
:102600000003B901000003010103BE01000004043E
:102610000102BF01000005060004C1010000020222
:102620000203C501000005070006C60100000509F8
:102630000002CB01000002020206D10100000203E9
:10264000010AD201000004060101D30100000504C3
:102650000007D601000005080003D9010000050AA3
:102660000001DE010000050A0001E5010000050A85
:102670000001EC010000050A0001F3010000050A59
:102680000001FA010000050A00010102000005082E
:10269000000308020000050A00030D020000050AFD
:1026A000000114020000050A00011B020000050AD7
:1026B000000122020000050A000129020000050AAB
:1026C000000130020000050A000137020000050A7F
:1026D00000013E020000050A000145020000050A53
:1026E00000014C020000050A000153020000050A27
:1026F00000015A020000050A000161020000050AFB
:10270000000168020000050A00016F0200000508D0
:10271000000376020000050A00017B020000050AA2
:10272000000182020000050A000189020000050A7A
:10273000000190020000050A00029702000005094E
:1027400000029E02000005090002A4020000050923
:102750000002AA02000005090002B00200000508FC
:102760000003B602000005090002BB0200000505D7
:102770000006C102000005070006C50200000509A9
:102780000002CA02000005090002D002000005098B
:102790000002D602000005080003DC020000030965
:1027A0000102E102000003090102E5020000030941
:1027B0000102E902000003080103ED02000005091F
:1027C0000002F002000005090002F60200000509FF
:1027D0000002FC02000005090002020300000509D6
:1027E000000208030000050800030E0300000505B1
:1027F0000005130300000505000617030000050986
:1028000000021B0300000509000221030000050966
:10281000000227030000050800032D030000050A3D
:102820000003320300000305010639030000050818
:1028300000033B0300000505000640030000050AF5
:10284000000144030000FDB68057D5F50023AB47D7
:1028500014B571007D6AA336B264A88A564DE02A89
:1028600049244488924950255D5200213E4200F699
:10287000F8F00844221108840074675CC62E27080B
:1028800042109F744222221F744260862E11952F9F
:102890008847FC21E0862E7421E8C62EF8422210DB
:1028A000847462E8C62E746317842EF0F0F0F6127A
:1028B000484210F83E842124807442111004746F41
:1028C0005BC20F229518FE31F463E8C63E746108BE
:1028D000422EF46318C63EFC21E8421FFC21E84268
:1028E00010746109C62E8C63F8C631F90842109F36
:1028F000084210C62E8CA98C5251842108421F8E8A
:10290000EB58C6318E6B38C631746318C62EF4632B
:10291000E84210746318C6AE08F463E8C631746008
:10292000E0862EF9084210848C6318C62E8C63153D
:1029300028848C631AD7718C62A22A318C6315109B
:1029400084F84444421FEAAAB0841082104208402E
:10295000D5557022A2FC88807C6336808421E8C62D
:102960003E746107800842F8C62F747F0780344E9A
:1029700044447C631785C08421E8C63140649720B5
:1029800032493884212A7251C92497F56B5A80B68E
:1029900063188074631700F4631F42007C6317841C
:1029A00020B66108007C1C1F00444E44438C6336F3
:1029B000808C54A200AD6B55008A88A8808C631768
:1029C00085C0F8888F802925124880FFC08924524D
:1029D0004A006D80BF23AB4A3C8064A1C84211F01D
:1029E0008B94E8808ABE4F90847453494525945C4B
:1029F000A0E09B18B45C799700F04CA490F842E0FA
:102A0000B35AE6C0E06996213E427C6094A52EC28E
:102A1000007D6B5794A528F0D869960F925320201B
:102A20000888422E4108A5463F8C401108A5463F24
:102A30008C402280452A3F8C406D88A5463F8C40C3
:102A40005008A5463F8C402288A5463F8C407D29F2
:102A5000EA5297746108422E2200413F087A10879B
:102A6000C0113F087A1087C022BF087A1087C05073
:102A70003F087A1087C0413E42108427C0113E4271
:102A8000108427C02281F2108427C0503E42108457
:102A900027C06DA39ACE318C40411D18C6318B8062
:102AA000111D18C6318B802280E8C6318B806D9D48
:102AB00018C6318B80501D18C6318B8074675CC678
:102AC0002E412318C6318B80112318C6318B8022EA
:102AD0008118C6318B80502318C6318B8032632910
:102AE0004631B400208007C63368110007C633683A
:102AF000228007C633686D8007C633685000F8C669
:102B00006D228807C63368756F478074610791002E
:102B100041000747F07811000747F0782280074707
:102B2000F0785000E8FE0F880C92E0280C92E054F8
:102B30000C92E0A064976D800B66318841000746D7
:102B400031701100074631702280074631706D8068
:102B5000074631705000E8C62E203E020074EB9705
:102B600000410008C63368110008C6336822800897
:102B7000C63368500118C66D500118C62F0B80C9A6
:102B80002E7D296A528F556F4580500118C544210A
:102B900000000000F8B5C046F8BC08BC9E4670476F
:102BA000DD000000F8B5C046F8BC08BC9E46704782
:042BB000B50000006C
:102BB4000014004200000000000080000300000038
:082BC400010000000100000007
:0400000300001F9941
:00000001FF
