:08000000640000200102000071
:1002000080B500AF084A536880210B4353608023B8
:100210009B011A6882F30888044A9360044B1B68A8
:100220009847BD4680BDC0460040004100ED00E05B
:0402300004200000A6
:10200000584A00203574000031740000317400001B
:1020100000000000000000000000000000000000C0
:10202000000000000000000000000000317400000B
:102030000000000000000000317400003174000056
:1020400031740000317400003174000031740000FC
:10205000615E00003174000029340000317400001A
:1020600031740000317400003174000031740000DC
:10207000317400003174000031740000F17200000E
:1020800031740000317400003174000031740000BC
:10209000317400000000000000000000AD5E000090
:1020A000317400003174000031740000317400009C
:1020B0000000000010B5064C2378002B07D1054B1B
:1020C000002B02D0044800E000BF0123237010BDA4
:1020D000E02200200000000074940000084B10B5BE
:1020E000002B03D00749084800E000BF07480368F9
:1020F000002B00D110BD064B002BFBD09847F9E711
:1021000000000000E4220020749400007494000099
:1021100000000000F8B505000C000379DB010C4954
:102120008C46634481685961002A08D0A618094F7B
:1021300021782868B84720700134A642F8D12B795D
:10214000AA68DB0102498C4663449A61F8BDC04627
:10215000004400411D68000070B582B0040001A970
:102160000B4D2B880B8002220A4B9847AB886A469E
:1021700013805B040AD5074EA4250222694620007D
:10218000B0476B461D705B785B06F6D402B070BD3D
:10219000208400001521000010B582B001AC8B2313
:1021A000237000236370A37003222100044B98471F
:1021B000A3781B026078184300B202B010BDC0467D
:1021C0001521000030B583B0040001A90D4B1B8917
:1021D0000B8002220C4B984701200C4B98472300A0
:1021E0001A3321001B3120682830C122084DA8472E
:1021F0002379A268DB0107498C4663445A6103B026
:1022000030BDC04620840000152100009D730000F1
:10221000693800000044004170B5040003001A331F
:1022200001001B3100682830C122054DA8472379E1
:10223000A268DB0103498C4663445A6170BDC04605
:10224000693800000044004110B582B004000379F1
:10225000DB01094A9446634482689A610120074B76
:10226000984701A920230B7000234B700222200005
:10227000034B984702B010BD004400419D7300001D
:102280001521000070B504001C4B9847002800D1B0
:1022900070BD2068283023001A33C12221001B3171
:1022A000174DA8472379DB01164A94466344A26878
:1022B0005A61154B9969E38A802252009A40DB08E3
:1022C0001B019A4001200A42E2D00F498A61E38A49
:1022D00001229A40DB081B019A408A61A27D0F23EC
:1022E0001A40A023DB0413434B60207D7F22024071
:1022F000120413434B600120CAE7C046AD3700000B
:10230000693800000044004100040042F0B587B085
:10231000040005AD8F232B7000236B70022229006F
:10232000444B98476B78412B00D07BE02000424B18
:102330009847424A136A02210B431362E18A07312C
:1023400000203F4B9847E38A01331F221340217E30
:102350000A401B0213433B490B81227D7F231A4015
:102360001204A023DB041343A07D0F220240134379
:102370004B60A38A802252009A40DB081B019A40DE
:102380008A6104A920230B703F334B700222200086
:10239000284DA84703A92E230B7012334B7002223D
:1023A0002000A84702A922230B7062334B7002223F
:1023B0002000A84701A923230B701D3B4B7002226C
:1023C0002000A847A823A3762068283023001A33CA
:1023D000C12221001B311C4DA8472379DB011B4A78
:1023E00094466344A2685A610120194B9847194BDF
:1023F0009847002819D164210130174B9847174D91
:10240000174E134F01210120A847012806D12000B3
:10241000B04700280CD10130B847F3E70120404213
:1024200007B0F0BD01204042FAE701204042F7E743
:102430000020F5E7152100005921000000040040AC
:102440006524000000040042693800000044004197
:102450009D730000AD370000597300002D7300001C
:10246000852200000F231840000230331940014339
:102470008020C0010143044A53785BB2002BFBDB90
:10248000014B59807047C046000C0040254A5368F4
:102490001E218B431C390B435360234A53785BB294
:1024A000002BFBDB0122204B1A701A0053785BB221
:1024B000002BFBDB1C4901220B781342FCD11B498A
:1024C0000B6A402293431A4A13409B009B088022C8
:1024D000120613430B621022CB681A42FCD0134938
:1024E00000238B84134B1A68134B1B689B05920EB9
:1024F00092029B0D13438B621022CB681A42FCD0D0
:102500000A4B02229A841900CE32CB681A42FCD1BF
:10251000054A53785BB2002BFBDB034B074A5A603A
:102520007047C04600400041000C004000080040D9
:10253000FFFCFFFF24608000286080000007090086
:1025400010B58822920002490248034B984710BDFB
:1025500088230020281C0042713900000048704781
:10256000A825002070B504000D000F4B98470028E7
:1025700009D00E4B0E4AD35A002B0CD0002D03D19C
:102580000B4B2360012070BD882292000849094846
:10259000094B9847F4E78822920005490548064B05
:1025A00098470020EFE7C046D13700001E02000028
:1025B00088230020281C00427139000070B5494B67
:1025C00098478824A400241AA4B2032C03D9464BAC
:1025D0001B68002B26D0454B9847002852D0424B11
:1025E0001B68002B45D1424B424AD35A002B40D0A6
:1025F00087239B00D55A00223B4B1A600126862375
:102600009B009D423ED83B4B1B88012B3BD9022BA4
:1026100063D0002E36D08822920036493648374B98
:1026200098472FE0314B9847061E17D000222E4BBB
:102630001A60304B5D88002D51D12D4B2D4AD35A55
:10264000002B04D087239B00D55A0126D7E7882288
:10265000920028492848294B984713E0254B5D886C
:10266000002D0FD02B1D9C420CD301221E4B1A6053
:10267000C5E7882292001F491F48204B9847002237
:10268000194B1A6070BD8822920000211C481D4B16
:102690009847184B04229B5E002B17DB291F89B239
:1026A000194A1A481A4B98470028B2DB1449114BB3
:1026B0001B880B80043080B2488087239B00C8525F
:1026C000882292000C48134B9847A2E7291F89B231
:1026D0000D4A0E48104B9847E6E7C04699E7012699
:1026E0008DE7C046C5370000FC220020D13700002E
:1026F0001E02000088230020281C004271390000BF
:10270000A8250020717B0000AC2500208C23002030
:1027100081270000D1380000C9270000F8B5070064
:10272000124C134D2E0012E086229200934208D8DC
:102730000F4B3B600020F8BD0E4B0D4AD35A002BC7
:10274000F6D1882292000A490B480C4B9847A047C3
:102750000028FCD06B88002BE6D186239B008722C3
:102760009200B25A9A42E7D9EBE7C046D13700004F
:10277000882300201E020000281C0042713900003E
:1027800070B50400150043888B4211D18522920058
:10279000934210D803882B800388012B0ED1281D6B
:1027A0006288211D074B98476088688000B270BD21
:1027B00001204042FBE701204042F8E7012040426F
:1027C000F5E7C0465F7B0000F0B5C64600B51600D1
:1027D00045888D4200D08BE085229200954200D939
:1027E00089E0028832800288464B9C46624491B25E
:1027F000072900D982E08A0043498A589746002D6C
:102800000ED0041D013DADB2053545193F4B98462C
:102810003F4F217843461868B8470134AC42F8D19D
:1028200001233371738001200FE0384C0021200018
:10283000384B984700212000374B98472000374BF2
:102840009847012333717380012004BC9046F0BD8A
:102850002E4C2068324B98472000324B984701237A
:10286000337173800120F0E72F48304B98470123E4
:10287000337173800120E8E72B482D4B98470028DF
:1028800005D000233371013373800120DDE701237C
:10289000337173800120D8E7020008324168802339
:1028A0005B002148234CA047012333717380012032
:1028B000CBE7214B984772B6BFF35F8F00221F4BC7
:1028C0001A70BFF34F8F1E4A1E4BDA60BFF34F8F53
:1028D000FEE71D4D1D4C2800A0470028FBD0301DF1
:1028E000C0221B491B4B9847C0237380C020ACE714
:1028F00001204042A9E701204042A6E701204042D2
:10290000A3E7C046FF7F00002C84000004010020E4
:102910003168000061500000415000000D5000007F
:10292000416800002D500000EC000020954A000096
:1029300081490000A5490000C14700000C000020AB
:102940000400FA0500ED00E01000002085220000E0
:102950002C0000205F7B0000F8B5002A0ED0040098
:102960000D00013A97B20137C719054E2278054983
:102970002800B04701340235BC42F7D1F8BDC0464B
:10298000817B000060840000F0B5DE4657464E466D
:10299000C0B596B0714C2000714B9847002301934D
:1029A000704B009302230022002120006E4CA047B0
:1029B0006E4C6F4F00210020A047032800D1C7E0D4
:1029C000B8470228F6D16548654B9847694B984748
:1029D000002800D185E0012800D18DE0032800D136
:1029E00095E0042800D19DE0022800D1A5E0624BCB
:1029F0009847030058425841313002905F4B019391
:102A000000239A4600930A22002154485C4DA946AF
:102A1000A84707AD28005B4B98476E7836022B78A5
:102A20001E432800584B98476B781B022A781A439C
:102A300093462800554B98472A7812026B78134327
:102A400004935B4603930296514B019353460093C4
:102A5000142200214148C8470CAE4E4B1A680C9214
:102A60001B79337128004C4B984708220DA9280088
:102A70004A4B9B4698470196534600931E220021DD
:102A80003648C847464B1A680C929B88B38028008A
:102A9000444B9847082235236B4419002800D84737
:102AA000019653460093282200212C48C8473E4BEC
:102AB0001A680C929B88B3802A00162126203B4B73
:102AC0009847102235236B4419002800D8470196F7
:102AD00053460093322200212048C847344B984780
:102AE00068E700230193334B009302230022002167
:102AF0001A481D4DA847F1E7002301932E4B009380
:102B00000223002200211548174DA8476FE7002334
:102B100001932A4B00930223002200210F48124DFB
:102B2000A84764E700230193254B0093022300226A
:102B300000210A480C4DA84759E700230193214B77
:102B400000930223002200210448074DA8474EE7C6
:102B500016B01CBC91469A46A346F0BD0401002065
:102B6000DD500000EC870000C95C00005D4D0000F6
:102B7000BD6C0000656B000049690000A087000083
:102B80007D5D00004D6800006568000091680000F0
:102B9000B4870000D4870000C168000059290000F4
:102BA000DC870000ED680000E4870000157100007C
:102BB000B9600000148800003088000054880000CC
:102BC0006C88000080880000F0B5DE4657464E460F
:102BD0004546E0B587B0444B9846444D002399469E
:102BE000C0478145FAD24846414B98474148424B3D
:102BF000984705A90020414B98473E48404B9847CD
:102C0000404B5B6F03934B46013302933E4B019362
:102C10000026009600230022002136483B4CA047A6
:102C20003B4B984701960090002300221E2131481B
:102C3000384FB847384B9A469B8C0293374B0193D9
:102C4000009600230A2200212A48A0475346DB8C25
:102C50000293334B01930096002314220021254850
:102C6000A04753461B8D02932E4B019300960023E1
:102C70001E2200211F48A04753465B8D02932A4B1A
:102C8000019300960023282200211A48A047274BD1
:102C9000019300960023322200211648A047019696
:102CA000059B00930023322232211248B847FA21B3
:102CB000C90000201E4B98471E4C01210020A04750
:102CC00000280BD000210020A8470328F5D107B029
:102CD0003CBC90469946A246AB46F0BD4F460137F4
:102CE000BBB299467CE7C046714400005D4D0000D0
:102CF000114600000401002025520000914400000C
:102D0000DD500000B0290020908600007D5D0000AD
:102D10007D440000C95C0000102300209C86000058
:102D2000B0860000C8860000E48600000887000026
:102D3000597300002D730000F8B5094E094F0A4D74
:102D40000024002221003000B84700210020A847BD
:102D5000032803D00134782CF3D1F1E7F8BDC04645
:102D6000040100206D5800005D4D0000F0B5DE4606
:102D700057464E464546E0B58FB0694B98470DAC77
:102D80002000684B98472578AD06AD0E0023994684
:102D900000270B93BA4687E0614B984781469EE037
:102DA00061496248624B9847A1E0624CA047804667
:102DB000A0470A9004AB24229B181C78A406A40EFA
:102DC000A54203D053460B9300239A46574D272321
:102DD00004AA944663441B789B0807932622624406
:102DE00013889B051B0F069313789B06DB0E059338
:102DF000049463469B8C1B059B0E03930D9BDB0386
:102E0000DB0E02934C4B01930127009700230A220B
:102E100000212800494EB047494B20215A5E0592B7
:102E20001E215A5E04921C229B5E03930B9B5B0146
:102E30000293444B019300970023142200212800A1
:102E4000B0476E204B4658431221FF313E4B984706
:102E500003904B4602933D4B0193009700231E22A3
:102E600000212800B047334B984743465A469B1AE7
:102E70000493099B089A9B1A03930A9BC01A029019
:102E8000334B019300970023322200212800B047E2
:102E90002800304B9847002100202F4B98470128ED
:102EA0002FD0032834D025002C4B9847214EB04713
:102EB00008901E4C20002A4B98472000294B984729
:102EC000B0470990B04783461D48274B9847431E9B
:102ED00098418244254B9847002800D05CE70DA814
:102EE000104B9847224B5B8B5B0700D558E7214B73
:102EF0005B8B5B0700D458E71F490C480C4B984785
:102F000053E7FA20C0001D4B98471D4B9847CAE76E
:102F10000FB03CBC90469946A246AB46F0BDC046B9
:102F2000CD5E00007972000044860000040100209C
:102F3000615D000021730000C48500007D5D00001C
:102F400010000020E48500002179000008860000C0
:102F50001C860000515100005D4D0000BD250000A1
:102F600011510000A551000085220000C15E000043
:102F700000080042001C0042608600009D730000B3
:102F800089760000F0B58DB006AA604B03CB03C272
:102F900010000C2200215E4B98475E4B9B69DBB210
:102FA000052B00D1A3E05C485C4B98475C4CA047E4
:102FB0000028FCD0584C20005A4B984720005A4B10
:102FC00098475A4C20005A4B9847012603960025F3
:102FD0000295584B01930095002300220021200008
:102FE000554FB8474B4B9A699B691B051B0F4133E3
:102FF000049306AB03930292504B01930095002378
:103000000A2200212000B8474D4B1B6805934D4B09
:103010001B6804934C4B1B6803934C4B1B68029337
:103020004B4B019300950023142200212000B84748
:10303000484B984704008825AD002A000021344BF6
:10304000984703232380444BE6522A00210043483B
:10305000434B9847434B9847434C0BA8A047431C0E
:10306000FBD00B9B9F68FAB20B2A47D006A9274AD0
:1030700011CA11C12D4C1A6A0592DA690492DA88D4
:1030800003929B880293394B0193002600960023FC
:103090001E2200212000284DA8473B051B0F41336D
:1030A000049306AB03930297244B019300960023ED
:1030B000282200212000A8470B9B9A6905925A6993
:1030C00004921A690392DB680293214B01930096E4
:1030D0000023322200212000A847254B9847254C89
:1030E00000210020A0470328FAD10DB0F0BD06AAA8
:1030F000214B13CB13C21B78137054E706A91F4A48
:1031000031CA31C112780A70B4E7C0464C8400005D
:10311000717B00000020004110000020852200008B
:10312000AD370000992100001922000004010020A1
:10313000DD500000248700007D5D0000388700001E
:1031400048A0800044A0800040A080000CA0800027
:10315000508700005D2500001E020000281C004270
:10316000D1380000F93400001D27000078870000E6
:10317000412500005D4D00001487000068870000B5
:10318000F0B5C64600B584B000240127134B98461D
:103190001348C047124D134E022F1CD1013CA4B25C
:1031A00021002800B0470028F6D00D4D02940E4BA8
:1031B0000193002300930022002128000B4FB84701
:1031C0000022210028000A4B984700210120094BCA
:1031D00098470700DCE70134A4B2E1E7DD500000C6
:1031E00004010020C9580000848600007D5D0000B5
:1031F000B55B00005D4D0000F0B5C64600B582B07D
:10320000012600246D4D6E4B984639E06D48C0474D
:10321000072C00DD80E0002C00DAC3E001230193DD
:10322000694B00930223002200216648674EB04795
:10323000032C7CDD01260196654B009300230E22B2
:103240000A216048614FB8470196624B0093002302
:1032500018220A215B48B84701965F4B0093002370
:1032600022220A215748B84701965C4B009300235D
:103270002C220A215348B8477BE0013C24B20126A6
:10328000A847002EC2D100210020554B98470128A5
:10329000F3D0022816D000260328F1D1002C15D037
:1032A000012C17D0022C19D0032C1BD0042C1DD0BC
:1032B000052C1FD0062C1FD00126072CE0D1494B2E
:1032C0009847DDE7013424B20126D9E7464B9847F9
:1032D0000136D5E7454B98470126D1E7444B98473F
:1032E0000126CDE7434B98470126C9E7424B984753
:1032F0000126C5E7414B9847414B984772B6BFF34B
:103300005F8F00223F4B1A70BFF34F8F3E4A3F4BF7
:10331000DA60BFF34F8FFEE7012301932A4B00933E
:103320000223002200212748284CA0470024012620
:103330000196374B009300230E220A212148234F88
:10334000B8470196334B0093002318220A211D48E9
:10335000B8470196304B0093002322220A211948D6
:10336000B84701962D4B009300232C220A211548C3
:10337000B847E217920FA11803230B409B1A9A003B
:103380009A1852000E32D2B20E4E01230193244BF2
:1033900000930023002130000C4FB8473000214B30
:1033A000984770E701230193074B00930223002203
:1033B00000210448054CA04707243BE7BD25000039
:1033C000A55100000401002068840000C95C0000D1
:1033D0002C8500005885000084850000A48500002D
:1033E0005D4D00008D4E00006D2D0000C92B0000CA
:1033F00089290000392D0000852F0000813100004F
:10340000C14700000C0000200400FA0500ED00E0B8
:1034100080840000C0840000EC8400000C85000063
:10342000C085000051510000284B00213F229954D3
:103430000F329B5C9B0706D54D3A254B1A60023133
:103440004E23224AD154214B06213F2299540F3258
:103450009B5C9B0706D54D3A1E4B1A6004394E23E0
:103460001A4AD154194B01213F2299540F329B5CC7
:103470009B0706D54D3A184B1A6001314E23134A6B
:10348000D154124B04213F2299540F329B5C9B076D
:1034900006D54D3A114B1A6002394E230B4AD154CE
:1034A0000A4B05213F2299540F329B5C9B070CD598
:1034B0000E3A0B4B9A61C0320A4B9A61FF3A0A4BA3
:1034C0001A6003394E23014AD15470470048004125
:1034D0000423002000000020082300200C230020EB
:1034E0000044004100040042002300200122014B5F
:1034F0001A60704708230020024A1368002BFCD092
:103500007047C04600000020F0B5DE4657464E46E4
:103510004546E0B5904B914A53639149916302212E
:103520008846904911802A219173802040002939D2
:103530000843802149020843802149040143516125
:1035400001211982198AC904C90C1982198A86486D
:1035500001401982198A8020000101431982198AC9
:103560008248844601401982198A18208143103804
:10357000014319820021D9613F3189460121484622
:10358000115421307A4951644D218A46444654549D
:103590004C391984198CC904C90C1984198C8024DC
:1035A000640121431984198C8024E4002143198487
:1035B000198C644621401984198C1824A14319845C
:1035C0000021D9624946444654548021090180248F
:1035D000240421435164402101245C525C5AE404D8
:1035E000E40C5C525C5A80256D012C435C525C5AA1
:1035F0008025ED002C435C525C5A65462C405C52A1
:103600005C5A1825AC43103D2C435C520024DC640A
:1036100004344D4654551C3480273F042743A024CE
:1036200024013C4354645446454615554C3C1C8685
:103630001C8EE404E40C1C861C8E80256D012C433A
:103640001C861C8E4B4D2C401C861C8E65462C40C7
:103650001C861C8E1825AC431C860024DC63503469
:10366000173D1D531D5BED04ED0C1D531D5B3E4EC0
:1036700035401D531D5B8026360135431D531D5BB0
:10368000664635401D531D5B1826B543103E354335
:103690001D530024DC6505344D4654558024240414
:1036A0000C43C1352C4354645446454615554C3C97
:1036B0001C521C5AE404E40C1C521C5A80256D0157
:1036C0002C431C521C5A8025ED002C431C521C5AC2
:1036D00065462C401C521C5A1825AC43103D2C4307
:1036E0001C520024DC6606344D465455C024240187
:1036F0003C4354645446454615554C3C1C801C883C
:10370000E404E40C1C801C88174D2C401C801C8891
:1037100080252D012C431C801C8865462C401C8074
:103720001C881825AC43103D2C431C800024DC6011
:103730004B46D45480231B041843B0231B01184369
:10374000506453464046D0540B4B19603CBC9046E5
:103750009946A246AB46F0BD4028002000480041F3
:10376000D0270020020F0000FFEFFFFFFFFCFFFF4C
:1037700000078000FFFBFFFF00E100E0044B1B6837
:103780000020002B03D00022014B1A60013070474B
:1037900008230020044B1B680020002B03D00022CC
:1037A000014B1A60013070470C230020044B1B684A
:1037B0000020002B03D00022014B1A60013070471B
:1037C00000230020014B588880B27047D02700208A
:1037D000044B1B680020002B03D00022014B1A6011
:1037E0000130704704230020F8B506000C001500D6
:1037F0000A4B98470A4B5D825E6161199961094ADB
:103800003F270120D0554024013010555D849E6231
:103810005962D0551055044B9847F8BDC17300004C
:1038200040280020004800410174000070B50600E7
:103830000C001500084B9847084B42229D529E648D
:1038400064195C64064B0421033A9954023901322D
:103850009954044B984770BDC17300004028002064
:103860000048004101740000F8B506000D00140086
:103870001F00124B9847124B52229C525E652D1925
:103880009D65104A3F20052111543B3102255554B6
:103890005C869E635F6303231354023B5354110001
:1038A00040228B5CDB07FCD4064B074A5A6402219A
:1038B00040229954054B9847F8BDC046C17300009B
:1038C00040280020004800414B02800001740000A5
:1038D00070B506000C0015000C4A1368002BFCD0D4
:1038E0000B4B98470022094B1A600A4B62329D52DB
:1038F0009E6664195C66084B0621233A9954043984
:1039000001329954054B984770BDC0460000002015
:10391000C1730000402800200048004101740000ED
:1039200010B50F4B98470F4B06213F2299540021A9
:103930000132995419008B5C002BFCD1094B0022F9
:103940003F215A5401315A54190040328B5C002BEC
:10395000FCD10022044B1A60044B984710BDC046AE
:10396000C1730000004800410423002001740000DE
:1039700070B506000C001500084B9847084B5D8099
:1039800064199C605E60074B00213F22995402310C
:1039900001329954044B984770BDC046C173000072
:1039A00040280020004800410174000070B5040068
:1039B00015004A79427108886080887820710889EA
:1039C000E0800120060096403200013A2270002279
:1039D0002272134E6681A281C988E1732561A265B6
:1039E000E36562652066200014300123203229003F
:1039F0000C4DA8470C4DA8470028FCD02169203168
:103A00002161A36D013301201840400114302018BA
:103A1000236E2022034DA84723692033236170BD04
:103A200055AAFFFFBD4300007D37000070B54C78FC
:103A30004471117841805578057161430731CE1783
:103A4000072232405218D2106A43C2800122A2409B
:103A5000013A0270002202720649418182810021EE
:103A6000C17303618265049BC365202343650266BD
:103A700070BDC04655AAFFFFF0B5D6464F46464634
:103A8000C0B504000D009246C37BDB0705D4002AB5
:103A900000D18AE1C74B984666E1002A00D184E153
:103AA000C44E78E0A289E188914224D90132A281F2
:103AB000626D1F2A26D9E36D002B2BD0236E002BBD
:103AC00031D0B0470028FCD0A36D58011430201825
:103AD000236E20222169B84FB847A36D5A1C0123D9
:103AE0001340A36523692033236101236365A36D1C
:103AF0005B01E3181B7D1A09013222720F22134069
:103B0000A3734BE0531C6365A36D5B01E3189B1823
:103B10001B7DF0E7A36D5801143020182022216985
:103B2000A64B9847DEE7A36D5801143020180023F8
:103B300020222169A04FB847D4E7531C6365A36DC9
:103B40005B01E3189B181B7D10E0A36D5801143036
:103B5000201820222169994B98472369203323613B
:103B600001236365A36D5B01E3181B7D1A09013214
:103B700022720F221340A3732B78A27B13432B7066
:103B8000237A013B23725746023FBBB29A46013566
:103B9000002B00D109E1237A002B83D0A37B1B01EA
:103BA0002B70237A013BDBB22372002BE4D1A28974
:103BB000E1889142DAD90132A281626D1F2ABCD913
:103BC000E36D002BC1D0236E002B13D0794B9846A8
:103BD000C0470028FCD0A36D580114302018236E74
:103BE00020222169744FB847A36D5A1C012313404A
:103BF000A365B2E7A36D58011430201800232022DA
:103C000021696D4FB847A8E7A289E188914224D97C
:103C10000132A281626D1F2A23D9E36D002B28D0C7
:103C2000236E002B2ED0C0470028FCD0A36D580176
:103C300014302018236E202221695F4FB847A36DEE
:103C40005A1C01231340A3652369203323610123F8
:103C50006365A36D5B01E3181B7D638108232372F9
:103C60008CE0531C6365A36D5B01E3189B181B7DFF
:103C7000F3E7A36D580114302018202221694F4B1F
:103C80009847E1E7A36D5801143020180023202243
:103C90002169494FB847D7E76189D31ADBB2994008
:103CA00023780B402A7813432B70237A08336279E8
:103CB0009B1A2372A389E28800209A4226D90133F5
:103CC000A381626D1F2A2DD9E36D002B32D0236EA4
:103CD000002B38D0374B9946C8470028FCD0A36D3D
:103CE000580114302018236E20222169324FB84722
:103CF000A36D5A1C01231340A3652369203323615C
:103D000001236365A36D5B01E318187D6081237A4D
:103D100018410301181A2178294B98472B7818432A
:103D200028703DE0531C6365A36D5B01E3189B188D
:103D3000187DEBE7A36D580114302018202221696B
:103D40001E4B9847D9E7A36D580114302018002363
:103D500020222169184FB847CFE75746023FBBB230
:103D60009A460135002B20D000232B7002262B7899
:103D70001B012B70237A002B00D145E7237A62794F
:103D8000934289D39B1ADBB2237221786089184150
:103D900008400301181A0A4B98472B7818432870DB
:103DA000013EB6B2002EE2D1D7E71CBC9046994640
:103DB000A246F0BD7D370000BD4300007543000002
:103DC0002179000010B5036E002B03D0034CA047EF
:103DD0000028FCD0024B984710BDC0467D3700003C
:103DE00051440000F8B50400C37BDB0700D4ADE00C
:103DF000057A002D0DD0A07B013DEBB223720001AE
:103E0000C5B2002B38D0A07B0543EDB2013B237235
:103E1000B8E08389C2889A4200D85BE1013383818C
:103E2000426D1F2A5CD9C36D002B61D0036E002B3D
:103E300067D0AC4DA8470028FCD0A36D58011430C2
:103E40002018236E20222169A74DA847A36D5A1C74
:103E500001231340A3652369203323610123636594
:103E6000A36D5B01E3181A7D1509013525720F2337
:103E70001340A373002DBED1A389E2889A4200D8D3
:103E80002CE10133A381626D1F2A44D9E36D002B1D
:103E900049D0236E002B4FD0924EB0470028FCD063
:103EA000A36D580114302018236E202221698E4EF4
:103EB000B047A36D5A1C01231340A3652369203327
:103EC000236101236365A36D5B01E318197D0B0971
:103ED000013323720F220A40A273002B52D092E7C3
:103EE000531C4365836D5B01C3189B181A7DBBE7A8
:103EF000836D580114302018202221697B4B98478C
:103F0000A9E7836D5801143020180023202221696D
:103F1000754DA8479FE7531C6365A36D5B01E318CC
:103F20009B18197DD3E7A36D580114302018202267
:103F300021696E4B9847C1E7A36D580114302018D2
:103F4000002320222169684EB047B7E702260025EA
:103F50002D01EDB2237A002B16D0237A6279934299
:103F60005BD39B1ADBB2237221786089184103006E
:103F70000B401801C01A5E4B98470543EDB2013E55
:103F8000002EE5D12800F8BDA289E188914225D90B
:103F90000132A281626D1F2A24D9E36D002B29D042
:103FA000236E002B2FD04F4B98470028FBD0A36DDA
:103FB000580114302018236E202221694A4FB84737
:103FC000A36D5A1C01231340A36523692033236189
:103FD00001236365A36D5B01E3181B7D63810823E7
:103FE0002372BAE7531C6365A36D5B01E3189B184A
:103FF0001B7DF3E7A36D580114302018202221699E
:104000003A4B9847E1E7A36D58011430201800237C
:1040100020222169344FB847D7E76089D11AC9B245
:10402000884001002078084005436DB208339B1A90
:104030002372A389E28800209A4225D90133A38103
:10404000626D1F2A2BD9E36D002B30D0236E002B1D
:1040500036D0244FB8470028FCD0A36D5801143047
:104060002018236E202221691F4FB847A36D5A1CC8
:1040700001231340A3652369203323610123636572
:10408000A36D5B01E318187D6081237A1841030159
:10409000181A2178164B98470543EDB26FE7531C69
:1040A0006365A36D5B01E3189B18187DECE7A36DB6
:1040B000580114302018202221690C4B9847DAE768
:1040C000A36D580114302018002320222169064FC7
:1040D000B847D0E70023837301258CE60023A37340
:1040E000013390E67D370000BD43000075430000BA
:1040F00021790000F8B5CE46474680B504000E0091
:10410000C37BDB075FD40025964B9946EBE0A38980
:10411000E2889A4200D81BE10133A381626D1F2A15
:1041200036D9E36D002B3BD0236E002B41D0C04726
:104130000028FCD0A36D580114302018236E2022D3
:104140002169894FB847A36D5A1C01231340A36509
:1041500023692033236101236365A36D5B01E318A9
:10416000197D0B09013323720F220A40A273002B21
:1041700009D1013EB6B2002E00D1EDE02D01ADB265
:10418000237A002BC3D0A27B1543013B2372F0E7B7
:10419000531C6365A36D5B01E3189B18197DE0E771
:1041A000A36D580114302018202221696F4B9847C5
:1041B000CEE7A36D58011430201800232022216976
:1041C000694FB847C4E70025664B9846D3E7A289F4
:1041D000E188914224D90132A281626D1F2A23D93C
:1041E000E36D002B28D0236E002B2ED0C84700286B
:1041F000FCD0A36D580114302018236E20222169B1
:10420000594FB847A36D5A1C01231340A365236976
:104210002033236101236365A36D5B01E3181B7DDC
:1042200063810823237266E0531C6365A36D5B0101
:10423000E3189B181B7DF3E7A36D58011430201879
:1042400020222169494B9847E1E7A36D58011430BA
:104250002018002320222169434FB847D7E76089FF
:10426000D11AC9B2884001002078084005432DB218
:1042700008339B1A2372A389E28800209A4226D928
:104280000133A381626D1F2A47D9E36D002B4CD007
:10429000236E002B52D0334B9846C0470028FCD0E9
:1042A000A36D580114302018236E202221692E4F4F
:1042B000B847A36D5A1C01231340A365236920331B
:1042C000236101236365A36D5B01E318187D6081A1
:1042D000237A18410301181A2178254B9847054382
:1042E000ADB2013EB6B2002E36D02D01ADB2237A6A
:1042F000002B00D16BE7237A62799342AFD39A1AED
:10430000D2B222722178638913410B401801C01A7E
:10431000174B98470543ADB2E3E7531C6365A36DA4
:104320005B01E3189B18187DD1E7A36D5801143089
:104330002018202221690D4B9847BFE7A36D580133
:1043400014302018002320222169074FB847B5E711
:104350000023A373013316E728000CBC904699464E
:10436000F8BDC0467D370000BD4300007543000026
:104370002179000010B50400002907DB0A4B1868FA
:1043800013002200094CA047002010BD8B180848DC
:104390008342F3D880231B069C466144054BC91811
:1043A0002000054B9847EFE748230020ED47000029
:1043B000A90A00809C8800005F7B000070B50500A2
:1043C00014001E0000290DDB184B1B68002B1BD0AE
:1043D000002E21D1164B186822002900154B984752
:1043E000002070BD8B18144A9342EDD880231B0621
:1043F0009C466144114BC9182200114B9847002E6E
:10440000EED0104B9847EBE7094B18680E4B9847D6
:104410000122064B1A60DBE7A2B2054B1B68186845
:1044200028302900094B9847DAE7C046442300208A
:1044300048230020A5480000A90A00809C880000AD
:104440005F7B0000ED34000061480000E9370000A8
:1044500010B5044B1868044B98470022034B1A60B0
:1044600010BDC04648230020C94800004423002056
:10447000014B586F7047C046B02900200048704774
:1044800010230020014B18607047C04648230020CD
:1044900070B582B00C001E4B1968002931D01D4B3D
:1044A0001B88834230D94000023141186B469D1D64
:1044B00002222800184EB0472988154B1B68C918DE
:1044C00001AD02222800B04780235B002A889A426F
:1044D00002D91A0001AB1A8001AB1A8852000C4BAA
:1044E000196802316B4606331B88C9180B4D28002A
:1044F000094B98470022FE23EA522560002002B0B3
:1045000070BD01204042FAE701204042F7E7C04673
:104510003C2300204023002075430000B0280020E9
:1045200010B50C00002A11D1364B5B6D834247D980
:10453000013348D0334B9A6D00231918890089182C
:1045400004222000304B9847002010BD012A0FD0D4
:10455000022A19D0032A29D0042A49D1294BDB6C1D
:10456000984248D2013349D0264B1A6D0023E4E724
:10457000264BDB8C234AD26DC118914226D20132E0
:1045800027D0204A126ED8E71E4BDB6F00229842DC
:1045900001D31E4B1A8D13001A49496E12188A4214
:1045A0001AD24A1C1BD0174A926EC6E7154BDB6E17
:1045B000984217D2013318D0124B1A6F0023BCE770
:1045C00001204042C1E701204042BEE701204042B5
:1045D000BBE701204042B8E701204042B5E7012097
:1045E0004042B2E701204042AFE701204042ACE741
:1045F00001204042A9E701204042A6E701204042B5
:10460000A3E7C046B0290020754300001023002016
:1046100030B583B00400164B5B6F984222D2013351
:1046200023D0134B996F042201A8124DA8472C21C7
:104630006143019B9C4661440F4C2C222000A847FB
:10464000A08C00220D490E4B98470023421C06D037
:104650000A4B196802220B48064B984700231800A2
:1046600003B030BD01235B42F9E701235B42F6E76B
:10467000B029002075430000102300203C230020B7
:10468000214500004023002010B5084C8022002165
:104690002000074B9847074B22689A4203D100201D
:1046A000054B984710BD01204042FBE7B029002090
:1046B0007543000078563412114600000C4B1B68FD
:1046C0005B065B0F072B10D00622D21A80235B00FB
:1046D0009340190A0022814205D900028022D202A9
:1046E00094466044C21A100070470022FBE7C0469F
:1046F0000040800010B50020044B9847012300289B
:1047000002D0034B18600023180010BDBD46000006
:104710004C230020F8B50E001C4B9847002833D0DE
:104720001B4B5A6880218A435A6059688022D20202
:104730000A435A60190001220B7D1342FCD0430842
:10474000134AD361134B1380431CFF339C46030071
:10475000170001213A7D0A42FCD01D0040351C00A3
:104760008C431A1A8A43B25A22800233AB42F6D1E2
:104770002B00AC45EED1064B5A6880210A435A60A3
:104780005A6805490A405A60F8BDC046BD46000057
:104790000040004102A5FFFFFFFFFBFF10B50C002A
:1047A000054B9847002800D110BD8022520001001F
:1047B0002000024B9847F7E7BD4600005F7B0000F2
:1047C00000B5C1B069460020054B9847054AFC2357
:1047D0006946CA500020044B984741B000BDC0460E
:1047E0009D470000AAAB785415470000F0B583B090
:1047F00005000F0001921E000379DB0116498C466B
:104800006344816859610B210068144CA047390C3E
:10481000C9B22868A047390AC9B22868A047F9B2C6
:104820002868A04700212868A047002E0BD0019BD4
:104830001C009C466644094F00212868B847207038
:104840000134B442F8D12B79AA68DB0102498C46C5
:1048500063449A6103B0F0BD004400411D6800004C
:1048600070B504000E000379DB010C4A94466344E2
:1048700082685A610B210068094DA847310CC9B202
:104880002068A847310AC9B22068A847F1B2206859
:10489000A84720680021A84770BDC04600440041D9
:1048A0001D680000F8B50600002A09D00C008D181C
:1048B000044F00213068B84720700134AC42F8D171
:1048C000F8BDC0461D68000003798268DB0102491B
:1048D0008C4663449A61704700440041F8B5050076
:1048E0000C000379DB010C498C46634481685961F3
:1048F000002A08D0A618094F21782868B8472070E8
:104900000134A642F8D12B79AA68DB0102498C4612
:1049100063449A61F8BDC046004400411D68000030
:1049200010B504000379DB01074A944663448268AA
:104930005A610068054B98472379A268DB01024958
:104940008C4663449A6110BD004400411D6800001C
:1049500010B50621014B984710BDC0462149000003
:1049600010B582B001AC05232370002363700222CE
:104970002100024B9847607802B010BDDD4800006E
:1049800010B5024B98470123184010BD6149000043
:1049900070B50500024C2800A0470128FBD070BD6F
:1049A00081490000F0B5DE4657464E464546E0B523
:1049B00083B00500884601929A46FF230B400DD034
:1049C00080225200D31A9946534500D9D146534606
:1049D000002B50D02B4B9B461F000DE05346D14679
:1049E000FF2BF4D980235B009946F0E72800264B83
:1049F00098475346002B3ED053464A469B1A9A4648
:104A00002800224B98472B79DB01214A94466344C6
:104A1000AA685A6102212868D8474346190CC9B2CE
:104A20002868D8474346190AC9B22868D847434678
:104A30006A46D370D1782868D8474B46002B0AD0F5
:104A4000019B1C004B4401931E0021782868B84745
:104A50000134B442F9D12B79DB010D4A9446634409
:104A6000AA689A61C8445346D146FF2BBED9802319
:104A70005B009946BAE703B03CBC90469946A24613
:104A8000AB46F0BD1D68000091490000514900008F
:104A90000044004110B50400034B9847C721200093
:104AA000024B984710BDC046514900002149000003
:104AB00000B583B001A9AB230B700122054B9847C9
:104AC00012230093009B5A1E0092002BFAD103B0D0
:104AD00000BDC046DD48000030B583B00500114B75
:104AE000984701AC9F23237000236370A370E37089
:104AF0000422210028000C4B98476378EF2B0BD140
:104B000001AB9B78402B0AD101ABD8781538431EF6
:104B10009841404203B030BD01204042FAE70120F5
:104B20004042F7E7B14A0000DD48000000B583B01D
:104B300001A9B9230B700122014B984703B000BDB6
:104B4000DD480000F8B505000C000379DB010C49D5
:104B50008C46634481685961002A08D0A618094F21
:104B600021782868B84720700134A642F8D12B7903
:104B7000AA68DB0102498C4663449A61F8BDC046CD
:104B8000004400411D68000010B582B001AC9F23B5
:104B9000237000236370A370E37004222100084B8C
:104BA000984763781F2B07D101AB98782538431EAF
:104BB0009841404202B010BD01204042FAE7C04691
:104BC000454B000000B583B001A979230B70012289
:104BD000014B984703B000BD454B000030B5554B25
:104BE0001A6AA02159581201D20F490802230B401A
:104BF0001A4300230025504C02E00133042B06D059
:104C000098B25900095B9142F7D10500F5E74B4B8B
:104C10001988013103230B409D4227D0474B198847
:104C2000013903230B409D4243D0424B1B6ADB00FA
:104C30006AD4434B1B889BB2322B5DD0404B1B8800
:104C40009BB2FF2B04D03E4A138801339BB21380E2
:104C50003C4B1B78012B03D03A4B1B78022B63D1C2
:104C6000394A138801339BB213805DE0002A05D1D5
:104C70000132364B1A60314B1D80D6E7032AFAD138
:104C8000324B1B68012BF6D1314B1B68002B0AD02D
:104C9000304A138801331BB2138000232B4A136060
:104CA0002D4A1360E7E72B4A1388013B1BB21380A0
:104CB000F3E7002A05D10132274B1A601F4B1D80F4
:104CC000B3E7032AFAD1244B1B68012BF6D1204B02
:104CD0001B68002B0AD01F4A1388013B1BB21380AC
:104CE00000231A4A13601C4A1360E7E7194A138825
:104CF00001331BB21380F3E7124B1B78032B9DD0BB
:104D00000222104B1A7099E70E4B1B78012B0CD026
:104D10000C4B1B78032B04D000220B4B1A80094B41
:104D20001A700022064B1A8030BD0322054B1A7000
:104D3000F7E7C0460044004104000020322A00206A
:104D4000302A0020342A0020382A00205C2300204A
:104D500060230020362A002058230020F8B5CE46D4
:104D6000474680B507000D000024414B9846414E50
:104D700024E0414B984701223E4B1A703F4B984725
:104D800024E03C4B1B78032B3DD03A4B1B78012B86
:104D900047D002239946002C53DD0022384B1A805D
:104DA000344B1A70002D02D10022314B1A80334B44
:104DB0009847002F54D04B46002B51D1002D02D1E3
:104DC00043461C8824B23378022BD2D0294B1B785F
:104DD000032B08D0002C06D1294B1B889BB2FA224A
:104DE0009200934238D9244B9847254B1B889BB29D
:104DF000FA2292009342C4D9224B1B68002BC0D1E7
:104E000004239946C9E7002C1DD11E4B1B680322C1
:104E10009146002BC1D000221A4B1A6007239946F5
:104E2000BBE705339946002C06DD0022144B1A809F
:104E30000132144B1A60B5E7002C04DA05239946B9
:104E4000F3E7002C05DB00220D4B1A800023994666
:104E5000A8E701239946A0E7002FAFD10023994688
:104E6000094B4A461A7048460CBC90469946F8BD14
:104E7000362A0020342A0020C1730000017400008B
:104E8000382A00205023002054230020F0B585B09C
:104E9000464B98470600882292000021444B9847D1
:104EA000042202A90120434B9847431C70D00422DE
:104EB000029901A8404B9847029B043302930223B6
:104EC00033800023B380019BB3600C23738087225F
:104ED0009200B3520122394BF252882292003100E3
:104EE0003748384B9847384B9847384C012103A82E
:104EF000A0470028FAD0039B1A88022A4AD19B882F
:104F0000002B4AD12C4D2F4F13E088229200310004
:104F10002B48B8472C4B98472C4C012103A8A0479D
:104F20000028FAD0039B1A88022A39D19B88012BCA
:104F300039D1019C002C2AD080239B009C4200D9AF
:104F40001C0002233380013BB38080229200F28058
:104F500008327280872189007252184AB352300099
:104F60000C3022000299A847029B1B190293019B57
:104F70001B1B0193C9D180239B009C42C5D01A1BE7
:104F800020000C3030180021094B9847BDE7002065
:104F900005B0F0BD01204042FAE701204042F7E7AA
:104FA00001204042F4E701204042F1E75D25000086
:104FB000717B000021450000754300001E020000C7
:104FC000281C0042D1380000F9340000652500009B
:104FD00010B504008379DB010A4A94466344826871
:104FE0005A61037BDB01634402695A610068064B26
:104FF0009847A379A268DB0102498C4663449A6111
:1050000010BDC046004400411D6800008379DB01EB
:10501000054A9446634482685A61037B0269DB0156
:1050200063449A617047C0460044004183798268B6
:10503000DB0102498C4663449A6170470044004199
:1050400070B504000E00090910231943034DA84749
:105050000F2131402000A84770BDC046D14F00004D
:1050600070B505000E00B021024CA04731002800A9
:10507000A04770BDD14F0000F8B505000F260E40C7
:1050800009010E43F6B200210E4B9847002128007B
:105090000D4B984728000D4B98478024A4010C4FD6
:1050A00031002868B847013C002CF9D12868094B29
:1050B0009847AB79AA68DB0107498C4663449A613B
:1050C000F8BDC04661500000415000000D50000086
:1050D00031680000416800000044004110B5040040
:1050E00000210A4B98472300143320001530FF306D
:1050F0000021002219809A7004338342FAD10023E0
:10510000B6225200A3520232A35210BD79500000C1
:1051100070B505000A4BC358002B10D0094CA047AE
:105120000028FCD02868084B9847AB79DB01074A78
:1051300094466344AA689A610022014BEA5070BD0C
:1051400074210000953700004168000000440041D0
:1051500070B504000D4B9847002120000C4B984778
:10516000002120000B4B984720000B4B9847A38849
:1051700021007531FF312068283080229201074DCF
:10518000A8470122064BE25070BDC04611510000F5
:1051900061500000415000000D5000002D3800000B
:1051A0007421000010B57530FF308022920100217B
:1051B000014B984710BDC046717B000010B504003C
:1051C000AE21034B98470022B8235B00E25010BD8C
:1051D000D14F000010B50400AF21054B98470122C4
:1051E000B8235B00E2506420024B984710BDC046D4
:1051F000D14F00009D73000070B504008A26760030
:105200008021090681511930FF300622044DA8473C
:10521000A159063120001F30FF303C22A84770BD45
:105220007543000070B5040001001531FF31012203
:105230000020164B9847431C1ED08A26760020007B
:105240001930FF300622A159114DA847A159063146
:105250003C2220001F30FF30A8478F235B00E35A19
:105260003F2B0ED890235B00E35A3E2B09D9012235
:10527000AE235B00E25008E000228A235B00E2508C
:1052800003E00022AE235B00E25070BD2145000028
:1052900075430000F8B5DE4657464E464546E0B534
:1052A00006000023B0225200835004328350503A4B
:1052B00083508021490056328152023A83529946E6
:1052C000304B9B469846B379DB012F4A94466344A2
:1052D000B2685A61337BDB01634432695A614B46E1
:1052E0005C1CA4B25B464A46995C3068274B9847E1
:1052F0004B4602339BB299465B461B5D9A46002B98
:1053000011D01C004B46214F5D1CADB24246D15C12
:105310003068B847013CA4B22B00002CF4D14B46B6
:1053200053449BB29946B379DB01174A94466344D0
:10533000B2689A61C046C0464B462D2BC3D9300097
:10534000134B984730007530FF30802292010021C6
:10535000104B98470022104BF250AF2130000F4BFA
:1053600098470122B8235B00F25030000C4B98475D
:1053700064200C4B98473CBC90469946A246AB46ED
:10538000F8BDC04648930000004400411D6800007D
:10539000DD500000717B000074210000D14F00003F
:1053A000F95100009D730000F0B5DE4657464646B1
:1053B000C0B592B007000C000191294B984700211D
:1053C0003800284B984700213800274B9847380071
:1053D000264B9847402202A92000254B9847BB88BE
:1053E00038682830202202A9224CA04780235B0085
:1053F000984600261E4B9B461F4C1E4B9A46012387
:105400005E40750102AB9C4665444022290001982C
:10541000D847A0470028FCD0BB8838682830202215
:105420002900D04701235B429C46E0444346002BC1
:10543000E5D1114CA0470028FCD038680F4B9847A5
:10544000BB79BA68DB010E498C4663449A610198C6
:105450000C4B984712B01CBC90469A46A346F0BD30
:105460001151000061500000415000000D5000003B
:10547000793A00002D38000095370000416800009F
:1054800000440041C53D0000F0B5DE4657464E469B
:105490004546E0B5C5B006000D00924601931C7963
:1054A000A2B293465B8898464E9B002B31D0002ACF
:1054B0007ED043465B089946CA0F5218521013001B
:1054C0007533FF335146C9015B18C4185B46013B75
:1054D0009BB25344DB01F532FF329B1882469A445B
:1054E0004B46013B9BB201339B460AE00198B04713
:1054F0002B78184328700135BD42F7D180345445CC
:1055000056D04B46002BF9D05B461F1925002D4E77
:10551000ECE72D4B9847424604A901982B4B98473E
:105520005B46002B44D0EA0F52195210D3B20293BB
:1055300043465B08039300270023A1461C0011E0AB
:10554000234DA8470028FCD03068224B9847B379F8
:10555000DB01214A94466344B2689A610137BBB2C9
:105560009B4525D95346D919C9B230001B4B9847E2
:10557000029930001A4B984730001A4B9847B3886D
:10558000E10104AA9446614430682830039A164D1C
:10559000A8474B46013BBB42D2D001235C40E1010E
:1055A00004AB9C46614442460198084B9847C7E7C4
:1055B00001980E4B984745B03CBC90469946A24690
:1055C000AB46F0BDE53D000011510000793A000006
:1055D0009537000041680000004400416150000020
:1055E000415000000D5000002D380000C53D000066
:1055F000F0B5DE4657464E464546E0B58BB007004F
:105600008946019319795E884B46DB0F4B445B104A
:1056100006935B004846C31A9BB20593149B002B6C
:1056200020D1002900D1DEE00598431E9841089062
:10563000B2464B469B19013BD80FC3185B101BB2F7
:105640000993D3B20393531D9B00FB180493931D3E
:10565000013989B25B189B00FB180793674B9B4687
:105660009946A9E0002900D1BDE00598431E984164
:1056700003900292D3017533FF33069DAC46634419
:10568000FB181C0001398BB29B18DB012A00F53294
:10569000FF329B18FB1804930690584B9B469A4682
:1056A000A04607972FE001210198544B98474346A5
:1056B0001B7818434346187028E001210198D84709
:1056C000000180B24B46E218D30F9B185B10FB1809
:1056D0007533FF331A78104318700235ADB2AE42FD
:1056E00007D9A946AB1CB342E7DC02210198D04799
:1056F000E8E7A146029B0133029380239C46E044E5
:10570000049B98456FD0059B002BCCD1039B9E42F8
:10571000F0D9069D029BDF01079B9C4667444C46DF
:10572000DFE701210198354B98470500049B0022D3
:105730009B5E069A934206D0E9B23868304B984790
:10574000012E4AD81DE0049B9D780543ADB2F3E7D6
:1057500001210198D847000183B202936B46197A60
:105760002868C0470234A4B2A64207D9A31CBB4292
:10577000EEDC02210198C8470290EFE7BA462F00FD
:10578000029D002D04D0049B9D706A46928C1A8065
:1057900038681C4B9847BB79DB011B4A944663442D
:1057A000BA689A61039B0133DBB20393049B043311
:1057B0000493079A934216D003993800134B9847E5
:1057C0006B46197E3800124B98473800114B9847AA
:1057D000059B002BA5D1002EDAD0089C084B9846DB
:1057E0003D005746C2E701980B4B98470BB03CBCB5
:1057F00090469946A246AB46F0BDC046F540000033
:105800003168000041680000004400416150000020
:10581000415000000D500000C53D000030B583B080
:105820000C00144304D10134FF345D88A5420AD032
:105830005C88E40701D4CC070CD5069C0094084C86
:10584000A04703B030BD1C79402CF4D11900054BA2
:105850009847F6E7069C0094034CA047F1E7C04642
:10586000F1550000A953000089540000F0B5A3B021
:10587000039008001700022221A90F4B9847041E2D
:1058800017D105AE0A22219930000C4B9847219A76
:105890000A320123310008AD2800094DA8473279AA
:1058A000F178009708AB0398064DA847200023B075
:1058B000F0BD01246442F9E7214500007543000072
:1058C000AD3900001D580000F0B5CE46474680B502
:1058D00085B081468A235B000200C3589C460020A5
:1058E000002B73D01F32FF324F465B37FF37002348
:1058F0003A4C07E0408801301B189B1B9BB20432D6
:10590000974229D010001688A642F3D08E42F1D8D3
:1059100055888D42EED32BE0AE235B004A46D35828
:105920000020002B52D08A235B00D35842331B192E
:105930003F21C91B490059186B469C1D02222000BB
:10594000274B98472288254B9A4223D100203DE0DF
:1059500002AB1878400839E0AE235B004A46D358C2
:10596000002B38D08F235B004A46D65A00233F21B4
:105970005C003700634642331B19891B49005918E4
:105980006B469E1D02223000154B98473288134B00
:105990009A42C1D06B46D988C90042318A235B0044
:1059A0004A46D358C9188D235B00D35A5B00C918E7
:1059B000082202A80A4B9847039B0133C8D002ABC8
:1059C00018789B785BB2C018013080B205B00CBC6F
:1059D00090469946F0BD0020F8E7C046FFFF000062
:1059E00075430000F8B505000E000988002910D0A5
:1059F0000D2910D002360024084F2800B84704199A
:105A0000A4B23188002902D002360D29F5D1200038
:105A1000F8BD0024FBE70024F9E7C046C9580000A0
:105A2000F0B5D6464F464646C0B5A0B08146029175
:105A300003928A225200825894460020002A00D104
:105A4000A8E04A461F32FF324C465B34FF34002543
:105A5000544F07E0498801316918091A8DB20432A0
:105A6000A2422CD011001088B842F3D09842F1D84D
:105A700056889E42EED32FE0AE235B004A46D358B1
:105A80000020002B00D185E08A235B00D1584231F1
:105A9000C919D53B5F1B7F00C9190A2702AB9C4679
:105AA000674402223800404B98473A883D4B9A425F
:105AB00026D100206EE005AB1F787F0865E0AE239D
:105AC0005B004A46D358002B00D169E08F235B006E
:105AD0004A46D05A0025DF3B6F000500624642323D
:105AE000D219191A490051180A2402AB9C46644481
:105AF000022220002C4B984722882A4B9A42BBD086
:105B00000A2302AA944663441988C90042318A23B1
:105B10005B004A46D358C9188D235B00D35A5B00FB
:105B2000C918082205A8204B9847069B5A1CC2D0CA
:105B300005AA1778022151560298844661448CB216
:105B40000321515603980D18ADB242338A21490002
:105B5000484641585B188D214900415A49005B185D
:105B60008E214900415AC9005B1849461931FF315D
:105B70000120009007A80D4EB0472AB221B2289B01
:105B8000009307AB48460A4CA04705AB98783818F5
:105B9000C0B2013020B01CBC90469946A246F0BD70
:105BA0000020F7E7FFFF0000754300002D3A0000DA
:105BB0001D580000F0B583B004000D0016008A23C4
:105BC0005B00C358002B56D00A293BD00D2904D1C5
:105BD000B0235B00C358002B47D1290020002A4B7B
:105BE0009847B6235B00E35E1818B5235B00E35EBD
:105BF000984210DDB2235B00E358002B3ED0B72261
:105C000052008C235B00E35CA15A5B18A352002274
:105C1000B6235B00E252B7235B00E25E8C235B009D
:105C2000E35C9B18402B2CDCB6277F00E15F0096DD
:105C30002B002000154DA847E35BC018E05300205F
:105C400003B0F0BDB2235B00C358002BC5D0B72210
:105C500052008C235B00C35C815A5B188352002284
:105C6000B6235B00C2520020EAE70022B6235B00A5
:105C7000C2520020E4E701204042E1E70120404217
:105C8000DEE701204042DBE7C9580000215A00004E
:105C9000F0B583B001900F001600098800290FD0DD
:105CA0000024084D023732000198A847002804D18B
:105CB0000134A4B239880029F4D1200003B0F0BD2A
:105CC0000024FAE7B55B0000F0B5C64600B5040055
:105CD0000D0090461E0006991F4B9847B5235B00A8
:105CE000E75E022E12D0012E1FD0B6235B00E552D4
:105CF00002334246E252079A06992000174B984712
:105D0000B5235B00E75204BC9046F0BDB4235B00B2
:105D1000E25EAB181B18BB42E7DAED19AD182D1A7D
:105D2000E80F45196D102DB2DFE7AF4202DDB52354
:105D30005B00E552B4235B00E25E83189D4208DA03
:105D4000B5214900615E15008B42CEDA0D1A2DB2E5
:105D5000CBE72D1A2DB2C8E7E5590000915C000091
:105D600010B582B00023019300910233002200217C
:105D7000014CA04702B010BDC95C0000F0B5D6468A
:105D80004F464646C0B5B2B004000D0090469A4654
:105D9000B5235B00C75E3CAB01933B9A402102A850
:105DA0002C4EB047002852DD002312A902AA580049
:105DB0009E5C46520133402BF9D112A92000264B9C
:105DC00098475346022B16D05346012B25D0B623B5
:105DD0005B00E55202334246E2523A9A12A9200091
:105DE0001E4B9847B5235B00E75232B01CBC90466F
:105DF0009946A246F0BD6733FF33E15EB5235B00F1
:105E0000E35E6A1812189A42E1DAEB185B18181A66
:105E1000C50F2818401005B2D9E76A33FF33E35E97
:105E2000AB4202DDB5235B00E552B4235B00E25ECA
:105E300083189D4202DB2D1A2DB2C8E7B521490017
:105E4000615E15008B42C2DA081A05B2BFE7002076
:105E5000CBE7C0461D7C0000E5590000915C0000C6
:105E6000084B1B695B0703D5064B04221A619A6035
:105E7000044B1B69DB0504D5024B802252001A61DA
:105E80009A60704700180040024B802212029A600C
:105E90009A61704700440041704700000821982330
:105EA000014AD1507047C046004400410123024AD4
:105EB0001360024A137670476423002000400042BA
:105EC000014B18687047C04664230020064A537E81
:105ED0005BB2002BFBDB0022044B1A60024B588B99
:105EE00080B202321A7370470040004264230020DF
:105EF00010B51D4A116A80235B020B4313621E21F9
:105F000000201A4B98470222194B5A701A00537EF0
:105F10005BB2002BFBDB164BA222D2009A804A22F6
:105F20009A701A00537E5BB2002BFBDB104AC02331
:105F30005B0113610123D375802109040D4B1960A6
:105F40000D4B1B685B01FC21C9000B400B49096824
:105F5000C90E0B431385537E5BB2002BFBDB022281
:105F6000034B1A7010BDC0460004004065240000B9
:105F70000040004200E100E02460800020608000DA
:105F80000C4B3E215A5C0F2082435A541E315A5CFE
:105F9000012002435A54084BDA6955398A430239C1
:105FA0000A43DA6180225200DA6059690A435A6171
:105FB0007047C046004400410018004010B5084B2F
:105FC000DA6907218A43DA6106485531425C0124C7
:105FD000A24342545A6904490A405A6110BDC0465E
:105FE0000018004000440041FFFEFFFF30B5134B96
:105FF000802212055A609A615B22995C0425042470
:1060000021439954995C02200143995429329D50AF
:1060100014329D502A32995C21439954995C014372
:106020009954802252055A609A615C22995C2143FE
:106030009954995C0143995430BDC04600440041D5
:1060400030B585B0174B08225A609A613B32995C93
:10605000042001439954995C02240220014399547D
:1060600059215A5C0125AA435A54802292049A600D
:106070009A61802212019A605A610B4A136A493967
:106080000B43136206310020084B98470295019498
:10609000009400230022EF210548064CA04705B0DC
:1060A00030BDC046004400410004004065240000AB
:1060B000001000428D6700000F4B802292049A610D
:1060C0008021490084229950802252045A6049203C
:1060D0001A5CFF398A431A5402301A5C8A431A54F4
:1060E00001381A5C8A431A54802212019A605A615C
:1060F000802292005A6070470044004130B51D4B29
:10610000802292045A618022520088215A500C3118
:106110005A50802252049A609A61802292009A60BA
:106120005A614B395A5C012422435A543420195C79
:106130000F2211403025294319548021090199600B
:1061400059611730195C214319541638195C0A40FB
:106150002A431A544A215A5C22435A541A5C0F2487
:10616000A243032422431A545A5C022002435A5485
:1061700030BDC04600440041074B49201A5C012154
:106180008A431A5402301A5C8A431A5401381A5C42
:106190008A431A547047C04600440041074B4920C7
:1061A0001A5C01210A431A5402301A5C0A431A5439
:1061B00001381A5C0A431A547047C0460044004133
:1061C000F0B5C64600B584B0304A536880208000E0
:1061D00003435360D36970218B4330390B43D36140
:1061E0002B4B842298503838FF381A5C0124A04683
:1061F00001252A431A54B426985D0F221040985561
:1062000099609961403199604720195C294319547C
:106210001438195C11403026314319548021090388
:1062200099601130195C294319541238195C0F27F1
:10623000B943032739431954202159605961253145
:106240005F5C0424A446644627435F545F5C3D437F
:106250005D54195C0A4032431A540E4A136A0421F1
:106260000B431362103100200B4B984743460293B7
:106270000233019343460093002300220221074882
:10628000074CA04704B004BC9046F0BD0018004085
:106290000044004100040040652400000008004262
:1062A0008D670000F0B5DE4657464E464546E0B5E0
:1062B00085B04A4C80231B04A360A36180239B0309
:1062C000A3605522A35C0121884601263343A354D1
:1062D0001B3AA35C0E3189460B4030210B43A3547B
:1062E00080235B03A3605421635C33436354A35C4A
:1062F00049468B4303210B43A3548023DB03636094
:1063000063615623E25C04210A43E254E25C3243B7
:10631000E2543B22A35C49468B430D390B43A35403
:106320002F4F3B6A1B3A13433B62153100202D4B24
:106330009B46984743460293019300230093002213
:1063400001212948294DAA46A84780235B02A36062
:10635000A36180239B02A3605122A35C3343A35417
:10636000193AA35C0F210B4020210B43A354802337
:106370001B03A3601B32A35C3343A3541A3AA35CF0
:106380000F251D400D43A5548023DB02636063612C
:106390005223E15C04200143E154E15C0E43E654E6
:1063A000A35C49468B430D390B43A3543B6A313AF6
:1063B00013433B6213310020D84743460293013315
:1063C000019300930023002201210948D04705B022
:1063D0003CBC90469946A246AB46F0BD0044004105
:1063E0000004004065240000001400428D67000096
:1063F000000C004270B584B0224B802252009A609B
:106400005A6101249C605C61802292019A605A6109
:106410008022D2019A609A61802252019A609A6128
:106420008820802212011A50CB22995C0125294331
:106430009954B5215E5CBC3A3240302632435A54FE
:106440008022D2001A5042301A5C2A431A545A5CF5
:10645000BB388243032002435A540B4A136A7539EE
:106460000B43136228390020084B984700230293FE
:1064700001940093002205210548064CA04704B072
:1064800070BDC04600440041000400406524000087
:10649000001800428D67000010B500280CD00122C2
:1064A000084B9A611E20084CA04780229201054BA0
:1064B0009A610120A04710BD80225200014B9A61D1
:1064C000F0E7C046004400419D730000034B80226A
:1064D00052005A61FF3A5A617047C0460044004179
:1064E000024B186A8007C00F7047C0460044004145
:1064F00010B50D4B04225A603E32995C01200143D5
:10650000995431215A5C0F24A24302435A54022267
:106510005A605A613F32995C042001439954995C56
:1065200002200143995410BD00440041074BD7217C
:106530005A5C012082435A54D622995C8143995473
:10654000995C0420014399547047C04600440041BF
:10655000074BD7215A5C012002435A54D622995C3A
:1065600001439954995C0420814399547047C04673
:106570000044004110B5204CD623E25C01200243C8
:10658000E254BB22A35C0F218B4303210B43A35492
:10659000D721635C03436354A15C0F230B4030217C
:1065A0000B43A354154A136A80210B4313626739C6
:1065B0000020134B98475E22A35C01218B43A35418
:1065C0008023DB05A36063610E480F4B1860190040
:1065D0005A3ACB691A42FCD10B4BC02292025A6044
:1065E00000229A810223184307490232CB691A42DA
:1065F000FCD1054B186010BD004400410004004070
:106600006524000004403200001C004210B5104A0E
:1066100053785BB2002BFBDB02220D4B1A700E325B
:106620000C4B1A600C4B98470C4B98470C4B9847F7
:106630000C4B98470C4B98470C4B98470C4B082237
:1066400088215A500C315A500A4B984710BDC04609
:106650000018004000E100E0F1640000ED5F000080
:10666000F5630000A5620000C161000075650000CF
:10667000004400414160000010B508219423034A02
:10668000D150034B9847034B984710BD004400413D
:106690002D650000815F000010B5034B9847034B48
:1066A0009847034B984710BDBD5F0000ED5F0000A9
:1066B0005165000030B52A4B1B682A4A11682A4AE6
:1066C000934208D0002848D0284A128B012040422B
:1066D000D20505D530BD264A9142F3D10020F9E715
:1066E000224A546850688025A8435060556880202D
:1066F000C00228435060108B2025FF3528431083AB
:106700001C48D0611C48108010000122057D1542F4
:10671000FCD0164A108B2025FF35284310831548DE
:10672000D06116480340490A49020F4803430C4808
:1067300003600F4B19430B4B1960114B138001235E
:10674000117D1942FCD0094B5C60BFF34F8F0D4A9D
:106750000D4BDA60BFF34F8FFEE701204042B9E7EF
:106760000040800004408000EFA7E0D800400041D6
:106770005AFCFFFF0020400005A5FFFF8800FE0136
:1067800006A5FFFF0400FA0500ED00E070B5160055
:1067900004AA127805AC2578C9B2017306994C1E7B
:1067A000A14101241C4064034B0423430424C16918
:1067B0000C42FCD143600221012E02D980239B05AB
:1067C000194302239E431CD1104B1940104B194012
:1067D00003231A4012050F4C214011432B401B0488
:1067E0000D4A114019438023994380331943E43BF8
:1067F0009943103B19430222C3691A42FCD101603C
:1068000070BD80235B051943E0E7C046FFFFFFEF43
:10681000FFFFFFF0FFFFCFFFFFFFFCFF0223037628
:1068200081620222037E1342FCD0806AC0B27047AC
:106830000122037E1342FCD002230376816270475B
:106840000222037E1342FCD07047000010B5040002
:10685000020000210220024B9847200010BDC046D4
:106860001571000010B504000200B021B220024BE7
:106870009847200010BDC0461571000010B50200F9
:106880001021B020C000014B984710BD29700000B6
:1068900010B504000200B221B420024B984720003A
:1068A00010BDC0461571000010B5040002000C2197
:1068B0000E20024B9847200010BDC0461571000005
:1068C00010B50400020002210A20024B9847200064
:1068D00010BDC0461571000010B502004021102007
:1068E000014B984710BDC0462970000010B5040048
:1068F00002000E211620024B9847200010BDC04612
:106900001571000010B502001021B220C000014B2B
:10691000984710BD2970000010B50020014B984722
:1069200010BDC046A16E000010B50220014B984773
:1069300010BDC046A16E000010B50120014B984764
:1069400010BDC046A16E000070B582B06B469C1DA4
:106950002000094EB04701AD2388DB432B8028007F
:10696000064B98472000B04728882388C01A434226
:106970005841404202B070BD9168000005690000B6
:1069800010B50400038802881B0A120213439BB24D
:106990000380020010215020044B9847238822884E
:1069A0001B0A120213439BB2238010BD2970000002
:1069B00010B582B06B469C1D074B238001AA074B84
:1069C0001B88138001210648064B98472000064B80
:1069D000984702B010BDC046F0F0FFFF789300006A
:1069E000A1050000297000008169000030B583B066
:1069F00001AC802323700023637022001021B0209B
:106A0000044DA84722001021B8208000A84703B0F9
:106A100030BDC0462970000010B584B0134A6B46E3
:106A2000DA80134B984700281CD0124B98476B46CE
:106A3000981D114B984702A8104B020012CB12C2AE
:106A40000F4B984701A80F4B03800F4B98470F4BF4
:106A500098470F4B98470F4B98470F4B984700208C
:106A600004B010BD01204042FAE7C046F0F0FFFF3D
:106A700049690000B1690000816900007C93000051
:106A8000D968000007E1FFFF05690000ED6900001B
:106A900019690000396900002969000030B583B028
:106AA00001AC220016211820104DA8476A465C212F
:106AB0005E20A8472378802B0ED101AB5B78002B9A
:106AC0000DD16B461B78802B0CD16B465878431E3A
:106AD0009841404203B030BD01204042FAE7012016
:106AE0004042F7E701204042F4E7C046157100003C
:106AF00010B582B001AC2000094B984724780423DC
:106B00000020012102E00133082B06D022001A41A7
:106B10001142F8D00130C0B2F5E702B010BDC04656
:106B2000A968000010B50B4B984700280BD10A4B01
:106B3000984703000120013309D0084B9847431CB4
:106B400006D0092003E0064B98470530C0B210BDBF
:106B50000120FCE7216F0000496900009D6A0000E8
:106B6000F16A000010B584B01F4B98470300002065
:106B7000002B04D0012B35D00230062B01D104B0FC
:106B800010BD6B469C1D2000184B98472288184B5F
:106B90009A4216D002A8174B98470822164902A815
:106BA000164B984703000420002BE8D101A8144B92
:106BB0000380144B984703000120092BDFD10230DA
:106BC000DDE701A80E4B03800F4B9847030001201F
:106BD000002BD4D10D4B984703000320002BCED0BF
:106BE0000238CCE70120CAE7B56D000091680000CB
:106BF000FFFF0000ED68000084930000417B00006F
:106C0000F0F0FFFF256B0000216F0000196A000003
:106C100082B00C230193019B5A1E0192002BFAD1E2
:106C200002B0704770B5044D8026B600AE61034CCB
:106C3000A0476E61A04770BD00440041116C000088
:106C400070B5044D8026B6006E61034CA047AE615E
:106C5000A04770BD00440041116C000070B50400F5
:106C6000802149009823124AD150124B9847002C9A
:106C700018D1802212010E4B5A610E4CA0470C4DC8
:106C80008026B600AE61A047802252009423EA50CD
:106C90000420094B98476E61A04780231B016B615C
:106CA000A04770BD80221201014B9A61E5E7C04602
:106CB00000440041116C00009D73000000B583B0DA
:106CC000124B1B78DBB26A46D371D3790732012BA2
:106CD00002D01378002B04D16B46D879C0B203B030
:106CE00000BD0B4B9847094B1B78022B06D0074B76
:106CF0001B78032B06D0074B9847EDE70122034B87
:106D00001A70F8E70022014B1A70F4E77023002094
:106D1000C17300000174000010B5214B1B6A1B07F2
:106D20001CD4204B1B889BB2FA2B0AD01D4B1B880E
:106D30009BB2FF2B29D01B4A138801339BB21380CF
:106D400023E0194B1B78032B1FD00222164B1A701D
:106D5000144A138801339BB2138016E0114B1B8831
:106D60009BB2002B03D0114B1B68002B0ED10E4B96
:106D70001B78012B10D00C4B1B78032B02D0002268
:106D8000094B1A700022074B1A8010BD084B984718
:106D90000022064B1A60EAE70322034B1A70F1E760
:106DA0000044004168230020702300206C23002051
:106DB000B960000070B582B01F4B984701221F4B8D
:106DC0001A60962040001E4B98476B469C1D200081
:106DD0001C4B98472288130A120213431A4A1BB20B
:106DE0000020934201D002B070BD01AC2000174ECC
:106DF000B0472388053323802000154B98476B4606
:106E00009D1D2800B0472A88238801209A42EAD194
:106E1000104B984704280BD880000F4B1B589F46F7
:106E20000320E0E70420DEE70520DCE70620DAE7C0
:106E30000620D8E70220D6E7FD6000006C23002082
:106E40009D7300004D6800000F0F00006568000092
:106E50007D680000F16A00009093000010B5064BB9
:106E60008021490094229950802252045A61034C97
:106E7000A047A04710BDC04600440041116C00006F
:106E800010B5054B802252049A618021490094225A
:106E90009950024B984710BD00440041116C00000E
:106EA00070B500280AD0022821D0012822D0124B28
:106EB0009847124B9847124B98470CE0114C0E4BD9
:106EC00098470E4B98470E4B98470F4DA847013CEB
:106ED000A4B2002CFAD1802252040C4B9A610120FA
:106EE0000B4B98470B4B98470B4B984770BDC324EF
:106EF000E400E4E7094CE2E779610000116C00006E
:106F00005D6E0000B4050000256C000000440041E7
:106F10005D6C0000816E00009D610000F9050000BD
:106F2000F0B5C64600B50600364B9847364B984735
:106F3000364B98475024364DA847013CA4B2002C4C
:106F4000FAD1314B98470F34012398462E4F304DDC
:106F500007E0802212012F4B9A61B847A847013CF5
:106F60000AD333889BB2234142461A42F1D0802291
:106F70001201284B5A61F0E7264D80239B006B617C
:106F8000214CA047A04780231B016B61A047A0476D
:106F900000242E008025ED001F4F08E0022523E08D
:106FA000042525E0B8470134A4B2042C28D0336A64
:106FB0002B42F7D00120194B984716498022D20066
:106FC0000B6A1342FCD10020144B9847114B1B6AEB
:106FD00000255B0508D40135002C05D0012CDDD03F
:106FE000A51E6B1E9D4103350B4B9847042CD7D033
:106FF0000B4B98470B4B9847280004BC9046F0BDBC
:107000000425F5E779610000116C00005D6E000059
:10701000416C000000440041256C00005D6C0000E4
:10702000816E00009D610000F0B5D6464F46464691
:10703000C0B50500894690462C4B98472C4B984785
:107040002C4B98472C4B9D4209D80024002D1FD073
:107050002A4EB0470134A4B2A542FAD118E0264C1A
:10706000264EB047013CA4B2002CFAD1244C802615
:107070003601A661214B98476661224BEE18002E1F
:1070800006DD00241D4FB8470134A4B2B442FADB38
:107090004B46002B20D0EF18BBB29A460027174E64
:1070A00010E00020184B9847E40843461B5D072278
:1070B000BA431341DB070BD5B04701370135ADB2F9
:1070C000AA4509D0BCB22B07EBD0002CECD1E8E7E5
:1070D00001200D4B9847EFE70C4B98470C4B984716
:1070E0001CBC90469946A246F0BDC046796100009E
:1070F000116C00005D6E0000DF020000256C0000D6
:107100000044004120FDFFFF5D6C0000816E000027
:107110009D610000F0B5D6464F4680B583B08146EC
:107120008A46160001920F4B98474B46002B10D011
:10713000002500240C4F04E00134E4B2A5B24D4513
:1071400007D200210948B847AA45F5D83070013662
:10715000F2E7074B9847019803B00CBC91469A465A
:10716000F0BDC0465D6E00001D68000000100042CA
:10717000816E000010B5354A53785BB2002BFBDB03
:10718000324B334A9A601A0053785BB2002BFBDB18
:107190002E4B304A5A601A0053785BB2002BFBDB4F
:1071A0002A4B812292005A8019008022D2014B88FA
:1071B0001342FCD1254A53785BB2002BFBDB234BF7
:1071C000254A5A80254A937A5BB2002BFBDB0022CA
:1071D000224B1A801A00937A5BB2002BFBDB012250
:1071E0001E4B1A801A00937A5BB2002BFBDB1B4903
:1071F00001220B881342FCD1184A937A5BB2002B10
:10720000FBDB164B164A1A801A210020154B9847B3
:10721000154A116A80235B000B43136213498022D5
:107220008B681A42FCD1124A104B1A6419000222D0
:107230008B681A42FCD10D4B02221A60013A9A6205
:10724000802212020B4B1A6010BDC046000C004099
:107250000320000003032900044300000014004041
:107260000A0A0000652400000004004000200042DB
:107270007FBB000000E100E0094A937A5BB2002B7B
:10728000FBDB074A5388802109020B435380937A22
:107290005BB2002BFBDB024B1B6903607047C046EF
:1072A00000140040104A1368013313600F4B1B6831
:1072B000002B05D00D4A1368591E1160012B0AD00E
:1072C0000A4B9B68002B05D0084A9368591E9160B1
:1072D000012B04D070470022044B5A60F0E70022D3
:1072E000024BDA60F6E7C0464C2A00203C2A002018
:1072F00010B5074BDB6ADB0700D410BD0122044B3D
:10730000DA62044B9847044B9847044B9847F4E7DC
:1073100000200042A5720000196D0000DD4B000046
:10732000014B18687047C0464C2A0020C200094B28
:107330009B185A680123002A02D10023012901D099
:1073400018007047C000034B181801234360002346
:10735000F6E7C0463C2A002070B504000D00C200CC
:107360000B4BD3588B420CD00A4B9847E300084A8A
:107370009D50002D06D11C00141900236360064B9C
:10738000984770BDE400024B1C1901236360F6E7C7
:107390003C2A0020C17300000174000010B5411C9C
:1073A0000020054B9847054A5368002BFCD1012269
:1073B000024B5A6010BDC046597300003C2A0020A1
:1073C0000C4B1B68002B06D1EFF31083002B07D06A
:1073D0000022094B1A70074A136801331360704783
:1073E00072B6BFF35F8F0022044B1A700132024B5A
:1073F0001A70F0E774230020782300200C0000208E
:10740000084B1A68013A1A601B68002B09D1064B19
:107410001B78002B05D00122044B1A70BFF35F8F3D
:1074200062B6704774230020782300200C000020EF
:10743000FEE70000F8B52A4A2A4B9A4211D01A00FA
:10744000294B9A420DD2294A03339B1A9B080133D8
:107450009B000022234822498C58845004329A42CF
:10746000FAD1234A234B9A420AD2D34321495B18CB
:1074700003218B4304339B18002102C29342FCD1A9
:107480001D4AFF211D4B8B439360FD3990235B0008
:107490001B4AD1501B4AD3780325AB430224234314
:1074A000D370D3780C27BB4308263343D370164BD5
:1074B000987B30229043202210439873997BB943E4
:1074C000314399739A7BAA4322439A730F4A5368B4
:1074D00080210B4353600E4B98470E4B9847FEE7B5
:1074E0007494000000000020E0220020040000202E
:1074F000E0220020542A002000ED00E000200000DF
:10750000007000410050004100480041004000412F
:10751000F97A0000597700000300064A1268002A31
:1075200004D0044A1068C318136070470249014A26
:107530001160F6E77C230020584A002010B582B085
:10754000304B9847304B0193019B5A1E0192002B00
:10755000FAD101202D4B9847431C00D1FEE72C4B5C
:10756000984704002B4B98472B4B98472B4B984739
:107570002B4B98472B4B98472B4B98472B482C4B22
:1075800098472C4B98472C4B98472C482C4B9847A6
:107590002C4B98472C4B9847012C0ED023482B4B53
:1075A0009847431C0ED02A482A4B9847431C0ED1BB
:1075B00029492248294B9847FEE729491F48274B6C
:1075C0009847FEE727491D48244B9847FEE7264881
:1075D000264B9847431C08D0254B9847431C09D09D
:1075E0001648244B984702B010BD234913481B4B43
:1075F0009847FEE721491148184B98472048214BEE
:107600009847F0E7895E0000A0860100B56600009B
:10761000F54600008D24000009350000757100005A
:107620000D660000F15E000041250000EC00002026
:1076300085440000E164000099640000040100201A
:1076400095520000995E00009D5E0000D94A00003E
:10765000F8000020894B0000D0930000615D00001D
:10766000A4930000B4930000100000200D2300003C
:107670008946000025520000E89300000C940000A9
:10768000B80B00009D73000070B51C4B98471C4858
:107690001C4B98471C4CA0470028FCD0184C2000DD
:1076A0001A4B98471A481B4B98471B4D28001B4BF9
:1076B00098471B4E30001B4B98471B4B98471B4B62
:1076C00098471B4B984704221A4B1A61BFF34F8F00
:1076D00030BF194B9847194B9847194B9847194B8E
:1076E00098473000184B98472800184B9847184B7C
:1076F00098472000174B984770BDC04621390000BD
:107700001000002085220000AD3700004922000053
:10771000F8000020C54B0000EC0000202D4B0000BD
:1077200004010020BD510000CD640000C1730000C1
:107730007966000000ED00E0996600000174000029
:10774000E164000099640000D5510000B14A0000D6
:1077500041250000C5210000F8B51E4B9847FA20CE
:10776000C0001D4B98471D4B98471D4B9847002460
:107770001C4D1D4F260078360FE01C4B5B8B5B07C2
:1077800017D41B4B5B8B5B0718D400210020194BCF
:107790009847012817D0A642ECD00134A8471648D4
:1077A000B8470028E9D0C8235B009C42E5D9C04611
:1077B000E3E712491248134B9847E2E71249104891
:1077C000104B9847E1E7FA20C000034B9847034B62
:1077D0009847E0E73D7500009D7300008976000042
:1077E000F9310000BD25000085220000000C004298
:1077F000001800425D4D000010000020448600008B
:1078000004010020615D0000608600000022430842
:107810008B4274D303098B425FD3030A8B4244D358
:10782000030B8B4228D3030C8B420DD3FF2209029A
:1078300012BA030C8B4202D31212090265D0030B59
:107840008B4219D300E0090AC30B8B4201D3CB034F
:10785000C01A5241830B8B4201D38B03C01A524191
:10786000430B8B4201D34B03C01A5241030B8B4293
:1078700001D30B03C01A5241C30A8B4201D3CB027E
:10788000C01A5241830A8B4201D38B02C01A524163
:10789000430A8B4201D34B02C01A5241030A8B4266
:1078A00001D30B02C01A5241CDD2C3098B4201D37E
:1078B000CB01C01A524183098B4201D38B01C01AFC
:1078C000524143098B4201D34B01C01A5241030973
:1078D0008B4201D30B01C01A5241C3088B4201D322
:1078E000CB00C01A524183088B4201D38B00C01ACF
:1078F000524143088B4201D34B00C01A5241411AF6
:1079000000D20146524110467047FFE701B5002002
:1079100000F0F0F802BDC0460029F7D076E77047C6
:1079200003460B437FD4002243088B4274D30309E0
:107930008B425FD3030A8B4244D3030B8B4228D381
:10794000030C8B420DD3FF22090212BA030C8B42A7
:1079500002D31212090265D0030B8B4219D300E047
:10796000090AC30B8B4201D3CB03C01A5241830BCC
:107970008B4201D38B03C01A5241430B8B4201D37C
:107980004B03C01A5241030B8B4201D30B03C01AA5
:107990005241C30A8B4201D3CB02C01A5241830A1F
:1079A0008B4201D38B02C01A5241430A8B4201D34E
:1079B0004B02C01A5241030A8B4201D30B02C01A78
:1079C0005241CDD2C3098B4201D3CB01C01A5241DF
:1079D00083098B4201D38B01C01A524143098B4268
:1079E00001D34B01C01A524103098B4201D30B0151
:1079F000C01A5241C3088B4201D3CB00C01A524176
:107A000083088B4201D38B00C01A524143088B423A
:107A100001D34B00C01A5241411A00D201465241D3
:107A2000104670475DE0CA0F00D04942031000D3F2
:107A30004042534000229C4603098B422DD3030A47
:107A40008B4212D3FC22890112BA030A8B420CD357
:107A5000890192118B4208D3890192118B4204D380
:107A600089013AD0921100E08909C3098B4201D300
:107A7000CB01C01A524183098B4201D38B01C01A3A
:107A8000524143098B4201D34B01C01A52410309B1
:107A90008B4201D30B01C01A5241C3088B4201D360
